{"abi":[{"inputs":[{"internalType":"uint256","name":"_minContribution","type":"uint256"},{"internalType":"address","name":"creator","type":"address"}],"stateMutability":"nonpayable","type":"constructor"},{"inputs":[{"internalType":"uint256","name":"index","type":"uint256"}],"name":"approveRequest","outputs":[],"stateMutability":"nonpayable","type":"function"},{"inputs":[{"internalType":"address","name":"","type":"address"}],"name":"approvers","outputs":[{"internalType":"bool","name":"","type":"bool"}],"stateMutability":"view","type":"function"},{"inputs":[],"name":"approversCount","outputs":[{"internalType":"uint256","name":"","type":"uint256"}],"stateMutability":"view","type":"function"},{"inputs":[],"name":"contribute","outputs":[],"stateMutability":"payable","type":"function"},{"inputs":[{"internalType":"string","name":"_description","type":"string"},{"internalType":"uint256","name":"_value","type":"uint256"},{"internalType":"address","name":"_recipient","type":"address"}],"name":"createRequest","outputs":[],"stateMutability":"nonpayable","type":"function"},{"inputs":[{"internalType":"uint256","name":"index","type":"uint256"}],"name":"finalizeRequest","outputs":[],"stateMutability":"nonpayable","type":"function"},{"inputs":[],"name":"getRequestsCount","outputs":[{"internalType":"uint256","name":"","type":"uint256"}],"stateMutability":"view","type":"function"},{"inputs":[],"name":"getSummary","outputs":[{"internalType":"uint256","name":"","type":"uint256"},{"internalType":"uint256","name":"","type":"uint256"},{"internalType":"uint256","name":"","type":"uint256"},{"internalType":"uint256","name":"","type":"uint256"},{"internalType":"address","name":"","type":"address"}],"stateMutability":"view","type":"function"},{"inputs":[],"name":"manager","outputs":[{"internalType":"address payable","name":"","type":"address"}],"stateMutability":"view","type":"function"},{"inputs":[],"name":"minContribution","outputs":[{"internalType":"uint256","name":"","type":"uint256"}],"stateMutability":"view","type":"function"},{"inputs":[],"name":"numRequests","outputs":[{"internalType":"uint256","name":"","type":"uint256"}],"stateMutability":"view","type":"function"},{"inputs":[{"internalType":"uint256","name":"","type":"uint256"}],"name":"requests","outputs":[{"internalType":"string","name":"description","type":"string"},{"internalType":"address","name":"recipient","type":"address"},{"internalType":"uint256","name":"value","type":"uint256"},{"internalType":"bool","name":"complete","type":"bool"},{"internalType":"uint256","name":"approvalCount","type":"uint256"}],"stateMutability":"view","type":"function"}],"devdoc":{"kind":"dev","methods":{},"version":1},"evm":{"assembly":"    /* \"Compaign.sol\":455:2625  contract Compaign {... */\n  mstore(0x40, 0x80)\n    /* \"Compaign.sol\":992:1132  constructor(uint _minContribution, address creator) {... */\n  callvalue\n  dup1\n  iszero\n  tag_1\n  jumpi\n  0x00\n  dup1\n  revert\ntag_1:\n  pop\n  mload(0x40)\n  sub(codesize, bytecodeSize)\n  dup1\n  bytecodeSize\n  dup4\n  codecopy\n  dup2\n  dup2\n  add\n  0x40\n  mstore\n  dup2\n  add\n  swap1\n  tag_2\n  swap2\n  swap1\n  tag_3\n  jump\t// in\ntag_2:\n    /* \"Compaign.sol\":1072:1079  creator */\n  dup1\n    /* \"Compaign.sol\":1054:1061  manager */\n  0x03\n  0x00\n    /* \"Compaign.sol\":1054:1080  manager = payable(creator) */\n  0x0100\n  exp\n  dup2\n  sload\n  dup2\n  0xffffffffffffffffffffffffffffffffffffffff\n  mul\n  not\n  and\n  swap1\n  dup4\n  0xffffffffffffffffffffffffffffffffffffffff\n  and\n  mul\n  or\n  swap1\n  sstore\n  pop\n    /* \"Compaign.sol\":1108:1124  _minContribution */\n  dup2\n    /* \"Compaign.sol\":1090:1105  minContribution */\n  0x02\n    /* \"Compaign.sol\":1090:1124  minContribution = _minContribution */\n  dup2\n  swap1\n  sstore\n  pop\n    /* \"Compaign.sol\":992:1132  constructor(uint _minContribution, address creator) {... */\n  pop\n  pop\n    /* \"Compaign.sol\":455:2625  contract Compaign {... */\n  jump(tag_6)\n    /* \"#utility.yul\":88:205   */\ntag_8:\n    /* \"#utility.yul\":197:198   */\n  0x00\n    /* \"#utility.yul\":194:195   */\n  dup1\n    /* \"#utility.yul\":187:199   */\n  revert\n    /* \"#utility.yul\":334:411   */\ntag_10:\n    /* \"#utility.yul\":371:378   */\n  0x00\n    /* \"#utility.yul\":400:405   */\n  dup2\n    /* \"#utility.yul\":389:405   */\n  swap1\n  pop\n    /* \"#utility.yul\":334:411   */\n  swap2\n  swap1\n  pop\n  jump\t// out\n    /* \"#utility.yul\":417:539   */\ntag_11:\n    /* \"#utility.yul\":490:514   */\n  tag_23\n    /* \"#utility.yul\":508:513   */\n  dup2\n    /* \"#utility.yul\":490:514   */\n  tag_10\n  jump\t// in\ntag_23:\n    /* \"#utility.yul\":483:488   */\n  dup2\n    /* \"#utility.yul\":480:515   */\n  eq\n    /* \"#utility.yul\":470:533   */\n  tag_24\n  jumpi\n    /* \"#utility.yul\":529:530   */\n  0x00\n    /* \"#utility.yul\":526:527   */\n  dup1\n    /* \"#utility.yul\":519:531   */\n  revert\n    /* \"#utility.yul\":470:533   */\ntag_24:\n    /* \"#utility.yul\":417:539   */\n  pop\n  jump\t// out\n    /* \"#utility.yul\":545:688   */\ntag_12:\n    /* \"#utility.yul\":602:607   */\n  0x00\n    /* \"#utility.yul\":633:639   */\n  dup2\n    /* \"#utility.yul\":627:640   */\n  mload\n    /* \"#utility.yul\":618:640   */\n  swap1\n  pop\n    /* \"#utility.yul\":649:682   */\n  tag_26\n    /* \"#utility.yul\":676:681   */\n  dup2\n    /* \"#utility.yul\":649:682   */\n  tag_11\n  jump\t// in\ntag_26:\n    /* \"#utility.yul\":545:688   */\n  swap3\n  swap2\n  pop\n  pop\n  jump\t// out\n    /* \"#utility.yul\":694:820   */\ntag_13:\n    /* \"#utility.yul\":731:738   */\n  0x00\n    /* \"#utility.yul\":771:813   */\n  0xffffffffffffffffffffffffffffffffffffffff\n    /* \"#utility.yul\":764:769   */\n  dup3\n    /* \"#utility.yul\":760:814   */\n  and\n    /* \"#utility.yul\":749:814   */\n  swap1\n  pop\n    /* \"#utility.yul\":694:820   */\n  swap2\n  swap1\n  pop\n  jump\t// out\n    /* \"#utility.yul\":826:922   */\ntag_14:\n    /* \"#utility.yul\":863:870   */\n  0x00\n    /* \"#utility.yul\":892:916   */\n  tag_29\n    /* \"#utility.yul\":910:915   */\n  dup3\n    /* \"#utility.yul\":892:916   */\n  tag_13\n  jump\t// in\ntag_29:\n    /* \"#utility.yul\":881:916   */\n  swap1\n  pop\n    /* \"#utility.yul\":826:922   */\n  swap2\n  swap1\n  pop\n  jump\t// out\n    /* \"#utility.yul\":928:1050   */\ntag_15:\n    /* \"#utility.yul\":1001:1025   */\n  tag_31\n    /* \"#utility.yul\":1019:1024   */\n  dup2\n    /* \"#utility.yul\":1001:1025   */\n  tag_14\n  jump\t// in\ntag_31:\n    /* \"#utility.yul\":994:999   */\n  dup2\n    /* \"#utility.yul\":991:1026   */\n  eq\n    /* \"#utility.yul\":981:1044   */\n  tag_32\n  jumpi\n    /* \"#utility.yul\":1040:1041   */\n  0x00\n    /* \"#utility.yul\":1037:1038   */\n  dup1\n    /* \"#utility.yul\":1030:1042   */\n  revert\n    /* \"#utility.yul\":981:1044   */\ntag_32:\n    /* \"#utility.yul\":928:1050   */\n  pop\n  jump\t// out\n    /* \"#utility.yul\":1056:1199   */\ntag_16:\n    /* \"#utility.yul\":1113:1118   */\n  0x00\n    /* \"#utility.yul\":1144:1150   */\n  dup2\n    /* \"#utility.yul\":1138:1151   */\n  mload\n    /* \"#utility.yul\":1129:1151   */\n  swap1\n  pop\n    /* \"#utility.yul\":1160:1193   */\n  tag_34\n    /* \"#utility.yul\":1187:1192   */\n  dup2\n    /* \"#utility.yul\":1160:1193   */\n  tag_15\n  jump\t// in\ntag_34:\n    /* \"#utility.yul\":1056:1199   */\n  swap3\n  swap2\n  pop\n  pop\n  jump\t// out\n    /* \"#utility.yul\":1205:1712   */\ntag_3:\n    /* \"#utility.yul\":1284:1290   */\n  0x00\n    /* \"#utility.yul\":1292:1298   */\n  dup1\n    /* \"#utility.yul\":1341:1343   */\n  0x40\n    /* \"#utility.yul\":1329:1338   */\n  dup4\n    /* \"#utility.yul\":1320:1327   */\n  dup6\n    /* \"#utility.yul\":1316:1339   */\n  sub\n    /* \"#utility.yul\":1312:1344   */\n  slt\n    /* \"#utility.yul\":1309:1428   */\n  iszero\n  tag_36\n  jumpi\n    /* \"#utility.yul\":1347:1426   */\n  tag_37\n  tag_8\n  jump\t// in\ntag_37:\n    /* \"#utility.yul\":1309:1428   */\ntag_36:\n    /* \"#utility.yul\":1467:1468   */\n  0x00\n    /* \"#utility.yul\":1492:1556   */\n  tag_38\n    /* \"#utility.yul\":1548:1555   */\n  dup6\n    /* \"#utility.yul\":1539:1545   */\n  dup3\n    /* \"#utility.yul\":1528:1537   */\n  dup7\n    /* \"#utility.yul\":1524:1546   */\n  add\n    /* \"#utility.yul\":1492:1556   */\n  tag_12\n  jump\t// in\ntag_38:\n    /* \"#utility.yul\":1482:1556   */\n  swap3\n  pop\n    /* \"#utility.yul\":1438:1566   */\n  pop\n    /* \"#utility.yul\":1605:1607   */\n  0x20\n    /* \"#utility.yul\":1631:1695   */\n  tag_39\n    /* \"#utility.yul\":1687:1694   */\n  dup6\n    /* \"#utility.yul\":1678:1684   */\n  dup3\n    /* \"#utility.yul\":1667:1676   */\n  dup7\n    /* \"#utility.yul\":1663:1685   */\n  add\n    /* \"#utility.yul\":1631:1695   */\n  tag_16\n  jump\t// in\ntag_39:\n    /* \"#utility.yul\":1621:1695   */\n  swap2\n  pop\n    /* \"#utility.yul\":1576:1705   */\n  pop\n    /* \"#utility.yul\":1205:1712   */\n  swap3\n  pop\n  swap3\n  swap1\n  pop\n  jump\t// out\n    /* \"Compaign.sol\":455:2625  contract Compaign {... */\ntag_6:\n  dataSize(sub_0)\n  dup1\n  dataOffset(sub_0)\n  0x00\n  codecopy\n  0x00\n  return\nstop\n\nsub_0: assembly {\n        /* \"Compaign.sol\":455:2625  contract Compaign {... */\n      mstore(0x40, 0x80)\n      jumpi(tag_1, lt(calldatasize, 0x04))\n      shr(0xe0, calldataload(0x00))\n      dup1\n      0x82fde093\n      gt\n      tag_14\n      jumpi\n      dup1\n      0x82fde093\n      eq\n      tag_8\n      jumpi\n      dup1\n      0x8a9cfd55\n      eq\n      tag_9\n      jumpi\n      dup1\n      0x9fb42b1f\n      eq\n      tag_10\n      jumpi\n      dup1\n      0xaaffadf3\n      eq\n      tag_11\n      jumpi\n      dup1\n      0xd7bb99ba\n      eq\n      tag_12\n      jumpi\n      dup1\n      0xd7d1bbdb\n      eq\n      tag_13\n      jumpi\n      jump(tag_1)\n    tag_14:\n      dup1\n      0x03441006\n      eq\n      tag_2\n      jumpi\n      dup1\n      0x0a144391\n      eq\n      tag_3\n      jumpi\n      dup1\n      0x3410452a\n      eq\n      tag_4\n      jumpi\n      dup1\n      0x4051ddac\n      eq\n      tag_5\n      jumpi\n      dup1\n      0x481c6a75\n      eq\n      tag_6\n      jumpi\n      dup1\n      0x81d12c58\n      eq\n      tag_7\n      jumpi\n    tag_1:\n      0x00\n      dup1\n      revert\n        /* \"Compaign.sol\":1969:2274  function finalizeRequest(uint index) public restricted {... */\n    tag_2:\n      callvalue\n      dup1\n      iszero\n      tag_15\n      jumpi\n      0x00\n      dup1\n      revert\n    tag_15:\n      pop\n      tag_16\n      0x04\n      dup1\n      calldatasize\n      sub\n      dup2\n      add\n      swap1\n      tag_17\n      swap2\n      swap1\n      tag_18\n      jump\t// in\n    tag_17:\n      tag_19\n      jump\t// in\n    tag_16:\n      stop\n        /* \"Compaign.sol\":826:867  mapping(address => bool) public approvers */\n    tag_3:\n      callvalue\n      dup1\n      iszero\n      tag_20\n      jumpi\n      0x00\n      dup1\n      revert\n    tag_20:\n      pop\n      tag_21\n      0x04\n      dup1\n      calldatasize\n      sub\n      dup2\n      add\n      swap1\n      tag_22\n      swap2\n      swap1\n      tag_23\n      jump\t// in\n    tag_22:\n      tag_24\n      jump\t// in\n    tag_21:\n      mload(0x40)\n      tag_25\n      swap2\n      swap1\n      tag_26\n      jump\t// in\n    tag_25:\n      mload(0x40)\n      dup1\n      swap2\n      sub\n      swap1\n      return\n        /* \"Compaign.sol\":2533:2623  function getRequestsCount() public view returns (uint) {... */\n    tag_4:\n      callvalue\n      dup1\n      iszero\n      tag_27\n      jumpi\n      0x00\n      dup1\n      revert\n    tag_27:\n      pop\n      tag_28\n      tag_29\n      jump\t// in\n    tag_28:\n      mload(0x40)\n      tag_30\n      swap2\n      swap1\n      tag_31\n      jump\t// in\n    tag_30:\n      mload(0x40)\n      dup1\n      swap2\n      sub\n      swap1\n      return\n        /* \"Compaign.sol\":2280:2527  function getSummary() public view returns(uint, uint, uint, uint, address) {... */\n    tag_5:\n      callvalue\n      dup1\n      iszero\n      tag_32\n      jumpi\n      0x00\n      dup1\n      revert\n    tag_32:\n      pop\n      tag_33\n      tag_34\n      jump\t// in\n    tag_33:\n      mload(0x40)\n      tag_35\n      swap6\n      swap5\n      swap4\n      swap3\n      swap2\n      swap1\n      tag_36\n      jump\t// in\n    tag_35:\n      mload(0x40)\n      dup1\n      swap2\n      sub\n      swap1\n      return\n        /* \"Compaign.sol\":790:820  address payable public manager */\n    tag_6:\n      callvalue\n      dup1\n      iszero\n      tag_37\n      jumpi\n      0x00\n      dup1\n      revert\n    tag_37:\n      pop\n      tag_38\n      tag_39\n      jump\t// in\n    tag_38:\n      mload(0x40)\n      tag_40\n      swap2\n      swap1\n      tag_41\n      jump\t// in\n    tag_40:\n      mload(0x40)\n      dup1\n      swap2\n      sub\n      swap1\n      return\n        /* \"Compaign.sol\":706:746  mapping(uint => Request) public requests */\n    tag_7:\n      callvalue\n      dup1\n      iszero\n      tag_42\n      jumpi\n      0x00\n      dup1\n      revert\n    tag_42:\n      pop\n      tag_43\n      0x04\n      dup1\n      calldatasize\n      sub\n      dup2\n      add\n      swap1\n      tag_44\n      swap2\n      swap1\n      tag_18\n      jump\t// in\n    tag_44:\n      tag_45\n      jump\t// in\n    tag_43:\n      mload(0x40)\n      tag_46\n      swap6\n      swap5\n      swap4\n      swap3\n      swap2\n      swap1\n      tag_47\n      jump\t// in\n    tag_46:\n      mload(0x40)\n      dup1\n      swap2\n      sub\n      swap1\n      return\n        /* \"Compaign.sol\":873:899  uint public approversCount */\n    tag_8:\n      callvalue\n      dup1\n      iszero\n      tag_48\n      jumpi\n      0x00\n      dup1\n      revert\n    tag_48:\n      pop\n      tag_49\n      tag_50\n      jump\t// in\n    tag_49:\n      mload(0x40)\n      tag_51\n      swap2\n      swap1\n      tag_31\n      jump\t// in\n    tag_51:\n      mload(0x40)\n      dup1\n      swap2\n      sub\n      swap1\n      return\n        /* \"Compaign.sol\":1299:1677  function createRequest(string memory _description, uint _value, address _recipient) public restricted {... */\n    tag_9:\n      callvalue\n      dup1\n      iszero\n      tag_52\n      jumpi\n      0x00\n      dup1\n      revert\n    tag_52:\n      pop\n      tag_53\n      0x04\n      dup1\n      calldatasize\n      sub\n      dup2\n      add\n      swap1\n      tag_54\n      swap2\n      swap1\n      tag_55\n      jump\t// in\n    tag_54:\n      tag_56\n      jump\t// in\n    tag_53:\n      stop\n        /* \"Compaign.sol\":677:700  uint public numRequests */\n    tag_10:\n      callvalue\n      dup1\n      iszero\n      tag_57\n      jumpi\n      0x00\n      dup1\n      revert\n    tag_57:\n      pop\n      tag_58\n      tag_59\n      jump\t// in\n    tag_58:\n      mload(0x40)\n      tag_60\n      swap2\n      swap1\n      tag_31\n      jump\t// in\n    tag_60:\n      mload(0x40)\n      dup1\n      swap2\n      sub\n      swap1\n      return\n        /* \"Compaign.sol\":757:784  uint public minContribution */\n    tag_11:\n      callvalue\n      dup1\n      iszero\n      tag_61\n      jumpi\n      0x00\n      dup1\n      revert\n    tag_61:\n      pop\n      tag_62\n      tag_63\n      jump\t// in\n    tag_62:\n      mload(0x40)\n      tag_64\n      swap2\n      swap1\n      tag_31\n      jump\t// in\n    tag_64:\n      mload(0x40)\n      dup1\n      swap2\n      sub\n      swap1\n      return\n        /* \"Compaign.sol\":1138:1293  function contribute() public payable {... */\n    tag_12:\n      tag_65\n      tag_66\n      jump\t// in\n    tag_65:\n      stop\n        /* \"Compaign.sol\":1683:1963  function approveRequest(uint index) public {... */\n    tag_13:\n      callvalue\n      dup1\n      iszero\n      tag_67\n      jumpi\n      0x00\n      dup1\n      revert\n    tag_67:\n      pop\n      tag_68\n      0x04\n      dup1\n      calldatasize\n      sub\n      dup2\n      add\n      swap1\n      tag_69\n      swap2\n      swap1\n      tag_18\n      jump\t// in\n    tag_69:\n      tag_70\n      jump\t// in\n    tag_68:\n      stop\n        /* \"Compaign.sol\":1969:2274  function finalizeRequest(uint index) public restricted {... */\n    tag_19:\n        /* \"Compaign.sol\":960:967  manager */\n      0x03\n      0x00\n      swap1\n      sload\n      swap1\n      0x0100\n      exp\n      swap1\n      div\n      0xffffffffffffffffffffffffffffffffffffffff\n      and\n        /* \"Compaign.sol\":946:967  msg.sender == manager */\n      0xffffffffffffffffffffffffffffffffffffffff\n      and\n        /* \"Compaign.sol\":946:956  msg.sender */\n      caller\n        /* \"Compaign.sol\":946:967  msg.sender == manager */\n      0xffffffffffffffffffffffffffffffffffffffff\n      and\n      eq\n        /* \"Compaign.sol\":938:968  require(msg.sender == manager) */\n      tag_72\n      jumpi\n      0x00\n      dup1\n      revert\n    tag_72:\n        /* \"Compaign.sol\":2034:2057  Request storage request */\n      0x00\n        /* \"Compaign.sol\":2060:2068  requests */\n      0x01\n        /* \"Compaign.sol\":2060:2075  requests[index] */\n      0x00\n        /* \"Compaign.sol\":2069:2074  index */\n      dup4\n        /* \"Compaign.sol\":2060:2075  requests[index] */\n      dup2\n      mstore\n      0x20\n      add\n      swap1\n      dup2\n      mstore\n      0x20\n      add\n      0x00\n      keccak256\n        /* \"Compaign.sol\":2034:2075  Request storage request = requests[index] */\n      swap1\n      pop\n        /* \"Compaign.sol\":2135:2136  2 */\n      0x02\n        /* \"Compaign.sol\":2118:2132  approversCount */\n      sload(0x05)\n        /* \"Compaign.sol\":2118:2136  approversCount / 2 */\n      tag_74\n      swap2\n      swap1\n      tag_75\n      jump\t// in\n    tag_74:\n        /* \"Compaign.sol\":2094:2101  request */\n      dup2\n        /* \"Compaign.sol\":2094:2115  request.approvalCount */\n      0x04\n      add\n      sload\n        /* \"Compaign.sol\":2094:2136  request.approvalCount > approversCount / 2 */\n      gt\n        /* \"Compaign.sol\":2086:2137  require(request.approvalCount > approversCount / 2) */\n      tag_76\n      jumpi\n      0x00\n      dup1\n      revert\n    tag_76:\n        /* \"Compaign.sol\":2156:2163  request */\n      dup1\n        /* \"Compaign.sol\":2156:2172  request.complete */\n      0x03\n      add\n      0x00\n      swap1\n      sload\n      swap1\n      0x0100\n      exp\n      swap1\n      div\n      0xff\n      and\n        /* \"Compaign.sol\":2155:2172  !request.complete */\n      iszero\n        /* \"Compaign.sol\":2147:2173  require(!request.complete) */\n      tag_77\n      jumpi\n      0x00\n      dup1\n      revert\n    tag_77:\n        /* \"Compaign.sol\":2192:2199  request */\n      dup1\n        /* \"Compaign.sol\":2192:2209  request.recipient */\n      0x01\n      add\n      0x00\n      swap1\n      sload\n      swap1\n      0x0100\n      exp\n      swap1\n      div\n      0xffffffffffffffffffffffffffffffffffffffff\n      and\n        /* \"Compaign.sol\":2184:2219  payable(request.recipient).transfer */\n      0xffffffffffffffffffffffffffffffffffffffff\n      and\n        /* \"Compaign.sol\":2184:2234  payable(request.recipient).transfer(request.value) */\n      0x08fc\n        /* \"Compaign.sol\":2220:2227  request */\n      dup3\n        /* \"Compaign.sol\":2220:2233  request.value */\n      0x02\n      add\n      sload\n        /* \"Compaign.sol\":2184:2234  payable(request.recipient).transfer(request.value) */\n      swap1\n      dup2\n      iszero\n      mul\n      swap1\n      mload(0x40)\n      0x00\n      mload(0x40)\n      dup1\n      dup4\n      sub\n      dup2\n      dup6\n      dup9\n      dup9\n      call\n      swap4\n      pop\n      pop\n      pop\n      pop\n      iszero\n      dup1\n      iszero\n      tag_79\n      jumpi\n      returndatasize\n      0x00\n      dup1\n      returndatacopy\n      revert(0x00, returndatasize)\n    tag_79:\n      pop\n        /* \"Compaign.sol\":2263:2267  true */\n      0x01\n        /* \"Compaign.sol\":2244:2251  request */\n      dup2\n        /* \"Compaign.sol\":2244:2260  request.complete */\n      0x03\n      add\n      0x00\n        /* \"Compaign.sol\":2244:2267  request.complete = true */\n      0x0100\n      exp\n      dup2\n      sload\n      dup2\n      0xff\n      mul\n      not\n      and\n      swap1\n      dup4\n      iszero\n      iszero\n      mul\n      or\n      swap1\n      sstore\n      pop\n        /* \"Compaign.sol\":2024:2274  {... */\n      pop\n        /* \"Compaign.sol\":1969:2274  function finalizeRequest(uint index) public restricted {... */\n      pop\n      jump\t// out\n        /* \"Compaign.sol\":826:867  mapping(address => bool) public approvers */\n    tag_24:\n      mstore(0x20, 0x04)\n      dup1\n      0x00\n      mstore\n      keccak256(0x00, 0x40)\n      0x00\n      swap2\n      pop\n      sload\n      swap1\n      0x0100\n      exp\n      swap1\n      div\n      0xff\n      and\n      dup2\n      jump\t// out\n        /* \"Compaign.sol\":2533:2623  function getRequestsCount() public view returns (uint) {... */\n    tag_29:\n        /* \"Compaign.sol\":2582:2586  uint */\n      0x00\n        /* \"Compaign.sol\":2605:2616  numRequests */\n      dup1\n      sload\n        /* \"Compaign.sol\":2598:2616  return numRequests */\n      swap1\n      pop\n        /* \"Compaign.sol\":2533:2623  function getRequestsCount() public view returns (uint) {... */\n      swap1\n      jump\t// out\n        /* \"Compaign.sol\":2280:2527  function getSummary() public view returns(uint, uint, uint, uint, address) {... */\n    tag_34:\n        /* \"Compaign.sol\":2322:2326  uint */\n      0x00\n        /* \"Compaign.sol\":2328:2332  uint */\n      dup1\n        /* \"Compaign.sol\":2334:2338  uint */\n      0x00\n        /* \"Compaign.sol\":2340:2344  uint */\n      dup1\n        /* \"Compaign.sol\":2346:2353  address */\n      0x00\n        /* \"Compaign.sol\":2386:2401  minContribution */\n      sload(0x02)\n        /* \"Compaign.sol\":2415:2436  address(this).balance */\n      selfbalance\n        /* \"Compaign.sol\":2450:2461  numRequests */\n      sload(0x00)\n        /* \"Compaign.sol\":2475:2489  approversCount */\n      sload(0x05)\n        /* \"Compaign.sol\":2503:2510  manager */\n      0x03\n      0x00\n      swap1\n      sload\n      swap1\n      0x0100\n      exp\n      swap1\n      div\n      0xffffffffffffffffffffffffffffffffffffffff\n      and\n        /* \"Compaign.sol\":2365:2520  return (... */\n      swap5\n      pop\n      swap5\n      pop\n      swap5\n      pop\n      swap5\n      pop\n      swap5\n      pop\n        /* \"Compaign.sol\":2280:2527  function getSummary() public view returns(uint, uint, uint, uint, address) {... */\n      swap1\n      swap2\n      swap3\n      swap4\n      swap5\n      jump\t// out\n        /* \"Compaign.sol\":790:820  address payable public manager */\n    tag_39:\n      0x03\n      0x00\n      swap1\n      sload\n      swap1\n      0x0100\n      exp\n      swap1\n      div\n      0xffffffffffffffffffffffffffffffffffffffff\n      and\n      dup2\n      jump\t// out\n        /* \"Compaign.sol\":706:746  mapping(uint => Request) public requests */\n    tag_45:\n      mstore(0x20, 0x01)\n      dup1\n      0x00\n      mstore\n      keccak256(0x00, 0x40)\n      0x00\n      swap2\n      pop\n      swap1\n      pop\n      dup1\n      0x00\n      add\n      dup1\n      sload\n      tag_82\n      swap1\n      tag_83\n      jump\t// in\n    tag_82:\n      dup1\n      0x1f\n      add\n      0x20\n      dup1\n      swap2\n      div\n      mul\n      0x20\n      add\n      mload(0x40)\n      swap1\n      dup2\n      add\n      0x40\n      mstore\n      dup1\n      swap3\n      swap2\n      swap1\n      dup2\n      dup2\n      mstore\n      0x20\n      add\n      dup3\n      dup1\n      sload\n      tag_84\n      swap1\n      tag_83\n      jump\t// in\n    tag_84:\n      dup1\n      iszero\n      tag_85\n      jumpi\n      dup1\n      0x1f\n      lt\n      tag_86\n      jumpi\n      0x0100\n      dup1\n      dup4\n      sload\n      div\n      mul\n      dup4\n      mstore\n      swap2\n      0x20\n      add\n      swap2\n      jump(tag_85)\n    tag_86:\n      dup3\n      add\n      swap2\n      swap1\n      0x00\n      mstore\n      keccak256(0x00, 0x20)\n      swap1\n    tag_87:\n      dup2\n      sload\n      dup2\n      mstore\n      swap1\n      0x01\n      add\n      swap1\n      0x20\n      add\n      dup1\n      dup4\n      gt\n      tag_87\n      jumpi\n      dup3\n      swap1\n      sub\n      0x1f\n      and\n      dup3\n      add\n      swap2\n    tag_85:\n      pop\n      pop\n      pop\n      pop\n      pop\n      swap1\n      dup1\n      0x01\n      add\n      0x00\n      swap1\n      sload\n      swap1\n      0x0100\n      exp\n      swap1\n      div\n      0xffffffffffffffffffffffffffffffffffffffff\n      and\n      swap1\n      dup1\n      0x02\n      add\n      sload\n      swap1\n      dup1\n      0x03\n      add\n      0x00\n      swap1\n      sload\n      swap1\n      0x0100\n      exp\n      swap1\n      div\n      0xff\n      and\n      swap1\n      dup1\n      0x04\n      add\n      sload\n      swap1\n      pop\n      dup6\n      jump\t// out\n        /* \"Compaign.sol\":873:899  uint public approversCount */\n    tag_50:\n      sload(0x05)\n      dup2\n      jump\t// out\n        /* \"Compaign.sol\":1299:1677  function createRequest(string memory _description, uint _value, address _recipient) public restricted {... */\n    tag_56:\n        /* \"Compaign.sol\":960:967  manager */\n      0x03\n      0x00\n      swap1\n      sload\n      swap1\n      0x0100\n      exp\n      swap1\n      div\n      0xffffffffffffffffffffffffffffffffffffffff\n      and\n        /* \"Compaign.sol\":946:967  msg.sender == manager */\n      0xffffffffffffffffffffffffffffffffffffffff\n      and\n        /* \"Compaign.sol\":946:956  msg.sender */\n      caller\n        /* \"Compaign.sol\":946:967  msg.sender == manager */\n      0xffffffffffffffffffffffffffffffffffffffff\n      and\n      eq\n        /* \"Compaign.sol\":938:968  require(msg.sender == manager) */\n      tag_89\n      jumpi\n      0x00\n      dup1\n      revert\n    tag_89:\n        /* \"Compaign.sol\":1411:1437  Request storage newRequest */\n      0x00\n        /* \"Compaign.sol\":1440:1448  requests */\n      0x01\n        /* \"Compaign.sol\":1440:1463  requests[numRequests++] */\n      0x00\n        /* \"Compaign.sol\":1449:1460  numRequests */\n      dup1\n      0x00\n        /* \"Compaign.sol\":1449:1462  numRequests++ */\n      dup2\n      sload\n      dup1\n      swap3\n      swap2\n      swap1\n      tag_91\n      swap1\n      tag_92\n      jump\t// in\n    tag_91:\n      swap2\n      swap1\n      pop\n      sstore\n        /* \"Compaign.sol\":1440:1463  requests[numRequests++] */\n      dup2\n      mstore\n      0x20\n      add\n      swap1\n      dup2\n      mstore\n      0x20\n      add\n      0x00\n      keccak256\n        /* \"Compaign.sol\":1411:1463  Request storage newRequest = requests[numRequests++] */\n      swap1\n      pop\n        /* \"Compaign.sol\":1498:1510  _description */\n      dup4\n        /* \"Compaign.sol\":1473:1483  newRequest */\n      dup2\n        /* \"Compaign.sol\":1473:1495  newRequest.description */\n      0x00\n      add\n        /* \"Compaign.sol\":1473:1510  newRequest.description = _description */\n      swap1\n      dup1\n      mload\n      swap1\n      0x20\n      add\n      swap1\n      tag_93\n      swap3\n      swap2\n      swap1\n      tag_94\n      jump\t// in\n    tag_93:\n      pop\n        /* \"Compaign.sol\":1539:1545  _value */\n      dup3\n        /* \"Compaign.sol\":1520:1530  newRequest */\n      dup2\n        /* \"Compaign.sol\":1520:1536  newRequest.value */\n      0x02\n      add\n        /* \"Compaign.sol\":1520:1545  newRequest.value = _value */\n      dup2\n      swap1\n      sstore\n      pop\n        /* \"Compaign.sol\":1578:1588  _recipient */\n      dup2\n        /* \"Compaign.sol\":1555:1565  newRequest */\n      dup2\n        /* \"Compaign.sol\":1555:1575  newRequest.recipient */\n      0x01\n      add\n      0x00\n        /* \"Compaign.sol\":1555:1588  newRequest.recipient = _recipient */\n      0x0100\n      exp\n      dup2\n      sload\n      dup2\n      0xffffffffffffffffffffffffffffffffffffffff\n      mul\n      not\n      and\n      swap1\n      dup4\n      0xffffffffffffffffffffffffffffffffffffffff\n      and\n      mul\n      or\n      swap1\n      sstore\n      pop\n        /* \"Compaign.sol\":1620:1625  false */\n      0x00\n        /* \"Compaign.sol\":1598:1608  newRequest */\n      dup2\n        /* \"Compaign.sol\":1598:1617  newRequest.complete */\n      0x03\n      add\n      0x00\n        /* \"Compaign.sol\":1598:1625  newRequest.complete = false */\n      0x0100\n      exp\n      dup2\n      sload\n      dup2\n      0xff\n      mul\n      not\n      and\n      swap1\n      dup4\n      iszero\n      iszero\n      mul\n      or\n      swap1\n      sstore\n      pop\n        /* \"Compaign.sol\":1662:1663  0 */\n      0x00\n        /* \"Compaign.sol\":1635:1645  newRequest */\n      dup2\n        /* \"Compaign.sol\":1635:1659  newRequest.approvalCount */\n      0x04\n      add\n        /* \"Compaign.sol\":1635:1663  newRequest.approvalCount = 0 */\n      dup2\n      swap1\n      sstore\n      pop\n        /* \"Compaign.sol\":1401:1677  {... */\n      pop\n        /* \"Compaign.sol\":1299:1677  function createRequest(string memory _description, uint _value, address _recipient) public restricted {... */\n      pop\n      pop\n      pop\n      jump\t// out\n        /* \"Compaign.sol\":677:700  uint public numRequests */\n    tag_59:\n      sload(0x00)\n      dup2\n      jump\t// out\n        /* \"Compaign.sol\":757:784  uint public minContribution */\n    tag_63:\n      sload(0x02)\n      dup2\n      jump\t// out\n        /* \"Compaign.sol\":1138:1293  function contribute() public payable {... */\n    tag_66:\n        /* \"Compaign.sol\":1206:1221  minContribution */\n      sload(0x02)\n        /* \"Compaign.sol\":1194:1203  msg.value */\n      callvalue\n        /* \"Compaign.sol\":1194:1221  msg.value > minContribution */\n      gt\n        /* \"Compaign.sol\":1185:1222  require (msg.value > minContribution) */\n      tag_96\n      jumpi\n      0x00\n      dup1\n      revert\n    tag_96:\n        /* \"Compaign.sol\":1256:1260  true */\n      0x01\n        /* \"Compaign.sol\":1232:1241  approvers */\n      0x04\n        /* \"Compaign.sol\":1232:1253  approvers[msg.sender] */\n      0x00\n        /* \"Compaign.sol\":1242:1252  msg.sender */\n      caller\n        /* \"Compaign.sol\":1232:1253  approvers[msg.sender] */\n      0xffffffffffffffffffffffffffffffffffffffff\n      and\n      0xffffffffffffffffffffffffffffffffffffffff\n      and\n      dup2\n      mstore\n      0x20\n      add\n      swap1\n      dup2\n      mstore\n      0x20\n      add\n      0x00\n      keccak256\n      0x00\n        /* \"Compaign.sol\":1232:1260  approvers[msg.sender] = true */\n      0x0100\n      exp\n      dup2\n      sload\n      dup2\n      0xff\n      mul\n      not\n      and\n      swap1\n      dup4\n      iszero\n      iszero\n      mul\n      or\n      swap1\n      sstore\n      pop\n        /* \"Compaign.sol\":1270:1284  approversCount */\n      0x05\n      0x00\n        /* \"Compaign.sol\":1270:1286  approversCount++ */\n      dup2\n      sload\n      dup1\n      swap3\n      swap2\n      swap1\n      tag_97\n      swap1\n      tag_92\n      jump\t// in\n    tag_97:\n      swap2\n      swap1\n      pop\n      sstore\n      pop\n        /* \"Compaign.sol\":1138:1293  function contribute() public payable {... */\n      jump\t// out\n        /* \"Compaign.sol\":1683:1963  function approveRequest(uint index) public {... */\n    tag_70:\n        /* \"Compaign.sol\":1745:1768  Request storage request */\n      0x00\n        /* \"Compaign.sol\":1771:1779  requests */\n      0x01\n        /* \"Compaign.sol\":1771:1786  requests[index] */\n      0x00\n        /* \"Compaign.sol\":1780:1785  index */\n      dup4\n        /* \"Compaign.sol\":1771:1786  requests[index] */\n      dup2\n      mstore\n      0x20\n      add\n      swap1\n      dup2\n      mstore\n      0x20\n      add\n      0x00\n      keccak256\n        /* \"Compaign.sol\":1745:1786  Request storage request = requests[index] */\n      swap1\n      pop\n        /* \"Compaign.sol\":1805:1814  approvers */\n      0x04\n        /* \"Compaign.sol\":1805:1826  approvers[msg.sender] */\n      0x00\n        /* \"Compaign.sol\":1815:1825  msg.sender */\n      caller\n        /* \"Compaign.sol\":1805:1826  approvers[msg.sender] */\n      0xffffffffffffffffffffffffffffffffffffffff\n      and\n      0xffffffffffffffffffffffffffffffffffffffff\n      and\n      dup2\n      mstore\n      0x20\n      add\n      swap1\n      dup2\n      mstore\n      0x20\n      add\n      0x00\n      keccak256\n      0x00\n      swap1\n      sload\n      swap1\n      0x0100\n      exp\n      swap1\n      div\n      0xff\n      and\n        /* \"Compaign.sol\":1797:1827  require(approvers[msg.sender]) */\n      tag_99\n      jumpi\n      0x00\n      dup1\n      revert\n    tag_99:\n        /* \"Compaign.sol\":1846:1853  request */\n      dup1\n        /* \"Compaign.sol\":1846:1863  request.approvals */\n      0x05\n      add\n        /* \"Compaign.sol\":1846:1875  request.approvals[msg.sender] */\n      0x00\n        /* \"Compaign.sol\":1864:1874  msg.sender */\n      caller\n        /* \"Compaign.sol\":1846:1875  request.approvals[msg.sender] */\n      0xffffffffffffffffffffffffffffffffffffffff\n      and\n      0xffffffffffffffffffffffffffffffffffffffff\n      and\n      dup2\n      mstore\n      0x20\n      add\n      swap1\n      dup2\n      mstore\n      0x20\n      add\n      0x00\n      keccak256\n      0x00\n      swap1\n      sload\n      swap1\n      0x0100\n      exp\n      swap1\n      div\n      0xff\n      and\n        /* \"Compaign.sol\":1845:1875  !request.approvals[msg.sender] */\n      iszero\n        /* \"Compaign.sol\":1837:1876  require(!request.approvals[msg.sender]) */\n      tag_100\n      jumpi\n      0x00\n      dup1\n      revert\n    tag_100:\n        /* \"Compaign.sol\":1919:1923  true */\n      0x01\n        /* \"Compaign.sol\":1887:1894  request */\n      dup2\n        /* \"Compaign.sol\":1887:1904  request.approvals */\n      0x05\n      add\n        /* \"Compaign.sol\":1887:1916  request.approvals[msg.sender] */\n      0x00\n        /* \"Compaign.sol\":1905:1915  msg.sender */\n      caller\n        /* \"Compaign.sol\":1887:1916  request.approvals[msg.sender] */\n      0xffffffffffffffffffffffffffffffffffffffff\n      and\n      0xffffffffffffffffffffffffffffffffffffffff\n      and\n      dup2\n      mstore\n      0x20\n      add\n      swap1\n      dup2\n      mstore\n      0x20\n      add\n      0x00\n      keccak256\n      0x00\n        /* \"Compaign.sol\":1887:1923  request.approvals[msg.sender] = true */\n      0x0100\n      exp\n      dup2\n      sload\n      dup2\n      0xff\n      mul\n      not\n      and\n      swap1\n      dup4\n      iszero\n      iszero\n      mul\n      or\n      swap1\n      sstore\n      pop\n        /* \"Compaign.sol\":1933:1940  request */\n      dup1\n        /* \"Compaign.sol\":1933:1954  request.approvalCount */\n      0x04\n      add\n      0x00\n        /* \"Compaign.sol\":1933:1956  request.approvalCount++ */\n      dup2\n      sload\n      dup1\n      swap3\n      swap2\n      swap1\n      tag_101\n      swap1\n      tag_92\n      jump\t// in\n    tag_101:\n      swap2\n      swap1\n      pop\n      sstore\n      pop\n        /* \"Compaign.sol\":1726:1963  {... */\n      pop\n        /* \"Compaign.sol\":1683:1963  function approveRequest(uint index) public {... */\n      pop\n      jump\t// out\n    tag_94:\n      dup3\n      dup1\n      sload\n      tag_102\n      swap1\n      tag_83\n      jump\t// in\n    tag_102:\n      swap1\n      0x00\n      mstore\n      keccak256(0x00, 0x20)\n      swap1\n      0x1f\n      add\n      0x20\n      swap1\n      div\n      dup2\n      add\n      swap3\n      dup3\n      tag_104\n      jumpi\n      0x00\n      dup6\n      sstore\n      jump(tag_103)\n    tag_104:\n      dup3\n      0x1f\n      lt\n      tag_105\n      jumpi\n      dup1\n      mload\n      not(0xff)\n      and\n      dup4\n      dup1\n      add\n      or\n      dup6\n      sstore\n      jump(tag_103)\n    tag_105:\n      dup3\n      dup1\n      add\n      0x01\n      add\n      dup6\n      sstore\n      dup3\n      iszero\n      tag_103\n      jumpi\n      swap2\n      dup3\n      add\n    tag_106:\n      dup3\n      dup2\n      gt\n      iszero\n      tag_107\n      jumpi\n      dup3\n      mload\n      dup3\n      sstore\n      swap2\n      0x20\n      add\n      swap2\n      swap1\n      0x01\n      add\n      swap1\n      jump(tag_106)\n    tag_107:\n    tag_103:\n      pop\n      swap1\n      pop\n      tag_108\n      swap2\n      swap1\n      tag_109\n      jump\t// in\n    tag_108:\n      pop\n      swap1\n      jump\t// out\n    tag_109:\n    tag_110:\n      dup1\n      dup3\n      gt\n      iszero\n      tag_111\n      jumpi\n      0x00\n      dup2\n      0x00\n      swap1\n      sstore\n      pop\n      0x01\n      add\n      jump(tag_110)\n    tag_111:\n      pop\n      swap1\n      jump\t// out\n        /* \"#utility.yul\":7:82   */\n    tag_112:\n        /* \"#utility.yul\":40:46   */\n      0x00\n        /* \"#utility.yul\":73:75   */\n      0x40\n        /* \"#utility.yul\":67:76   */\n      mload\n        /* \"#utility.yul\":57:76   */\n      swap1\n      pop\n        /* \"#utility.yul\":7:82   */\n      swap1\n      jump\t// out\n        /* \"#utility.yul\":88:205   */\n    tag_113:\n        /* \"#utility.yul\":197:198   */\n      0x00\n        /* \"#utility.yul\":194:195   */\n      dup1\n        /* \"#utility.yul\":187:199   */\n      revert\n        /* \"#utility.yul\":211:328   */\n    tag_114:\n        /* \"#utility.yul\":320:321   */\n      0x00\n        /* \"#utility.yul\":317:318   */\n      dup1\n        /* \"#utility.yul\":310:322   */\n      revert\n        /* \"#utility.yul\":334:411   */\n    tag_115:\n        /* \"#utility.yul\":371:378   */\n      0x00\n        /* \"#utility.yul\":400:405   */\n      dup2\n        /* \"#utility.yul\":389:405   */\n      swap1\n      pop\n        /* \"#utility.yul\":334:411   */\n      swap2\n      swap1\n      pop\n      jump\t// out\n        /* \"#utility.yul\":417:539   */\n    tag_116:\n        /* \"#utility.yul\":490:514   */\n      tag_151\n        /* \"#utility.yul\":508:513   */\n      dup2\n        /* \"#utility.yul\":490:514   */\n      tag_115\n      jump\t// in\n    tag_151:\n        /* \"#utility.yul\":483:488   */\n      dup2\n        /* \"#utility.yul\":480:515   */\n      eq\n        /* \"#utility.yul\":470:533   */\n      tag_152\n      jumpi\n        /* \"#utility.yul\":529:530   */\n      0x00\n        /* \"#utility.yul\":526:527   */\n      dup1\n        /* \"#utility.yul\":519:531   */\n      revert\n        /* \"#utility.yul\":470:533   */\n    tag_152:\n        /* \"#utility.yul\":417:539   */\n      pop\n      jump\t// out\n        /* \"#utility.yul\":545:684   */\n    tag_117:\n        /* \"#utility.yul\":591:596   */\n      0x00\n        /* \"#utility.yul\":629:635   */\n      dup2\n        /* \"#utility.yul\":616:636   */\n      calldataload\n        /* \"#utility.yul\":607:636   */\n      swap1\n      pop\n        /* \"#utility.yul\":645:678   */\n      tag_154\n        /* \"#utility.yul\":672:677   */\n      dup2\n        /* \"#utility.yul\":645:678   */\n      tag_116\n      jump\t// in\n    tag_154:\n        /* \"#utility.yul\":545:684   */\n      swap3\n      swap2\n      pop\n      pop\n      jump\t// out\n        /* \"#utility.yul\":690:1019   */\n    tag_18:\n        /* \"#utility.yul\":749:755   */\n      0x00\n        /* \"#utility.yul\":798:800   */\n      0x20\n        /* \"#utility.yul\":786:795   */\n      dup3\n        /* \"#utility.yul\":777:784   */\n      dup5\n        /* \"#utility.yul\":773:796   */\n      sub\n        /* \"#utility.yul\":769:801   */\n      slt\n        /* \"#utility.yul\":766:885   */\n      iszero\n      tag_156\n      jumpi\n        /* \"#utility.yul\":804:883   */\n      tag_157\n      tag_113\n      jump\t// in\n    tag_157:\n        /* \"#utility.yul\":766:885   */\n    tag_156:\n        /* \"#utility.yul\":924:925   */\n      0x00\n        /* \"#utility.yul\":949:1002   */\n      tag_158\n        /* \"#utility.yul\":994:1001   */\n      dup5\n        /* \"#utility.yul\":985:991   */\n      dup3\n        /* \"#utility.yul\":974:983   */\n      dup6\n        /* \"#utility.yul\":970:992   */\n      add\n        /* \"#utility.yul\":949:1002   */\n      tag_117\n      jump\t// in\n    tag_158:\n        /* \"#utility.yul\":939:1002   */\n      swap2\n      pop\n        /* \"#utility.yul\":895:1012   */\n      pop\n        /* \"#utility.yul\":690:1019   */\n      swap3\n      swap2\n      pop\n      pop\n      jump\t// out\n        /* \"#utility.yul\":1025:1151   */\n    tag_118:\n        /* \"#utility.yul\":1062:1069   */\n      0x00\n        /* \"#utility.yul\":1102:1144   */\n      0xffffffffffffffffffffffffffffffffffffffff\n        /* \"#utility.yul\":1095:1100   */\n      dup3\n        /* \"#utility.yul\":1091:1145   */\n      and\n        /* \"#utility.yul\":1080:1145   */\n      swap1\n      pop\n        /* \"#utility.yul\":1025:1151   */\n      swap2\n      swap1\n      pop\n      jump\t// out\n        /* \"#utility.yul\":1157:1253   */\n    tag_119:\n        /* \"#utility.yul\":1194:1201   */\n      0x00\n        /* \"#utility.yul\":1223:1247   */\n      tag_161\n        /* \"#utility.yul\":1241:1246   */\n      dup3\n        /* \"#utility.yul\":1223:1247   */\n      tag_118\n      jump\t// in\n    tag_161:\n        /* \"#utility.yul\":1212:1247   */\n      swap1\n      pop\n        /* \"#utility.yul\":1157:1253   */\n      swap2\n      swap1\n      pop\n      jump\t// out\n        /* \"#utility.yul\":1259:1381   */\n    tag_120:\n        /* \"#utility.yul\":1332:1356   */\n      tag_163\n        /* \"#utility.yul\":1350:1355   */\n      dup2\n        /* \"#utility.yul\":1332:1356   */\n      tag_119\n      jump\t// in\n    tag_163:\n        /* \"#utility.yul\":1325:1330   */\n      dup2\n        /* \"#utility.yul\":1322:1357   */\n      eq\n        /* \"#utility.yul\":1312:1375   */\n      tag_164\n      jumpi\n        /* \"#utility.yul\":1371:1372   */\n      0x00\n        /* \"#utility.yul\":1368:1369   */\n      dup1\n        /* \"#utility.yul\":1361:1373   */\n      revert\n        /* \"#utility.yul\":1312:1375   */\n    tag_164:\n        /* \"#utility.yul\":1259:1381   */\n      pop\n      jump\t// out\n        /* \"#utility.yul\":1387:1526   */\n    tag_121:\n        /* \"#utility.yul\":1433:1438   */\n      0x00\n        /* \"#utility.yul\":1471:1477   */\n      dup2\n        /* \"#utility.yul\":1458:1478   */\n      calldataload\n        /* \"#utility.yul\":1449:1478   */\n      swap1\n      pop\n        /* \"#utility.yul\":1487:1520   */\n      tag_166\n        /* \"#utility.yul\":1514:1519   */\n      dup2\n        /* \"#utility.yul\":1487:1520   */\n      tag_120\n      jump\t// in\n    tag_166:\n        /* \"#utility.yul\":1387:1526   */\n      swap3\n      swap2\n      pop\n      pop\n      jump\t// out\n        /* \"#utility.yul\":1532:1861   */\n    tag_23:\n        /* \"#utility.yul\":1591:1597   */\n      0x00\n        /* \"#utility.yul\":1640:1642   */\n      0x20\n        /* \"#utility.yul\":1628:1637   */\n      dup3\n        /* \"#utility.yul\":1619:1626   */\n      dup5\n        /* \"#utility.yul\":1615:1638   */\n      sub\n        /* \"#utility.yul\":1611:1643   */\n      slt\n        /* \"#utility.yul\":1608:1727   */\n      iszero\n      tag_168\n      jumpi\n        /* \"#utility.yul\":1646:1725   */\n      tag_169\n      tag_113\n      jump\t// in\n    tag_169:\n        /* \"#utility.yul\":1608:1727   */\n    tag_168:\n        /* \"#utility.yul\":1766:1767   */\n      0x00\n        /* \"#utility.yul\":1791:1844   */\n      tag_170\n        /* \"#utility.yul\":1836:1843   */\n      dup5\n        /* \"#utility.yul\":1827:1833   */\n      dup3\n        /* \"#utility.yul\":1816:1825   */\n      dup6\n        /* \"#utility.yul\":1812:1834   */\n      add\n        /* \"#utility.yul\":1791:1844   */\n      tag_121\n      jump\t// in\n    tag_170:\n        /* \"#utility.yul\":1781:1844   */\n      swap2\n      pop\n        /* \"#utility.yul\":1737:1854   */\n      pop\n        /* \"#utility.yul\":1532:1861   */\n      swap3\n      swap2\n      pop\n      pop\n      jump\t// out\n        /* \"#utility.yul\":1867:1957   */\n    tag_122:\n        /* \"#utility.yul\":1901:1908   */\n      0x00\n        /* \"#utility.yul\":1944:1949   */\n      dup2\n        /* \"#utility.yul\":1937:1950   */\n      iszero\n        /* \"#utility.yul\":1930:1951   */\n      iszero\n        /* \"#utility.yul\":1919:1951   */\n      swap1\n      pop\n        /* \"#utility.yul\":1867:1957   */\n      swap2\n      swap1\n      pop\n      jump\t// out\n        /* \"#utility.yul\":1963:2072   */\n    tag_123:\n        /* \"#utility.yul\":2044:2065   */\n      tag_173\n        /* \"#utility.yul\":2059:2064   */\n      dup2\n        /* \"#utility.yul\":2044:2065   */\n      tag_122\n      jump\t// in\n    tag_173:\n        /* \"#utility.yul\":2039:2042   */\n      dup3\n        /* \"#utility.yul\":2032:2066   */\n      mstore\n        /* \"#utility.yul\":1963:2072   */\n      pop\n      pop\n      jump\t// out\n        /* \"#utility.yul\":2078:2288   */\n    tag_26:\n        /* \"#utility.yul\":2165:2169   */\n      0x00\n        /* \"#utility.yul\":2203:2205   */\n      0x20\n        /* \"#utility.yul\":2192:2201   */\n      dup3\n        /* \"#utility.yul\":2188:2206   */\n      add\n        /* \"#utility.yul\":2180:2206   */\n      swap1\n      pop\n        /* \"#utility.yul\":2216:2281   */\n      tag_175\n        /* \"#utility.yul\":2278:2279   */\n      0x00\n        /* \"#utility.yul\":2267:2276   */\n      dup4\n        /* \"#utility.yul\":2263:2280   */\n      add\n        /* \"#utility.yul\":2254:2260   */\n      dup5\n        /* \"#utility.yul\":2216:2281   */\n      tag_123\n      jump\t// in\n    tag_175:\n        /* \"#utility.yul\":2078:2288   */\n      swap3\n      swap2\n      pop\n      pop\n      jump\t// out\n        /* \"#utility.yul\":2294:2412   */\n    tag_124:\n        /* \"#utility.yul\":2381:2405   */\n      tag_177\n        /* \"#utility.yul\":2399:2404   */\n      dup2\n        /* \"#utility.yul\":2381:2405   */\n      tag_115\n      jump\t// in\n    tag_177:\n        /* \"#utility.yul\":2376:2379   */\n      dup3\n        /* \"#utility.yul\":2369:2406   */\n      mstore\n        /* \"#utility.yul\":2294:2412   */\n      pop\n      pop\n      jump\t// out\n        /* \"#utility.yul\":2418:2640   */\n    tag_31:\n        /* \"#utility.yul\":2511:2515   */\n      0x00\n        /* \"#utility.yul\":2549:2551   */\n      0x20\n        /* \"#utility.yul\":2538:2547   */\n      dup3\n        /* \"#utility.yul\":2534:2552   */\n      add\n        /* \"#utility.yul\":2526:2552   */\n      swap1\n      pop\n        /* \"#utility.yul\":2562:2633   */\n      tag_179\n        /* \"#utility.yul\":2630:2631   */\n      0x00\n        /* \"#utility.yul\":2619:2628   */\n      dup4\n        /* \"#utility.yul\":2615:2632   */\n      add\n        /* \"#utility.yul\":2606:2612   */\n      dup5\n        /* \"#utility.yul\":2562:2633   */\n      tag_124\n      jump\t// in\n    tag_179:\n        /* \"#utility.yul\":2418:2640   */\n      swap3\n      swap2\n      pop\n      pop\n      jump\t// out\n        /* \"#utility.yul\":2646:2764   */\n    tag_125:\n        /* \"#utility.yul\":2733:2757   */\n      tag_181\n        /* \"#utility.yul\":2751:2756   */\n      dup2\n        /* \"#utility.yul\":2733:2757   */\n      tag_119\n      jump\t// in\n    tag_181:\n        /* \"#utility.yul\":2728:2731   */\n      dup3\n        /* \"#utility.yul\":2721:2758   */\n      mstore\n        /* \"#utility.yul\":2646:2764   */\n      pop\n      pop\n      jump\t// out\n        /* \"#utility.yul\":2770:3434   */\n    tag_36:\n        /* \"#utility.yul\":2975:2979   */\n      0x00\n        /* \"#utility.yul\":3013:3016   */\n      0xa0\n        /* \"#utility.yul\":3002:3011   */\n      dup3\n        /* \"#utility.yul\":2998:3017   */\n      add\n        /* \"#utility.yul\":2990:3017   */\n      swap1\n      pop\n        /* \"#utility.yul\":3027:3098   */\n      tag_183\n        /* \"#utility.yul\":3095:3096   */\n      0x00\n        /* \"#utility.yul\":3084:3093   */\n      dup4\n        /* \"#utility.yul\":3080:3097   */\n      add\n        /* \"#utility.yul\":3071:3077   */\n      dup9\n        /* \"#utility.yul\":3027:3098   */\n      tag_124\n      jump\t// in\n    tag_183:\n        /* \"#utility.yul\":3108:3180   */\n      tag_184\n        /* \"#utility.yul\":3176:3178   */\n      0x20\n        /* \"#utility.yul\":3165:3174   */\n      dup4\n        /* \"#utility.yul\":3161:3179   */\n      add\n        /* \"#utility.yul\":3152:3158   */\n      dup8\n        /* \"#utility.yul\":3108:3180   */\n      tag_124\n      jump\t// in\n    tag_184:\n        /* \"#utility.yul\":3190:3262   */\n      tag_185\n        /* \"#utility.yul\":3258:3260   */\n      0x40\n        /* \"#utility.yul\":3247:3256   */\n      dup4\n        /* \"#utility.yul\":3243:3261   */\n      add\n        /* \"#utility.yul\":3234:3240   */\n      dup7\n        /* \"#utility.yul\":3190:3262   */\n      tag_124\n      jump\t// in\n    tag_185:\n        /* \"#utility.yul\":3272:3344   */\n      tag_186\n        /* \"#utility.yul\":3340:3342   */\n      0x60\n        /* \"#utility.yul\":3329:3338   */\n      dup4\n        /* \"#utility.yul\":3325:3343   */\n      add\n        /* \"#utility.yul\":3316:3322   */\n      dup6\n        /* \"#utility.yul\":3272:3344   */\n      tag_124\n      jump\t// in\n    tag_186:\n        /* \"#utility.yul\":3354:3427   */\n      tag_187\n        /* \"#utility.yul\":3422:3425   */\n      0x80\n        /* \"#utility.yul\":3411:3420   */\n      dup4\n        /* \"#utility.yul\":3407:3426   */\n      add\n        /* \"#utility.yul\":3398:3404   */\n      dup5\n        /* \"#utility.yul\":3354:3427   */\n      tag_125\n      jump\t// in\n    tag_187:\n        /* \"#utility.yul\":2770:3434   */\n      swap7\n      swap6\n      pop\n      pop\n      pop\n      pop\n      pop\n      pop\n      jump\t// out\n        /* \"#utility.yul\":3440:3544   */\n    tag_126:\n        /* \"#utility.yul\":3485:3492   */\n      0x00\n        /* \"#utility.yul\":3514:3538   */\n      tag_189\n        /* \"#utility.yul\":3532:3537   */\n      dup3\n        /* \"#utility.yul\":3514:3538   */\n      tag_118\n      jump\t// in\n    tag_189:\n        /* \"#utility.yul\":3503:3538   */\n      swap1\n      pop\n        /* \"#utility.yul\":3440:3544   */\n      swap2\n      swap1\n      pop\n      jump\t// out\n        /* \"#utility.yul\":3550:3692   */\n    tag_127:\n        /* \"#utility.yul\":3653:3685   */\n      tag_191\n        /* \"#utility.yul\":3679:3684   */\n      dup2\n        /* \"#utility.yul\":3653:3685   */\n      tag_126\n      jump\t// in\n    tag_191:\n        /* \"#utility.yul\":3648:3651   */\n      dup3\n        /* \"#utility.yul\":3641:3686   */\n      mstore\n        /* \"#utility.yul\":3550:3692   */\n      pop\n      pop\n      jump\t// out\n        /* \"#utility.yul\":3698:3952   */\n    tag_41:\n        /* \"#utility.yul\":3807:3811   */\n      0x00\n        /* \"#utility.yul\":3845:3847   */\n      0x20\n        /* \"#utility.yul\":3834:3843   */\n      dup3\n        /* \"#utility.yul\":3830:3848   */\n      add\n        /* \"#utility.yul\":3822:3848   */\n      swap1\n      pop\n        /* \"#utility.yul\":3858:3945   */\n      tag_193\n        /* \"#utility.yul\":3942:3943   */\n      0x00\n        /* \"#utility.yul\":3931:3940   */\n      dup4\n        /* \"#utility.yul\":3927:3944   */\n      add\n        /* \"#utility.yul\":3918:3924   */\n      dup5\n        /* \"#utility.yul\":3858:3945   */\n      tag_127\n      jump\t// in\n    tag_193:\n        /* \"#utility.yul\":3698:3952   */\n      swap3\n      swap2\n      pop\n      pop\n      jump\t// out\n        /* \"#utility.yul\":3958:4057   */\n    tag_128:\n        /* \"#utility.yul\":4010:4016   */\n      0x00\n        /* \"#utility.yul\":4044:4049   */\n      dup2\n        /* \"#utility.yul\":4038:4050   */\n      mload\n        /* \"#utility.yul\":4028:4050   */\n      swap1\n      pop\n        /* \"#utility.yul\":3958:4057   */\n      swap2\n      swap1\n      pop\n      jump\t// out\n        /* \"#utility.yul\":4063:4232   */\n    tag_129:\n        /* \"#utility.yul\":4147:4158   */\n      0x00\n        /* \"#utility.yul\":4181:4187   */\n      dup3\n        /* \"#utility.yul\":4176:4179   */\n      dup3\n        /* \"#utility.yul\":4169:4188   */\n      mstore\n        /* \"#utility.yul\":4221:4225   */\n      0x20\n        /* \"#utility.yul\":4216:4219   */\n      dup3\n        /* \"#utility.yul\":4212:4226   */\n      add\n        /* \"#utility.yul\":4197:4226   */\n      swap1\n      pop\n        /* \"#utility.yul\":4063:4232   */\n      swap3\n      swap2\n      pop\n      pop\n      jump\t// out\n        /* \"#utility.yul\":4238:4545   */\n    tag_130:\n        /* \"#utility.yul\":4306:4307   */\n      0x00\n        /* \"#utility.yul\":4316:4429   */\n    tag_197:\n        /* \"#utility.yul\":4330:4336   */\n      dup4\n        /* \"#utility.yul\":4327:4328   */\n      dup2\n        /* \"#utility.yul\":4324:4337   */\n      lt\n        /* \"#utility.yul\":4316:4429   */\n      iszero\n      tag_199\n      jumpi\n        /* \"#utility.yul\":4415:4416   */\n      dup1\n        /* \"#utility.yul\":4410:4413   */\n      dup3\n        /* \"#utility.yul\":4406:4417   */\n      add\n        /* \"#utility.yul\":4400:4418   */\n      mload\n        /* \"#utility.yul\":4396:4397   */\n      dup2\n        /* \"#utility.yul\":4391:4394   */\n      dup5\n        /* \"#utility.yul\":4387:4398   */\n      add\n        /* \"#utility.yul\":4380:4419   */\n      mstore\n        /* \"#utility.yul\":4352:4354   */\n      0x20\n        /* \"#utility.yul\":4349:4350   */\n      dup2\n        /* \"#utility.yul\":4345:4355   */\n      add\n        /* \"#utility.yul\":4340:4355   */\n      swap1\n      pop\n        /* \"#utility.yul\":4316:4429   */\n      jump(tag_197)\n    tag_199:\n        /* \"#utility.yul\":4447:4453   */\n      dup4\n        /* \"#utility.yul\":4444:4445   */\n      dup2\n        /* \"#utility.yul\":4441:4454   */\n      gt\n        /* \"#utility.yul\":4438:4539   */\n      iszero\n      tag_200\n      jumpi\n        /* \"#utility.yul\":4527:4528   */\n      0x00\n        /* \"#utility.yul\":4518:4524   */\n      dup5\n        /* \"#utility.yul\":4513:4516   */\n      dup5\n        /* \"#utility.yul\":4509:4525   */\n      add\n        /* \"#utility.yul\":4502:4529   */\n      mstore\n        /* \"#utility.yul\":4438:4539   */\n    tag_200:\n        /* \"#utility.yul\":4287:4545   */\n      pop\n        /* \"#utility.yul\":4238:4545   */\n      pop\n      pop\n      pop\n      jump\t// out\n        /* \"#utility.yul\":4551:4653   */\n    tag_131:\n        /* \"#utility.yul\":4592:4598   */\n      0x00\n        /* \"#utility.yul\":4643:4645   */\n      0x1f\n        /* \"#utility.yul\":4639:4646   */\n      not\n        /* \"#utility.yul\":4634:4636   */\n      0x1f\n        /* \"#utility.yul\":4627:4632   */\n      dup4\n        /* \"#utility.yul\":4623:4637   */\n      add\n        /* \"#utility.yul\":4619:4647   */\n      and\n        /* \"#utility.yul\":4609:4647   */\n      swap1\n      pop\n        /* \"#utility.yul\":4551:4653   */\n      swap2\n      swap1\n      pop\n      jump\t// out\n        /* \"#utility.yul\":4659:5023   */\n    tag_132:\n        /* \"#utility.yul\":4747:4750   */\n      0x00\n        /* \"#utility.yul\":4775:4814   */\n      tag_203\n        /* \"#utility.yul\":4808:4813   */\n      dup3\n        /* \"#utility.yul\":4775:4814   */\n      tag_128\n      jump\t// in\n    tag_203:\n        /* \"#utility.yul\":4830:4901   */\n      tag_204\n        /* \"#utility.yul\":4894:4900   */\n      dup2\n        /* \"#utility.yul\":4889:4892   */\n      dup6\n        /* \"#utility.yul\":4830:4901   */\n      tag_129\n      jump\t// in\n    tag_204:\n        /* \"#utility.yul\":4823:4901   */\n      swap4\n      pop\n        /* \"#utility.yul\":4910:4962   */\n      tag_205\n        /* \"#utility.yul\":4955:4961   */\n      dup2\n        /* \"#utility.yul\":4950:4953   */\n      dup6\n        /* \"#utility.yul\":4943:4947   */\n      0x20\n        /* \"#utility.yul\":4936:4941   */\n      dup7\n        /* \"#utility.yul\":4932:4948   */\n      add\n        /* \"#utility.yul\":4910:4962   */\n      tag_130\n      jump\t// in\n    tag_205:\n        /* \"#utility.yul\":4987:5016   */\n      tag_206\n        /* \"#utility.yul\":5009:5015   */\n      dup2\n        /* \"#utility.yul\":4987:5016   */\n      tag_131\n      jump\t// in\n    tag_206:\n        /* \"#utility.yul\":4982:4985   */\n      dup5\n        /* \"#utility.yul\":4978:5017   */\n      add\n        /* \"#utility.yul\":4971:5017   */\n      swap2\n      pop\n        /* \"#utility.yul\":4751:5023   */\n      pop\n        /* \"#utility.yul\":4659:5023   */\n      swap3\n      swap2\n      pop\n      pop\n      jump\t// out\n        /* \"#utility.yul\":5029:5772   */\n    tag_47:\n        /* \"#utility.yul\":5248:5252   */\n      0x00\n        /* \"#utility.yul\":5286:5289   */\n      0xa0\n        /* \"#utility.yul\":5275:5284   */\n      dup3\n        /* \"#utility.yul\":5271:5290   */\n      add\n        /* \"#utility.yul\":5263:5290   */\n      swap1\n      pop\n        /* \"#utility.yul\":5336:5345   */\n      dup2\n        /* \"#utility.yul\":5330:5334   */\n      dup2\n        /* \"#utility.yul\":5326:5346   */\n      sub\n        /* \"#utility.yul\":5322:5323   */\n      0x00\n        /* \"#utility.yul\":5311:5320   */\n      dup4\n        /* \"#utility.yul\":5307:5324   */\n      add\n        /* \"#utility.yul\":5300:5347   */\n      mstore\n        /* \"#utility.yul\":5364:5442   */\n      tag_208\n        /* \"#utility.yul\":5437:5441   */\n      dup2\n        /* \"#utility.yul\":5428:5434   */\n      dup9\n        /* \"#utility.yul\":5364:5442   */\n      tag_132\n      jump\t// in\n    tag_208:\n        /* \"#utility.yul\":5356:5442   */\n      swap1\n      pop\n        /* \"#utility.yul\":5452:5524   */\n      tag_209\n        /* \"#utility.yul\":5520:5522   */\n      0x20\n        /* \"#utility.yul\":5509:5518   */\n      dup4\n        /* \"#utility.yul\":5505:5523   */\n      add\n        /* \"#utility.yul\":5496:5502   */\n      dup8\n        /* \"#utility.yul\":5452:5524   */\n      tag_125\n      jump\t// in\n    tag_209:\n        /* \"#utility.yul\":5534:5606   */\n      tag_210\n        /* \"#utility.yul\":5602:5604   */\n      0x40\n        /* \"#utility.yul\":5591:5600   */\n      dup4\n        /* \"#utility.yul\":5587:5605   */\n      add\n        /* \"#utility.yul\":5578:5584   */\n      dup7\n        /* \"#utility.yul\":5534:5606   */\n      tag_124\n      jump\t// in\n    tag_210:\n        /* \"#utility.yul\":5616:5682   */\n      tag_211\n        /* \"#utility.yul\":5678:5680   */\n      0x60\n        /* \"#utility.yul\":5667:5676   */\n      dup4\n        /* \"#utility.yul\":5663:5681   */\n      add\n        /* \"#utility.yul\":5654:5660   */\n      dup6\n        /* \"#utility.yul\":5616:5682   */\n      tag_123\n      jump\t// in\n    tag_211:\n        /* \"#utility.yul\":5692:5765   */\n      tag_212\n        /* \"#utility.yul\":5760:5763   */\n      0x80\n        /* \"#utility.yul\":5749:5758   */\n      dup4\n        /* \"#utility.yul\":5745:5764   */\n      add\n        /* \"#utility.yul\":5736:5742   */\n      dup5\n        /* \"#utility.yul\":5692:5765   */\n      tag_124\n      jump\t// in\n    tag_212:\n        /* \"#utility.yul\":5029:5772   */\n      swap7\n      swap6\n      pop\n      pop\n      pop\n      pop\n      pop\n      pop\n      jump\t// out\n        /* \"#utility.yul\":5778:5895   */\n    tag_133:\n        /* \"#utility.yul\":5887:5888   */\n      0x00\n        /* \"#utility.yul\":5884:5885   */\n      dup1\n        /* \"#utility.yul\":5877:5889   */\n      revert\n        /* \"#utility.yul\":5901:6018   */\n    tag_134:\n        /* \"#utility.yul\":6010:6011   */\n      0x00\n        /* \"#utility.yul\":6007:6008   */\n      dup1\n        /* \"#utility.yul\":6000:6012   */\n      revert\n        /* \"#utility.yul\":6024:6204   */\n    tag_135:\n        /* \"#utility.yul\":6072:6149   */\n      0x4e487b7100000000000000000000000000000000000000000000000000000000\n        /* \"#utility.yul\":6069:6070   */\n      0x00\n        /* \"#utility.yul\":6062:6150   */\n      mstore\n        /* \"#utility.yul\":6169:6173   */\n      0x41\n        /* \"#utility.yul\":6166:6167   */\n      0x04\n        /* \"#utility.yul\":6159:6174   */\n      mstore\n        /* \"#utility.yul\":6193:6197   */\n      0x24\n        /* \"#utility.yul\":6190:6191   */\n      0x00\n        /* \"#utility.yul\":6183:6198   */\n      revert\n        /* \"#utility.yul\":6210:6491   */\n    tag_136:\n        /* \"#utility.yul\":6293:6320   */\n      tag_217\n        /* \"#utility.yul\":6315:6319   */\n      dup3\n        /* \"#utility.yul\":6293:6320   */\n      tag_131\n      jump\t// in\n    tag_217:\n        /* \"#utility.yul\":6285:6291   */\n      dup2\n        /* \"#utility.yul\":6281:6321   */\n      add\n        /* \"#utility.yul\":6423:6429   */\n      dup2\n        /* \"#utility.yul\":6411:6421   */\n      dup2\n        /* \"#utility.yul\":6408:6430   */\n      lt\n        /* \"#utility.yul\":6387:6405   */\n      0xffffffffffffffff\n        /* \"#utility.yul\":6375:6385   */\n      dup3\n        /* \"#utility.yul\":6372:6406   */\n      gt\n        /* \"#utility.yul\":6369:6431   */\n      or\n        /* \"#utility.yul\":6366:6454   */\n      iszero\n      tag_218\n      jumpi\n        /* \"#utility.yul\":6434:6452   */\n      tag_219\n      tag_135\n      jump\t// in\n    tag_219:\n        /* \"#utility.yul\":6366:6454   */\n    tag_218:\n        /* \"#utility.yul\":6474:6484   */\n      dup1\n        /* \"#utility.yul\":6470:6472   */\n      0x40\n        /* \"#utility.yul\":6463:6485   */\n      mstore\n        /* \"#utility.yul\":6253:6491   */\n      pop\n        /* \"#utility.yul\":6210:6491   */\n      pop\n      pop\n      jump\t// out\n        /* \"#utility.yul\":6497:6626   */\n    tag_137:\n        /* \"#utility.yul\":6531:6537   */\n      0x00\n        /* \"#utility.yul\":6558:6578   */\n      tag_221\n      tag_112\n      jump\t// in\n    tag_221:\n        /* \"#utility.yul\":6548:6578   */\n      swap1\n      pop\n        /* \"#utility.yul\":6587:6620   */\n      tag_222\n        /* \"#utility.yul\":6615:6619   */\n      dup3\n        /* \"#utility.yul\":6607:6613   */\n      dup3\n        /* \"#utility.yul\":6587:6620   */\n      tag_136\n      jump\t// in\n    tag_222:\n        /* \"#utility.yul\":6497:6626   */\n      swap2\n      swap1\n      pop\n      jump\t// out\n        /* \"#utility.yul\":6632:6940   */\n    tag_138:\n        /* \"#utility.yul\":6694:6698   */\n      0x00\n        /* \"#utility.yul\":6784:6802   */\n      0xffffffffffffffff\n        /* \"#utility.yul\":6776:6782   */\n      dup3\n        /* \"#utility.yul\":6773:6803   */\n      gt\n        /* \"#utility.yul\":6770:6826   */\n      iszero\n      tag_224\n      jumpi\n        /* \"#utility.yul\":6806:6824   */\n      tag_225\n      tag_135\n      jump\t// in\n    tag_225:\n        /* \"#utility.yul\":6770:6826   */\n    tag_224:\n        /* \"#utility.yul\":6844:6873   */\n      tag_226\n        /* \"#utility.yul\":6866:6872   */\n      dup3\n        /* \"#utility.yul\":6844:6873   */\n      tag_131\n      jump\t// in\n    tag_226:\n        /* \"#utility.yul\":6836:6873   */\n      swap1\n      pop\n        /* \"#utility.yul\":6928:6932   */\n      0x20\n        /* \"#utility.yul\":6922:6926   */\n      dup2\n        /* \"#utility.yul\":6918:6933   */\n      add\n        /* \"#utility.yul\":6910:6933   */\n      swap1\n      pop\n        /* \"#utility.yul\":6632:6940   */\n      swap2\n      swap1\n      pop\n      jump\t// out\n        /* \"#utility.yul\":6946:7100   */\n    tag_139:\n        /* \"#utility.yul\":7030:7036   */\n      dup3\n        /* \"#utility.yul\":7025:7028   */\n      dup2\n        /* \"#utility.yul\":7020:7023   */\n      dup4\n        /* \"#utility.yul\":7007:7037   */\n      calldatacopy\n        /* \"#utility.yul\":7092:7093   */\n      0x00\n        /* \"#utility.yul\":7083:7089   */\n      dup4\n        /* \"#utility.yul\":7078:7081   */\n      dup4\n        /* \"#utility.yul\":7074:7090   */\n      add\n        /* \"#utility.yul\":7067:7094   */\n      mstore\n        /* \"#utility.yul\":6946:7100   */\n      pop\n      pop\n      pop\n      jump\t// out\n        /* \"#utility.yul\":7106:7518   */\n    tag_140:\n        /* \"#utility.yul\":7184:7189   */\n      0x00\n        /* \"#utility.yul\":7209:7275   */\n      tag_229\n        /* \"#utility.yul\":7225:7274   */\n      tag_230\n        /* \"#utility.yul\":7267:7273   */\n      dup5\n        /* \"#utility.yul\":7225:7274   */\n      tag_138\n      jump\t// in\n    tag_230:\n        /* \"#utility.yul\":7209:7275   */\n      tag_137\n      jump\t// in\n    tag_229:\n        /* \"#utility.yul\":7200:7275   */\n      swap1\n      pop\n        /* \"#utility.yul\":7298:7304   */\n      dup3\n        /* \"#utility.yul\":7291:7296   */\n      dup2\n        /* \"#utility.yul\":7284:7305   */\n      mstore\n        /* \"#utility.yul\":7336:7340   */\n      0x20\n        /* \"#utility.yul\":7329:7334   */\n      dup2\n        /* \"#utility.yul\":7325:7341   */\n      add\n        /* \"#utility.yul\":7374:7377   */\n      dup5\n        /* \"#utility.yul\":7365:7371   */\n      dup5\n        /* \"#utility.yul\":7360:7363   */\n      dup5\n        /* \"#utility.yul\":7356:7372   */\n      add\n        /* \"#utility.yul\":7353:7378   */\n      gt\n        /* \"#utility.yul\":7350:7462   */\n      iszero\n      tag_231\n      jumpi\n        /* \"#utility.yul\":7381:7460   */\n      tag_232\n      tag_134\n      jump\t// in\n    tag_232:\n        /* \"#utility.yul\":7350:7462   */\n    tag_231:\n        /* \"#utility.yul\":7471:7512   */\n      tag_233\n        /* \"#utility.yul\":7505:7511   */\n      dup5\n        /* \"#utility.yul\":7500:7503   */\n      dup3\n        /* \"#utility.yul\":7495:7498   */\n      dup6\n        /* \"#utility.yul\":7471:7512   */\n      tag_139\n      jump\t// in\n    tag_233:\n        /* \"#utility.yul\":7190:7518   */\n      pop\n        /* \"#utility.yul\":7106:7518   */\n      swap4\n      swap3\n      pop\n      pop\n      pop\n      jump\t// out\n        /* \"#utility.yul\":7538:7878   */\n    tag_141:\n        /* \"#utility.yul\":7594:7599   */\n      0x00\n        /* \"#utility.yul\":7643:7646   */\n      dup3\n        /* \"#utility.yul\":7636:7640   */\n      0x1f\n        /* \"#utility.yul\":7628:7634   */\n      dup4\n        /* \"#utility.yul\":7624:7641   */\n      add\n        /* \"#utility.yul\":7620:7647   */\n      slt\n        /* \"#utility.yul\":7610:7732   */\n      tag_235\n      jumpi\n        /* \"#utility.yul\":7651:7730   */\n      tag_236\n      tag_133\n      jump\t// in\n    tag_236:\n        /* \"#utility.yul\":7610:7732   */\n    tag_235:\n        /* \"#utility.yul\":7768:7774   */\n      dup2\n        /* \"#utility.yul\":7755:7775   */\n      calldataload\n        /* \"#utility.yul\":7793:7872   */\n      tag_237\n        /* \"#utility.yul\":7868:7871   */\n      dup5\n        /* \"#utility.yul\":7860:7866   */\n      dup3\n        /* \"#utility.yul\":7853:7857   */\n      0x20\n        /* \"#utility.yul\":7845:7851   */\n      dup7\n        /* \"#utility.yul\":7841:7858   */\n      add\n        /* \"#utility.yul\":7793:7872   */\n      tag_140\n      jump\t// in\n    tag_237:\n        /* \"#utility.yul\":7784:7872   */\n      swap2\n      pop\n        /* \"#utility.yul\":7600:7878   */\n      pop\n        /* \"#utility.yul\":7538:7878   */\n      swap3\n      swap2\n      pop\n      pop\n      jump\t// out\n        /* \"#utility.yul\":7884:8683   */\n    tag_55:\n        /* \"#utility.yul\":7971:7977   */\n      0x00\n        /* \"#utility.yul\":7979:7985   */\n      dup1\n        /* \"#utility.yul\":7987:7993   */\n      0x00\n        /* \"#utility.yul\":8036:8038   */\n      0x60\n        /* \"#utility.yul\":8024:8033   */\n      dup5\n        /* \"#utility.yul\":8015:8022   */\n      dup7\n        /* \"#utility.yul\":8011:8034   */\n      sub\n        /* \"#utility.yul\":8007:8039   */\n      slt\n        /* \"#utility.yul\":8004:8123   */\n      iszero\n      tag_239\n      jumpi\n        /* \"#utility.yul\":8042:8121   */\n      tag_240\n      tag_113\n      jump\t// in\n    tag_240:\n        /* \"#utility.yul\":8004:8123   */\n    tag_239:\n        /* \"#utility.yul\":8190:8191   */\n      0x00\n        /* \"#utility.yul\":8179:8188   */\n      dup5\n        /* \"#utility.yul\":8175:8192   */\n      add\n        /* \"#utility.yul\":8162:8193   */\n      calldataload\n        /* \"#utility.yul\":8220:8238   */\n      0xffffffffffffffff\n        /* \"#utility.yul\":8212:8218   */\n      dup2\n        /* \"#utility.yul\":8209:8239   */\n      gt\n        /* \"#utility.yul\":8206:8323   */\n      iszero\n      tag_241\n      jumpi\n        /* \"#utility.yul\":8242:8321   */\n      tag_242\n      tag_114\n      jump\t// in\n    tag_242:\n        /* \"#utility.yul\":8206:8323   */\n    tag_241:\n        /* \"#utility.yul\":8347:8410   */\n      tag_243\n        /* \"#utility.yul\":8402:8409   */\n      dup7\n        /* \"#utility.yul\":8393:8399   */\n      dup3\n        /* \"#utility.yul\":8382:8391   */\n      dup8\n        /* \"#utility.yul\":8378:8400   */\n      add\n        /* \"#utility.yul\":8347:8410   */\n      tag_141\n      jump\t// in\n    tag_243:\n        /* \"#utility.yul\":8337:8410   */\n      swap4\n      pop\n        /* \"#utility.yul\":8133:8420   */\n      pop\n        /* \"#utility.yul\":8459:8461   */\n      0x20\n        /* \"#utility.yul\":8485:8538   */\n      tag_244\n        /* \"#utility.yul\":8530:8537   */\n      dup7\n        /* \"#utility.yul\":8521:8527   */\n      dup3\n        /* \"#utility.yul\":8510:8519   */\n      dup8\n        /* \"#utility.yul\":8506:8528   */\n      add\n        /* \"#utility.yul\":8485:8538   */\n      tag_117\n      jump\t// in\n    tag_244:\n        /* \"#utility.yul\":8475:8538   */\n      swap3\n      pop\n        /* \"#utility.yul\":8430:8548   */\n      pop\n        /* \"#utility.yul\":8587:8589   */\n      0x40\n        /* \"#utility.yul\":8613:8666   */\n      tag_245\n        /* \"#utility.yul\":8658:8665   */\n      dup7\n        /* \"#utility.yul\":8649:8655   */\n      dup3\n        /* \"#utility.yul\":8638:8647   */\n      dup8\n        /* \"#utility.yul\":8634:8656   */\n      add\n        /* \"#utility.yul\":8613:8666   */\n      tag_121\n      jump\t// in\n    tag_245:\n        /* \"#utility.yul\":8603:8666   */\n      swap2\n      pop\n        /* \"#utility.yul\":8558:8676   */\n      pop\n        /* \"#utility.yul\":7884:8683   */\n      swap3\n      pop\n      swap3\n      pop\n      swap3\n      jump\t// out\n        /* \"#utility.yul\":8689:8869   */\n    tag_142:\n        /* \"#utility.yul\":8737:8814   */\n      0x4e487b7100000000000000000000000000000000000000000000000000000000\n        /* \"#utility.yul\":8734:8735   */\n      0x00\n        /* \"#utility.yul\":8727:8815   */\n      mstore\n        /* \"#utility.yul\":8834:8838   */\n      0x12\n        /* \"#utility.yul\":8831:8832   */\n      0x04\n        /* \"#utility.yul\":8824:8839   */\n      mstore\n        /* \"#utility.yul\":8858:8862   */\n      0x24\n        /* \"#utility.yul\":8855:8856   */\n      0x00\n        /* \"#utility.yul\":8848:8863   */\n      revert\n        /* \"#utility.yul\":8875:9055   */\n    tag_143:\n        /* \"#utility.yul\":8923:9000   */\n      0x4e487b7100000000000000000000000000000000000000000000000000000000\n        /* \"#utility.yul\":8920:8921   */\n      0x00\n        /* \"#utility.yul\":8913:9001   */\n      mstore\n        /* \"#utility.yul\":9020:9024   */\n      0x11\n        /* \"#utility.yul\":9017:9018   */\n      0x04\n        /* \"#utility.yul\":9010:9025   */\n      mstore\n        /* \"#utility.yul\":9044:9048   */\n      0x24\n        /* \"#utility.yul\":9041:9042   */\n      0x00\n        /* \"#utility.yul\":9034:9049   */\n      revert\n        /* \"#utility.yul\":9061:9246   */\n    tag_75:\n        /* \"#utility.yul\":9101:9102   */\n      0x00\n        /* \"#utility.yul\":9118:9138   */\n      tag_249\n        /* \"#utility.yul\":9136:9137   */\n      dup3\n        /* \"#utility.yul\":9118:9138   */\n      tag_115\n      jump\t// in\n    tag_249:\n        /* \"#utility.yul\":9113:9138   */\n      swap2\n      pop\n        /* \"#utility.yul\":9152:9172   */\n      tag_250\n        /* \"#utility.yul\":9170:9171   */\n      dup4\n        /* \"#utility.yul\":9152:9172   */\n      tag_115\n      jump\t// in\n    tag_250:\n        /* \"#utility.yul\":9147:9172   */\n      swap3\n      pop\n        /* \"#utility.yul\":9191:9192   */\n      dup3\n        /* \"#utility.yul\":9181:9216   */\n      tag_251\n      jumpi\n        /* \"#utility.yul\":9196:9214   */\n      tag_252\n      tag_142\n      jump\t// in\n    tag_252:\n        /* \"#utility.yul\":9181:9216   */\n    tag_251:\n        /* \"#utility.yul\":9238:9239   */\n      dup3\n        /* \"#utility.yul\":9235:9236   */\n      dup3\n        /* \"#utility.yul\":9231:9240   */\n      div\n        /* \"#utility.yul\":9226:9240   */\n      swap1\n      pop\n        /* \"#utility.yul\":9061:9246   */\n      swap3\n      swap2\n      pop\n      pop\n      jump\t// out\n        /* \"#utility.yul\":9252:9432   */\n    tag_144:\n        /* \"#utility.yul\":9300:9377   */\n      0x4e487b7100000000000000000000000000000000000000000000000000000000\n        /* \"#utility.yul\":9297:9298   */\n      0x00\n        /* \"#utility.yul\":9290:9378   */\n      mstore\n        /* \"#utility.yul\":9397:9401   */\n      0x22\n        /* \"#utility.yul\":9394:9395   */\n      0x04\n        /* \"#utility.yul\":9387:9402   */\n      mstore\n        /* \"#utility.yul\":9421:9425   */\n      0x24\n        /* \"#utility.yul\":9418:9419   */\n      0x00\n        /* \"#utility.yul\":9411:9426   */\n      revert\n        /* \"#utility.yul\":9438:9758   */\n    tag_83:\n        /* \"#utility.yul\":9482:9488   */\n      0x00\n        /* \"#utility.yul\":9519:9520   */\n      0x02\n        /* \"#utility.yul\":9513:9517   */\n      dup3\n        /* \"#utility.yul\":9509:9521   */\n      div\n        /* \"#utility.yul\":9499:9521   */\n      swap1\n      pop\n        /* \"#utility.yul\":9566:9567   */\n      0x01\n        /* \"#utility.yul\":9560:9564   */\n      dup3\n        /* \"#utility.yul\":9556:9568   */\n      and\n        /* \"#utility.yul\":9587:9605   */\n      dup1\n        /* \"#utility.yul\":9577:9658   */\n      tag_255\n      jumpi\n        /* \"#utility.yul\":9643:9647   */\n      0x7f\n        /* \"#utility.yul\":9635:9641   */\n      dup3\n        /* \"#utility.yul\":9631:9648   */\n      and\n        /* \"#utility.yul\":9621:9648   */\n      swap2\n      pop\n        /* \"#utility.yul\":9577:9658   */\n    tag_255:\n        /* \"#utility.yul\":9705:9707   */\n      0x20\n        /* \"#utility.yul\":9697:9703   */\n      dup3\n        /* \"#utility.yul\":9694:9708   */\n      lt\n        /* \"#utility.yul\":9674:9692   */\n      dup2\n        /* \"#utility.yul\":9671:9709   */\n      eq\n        /* \"#utility.yul\":9668:9752   */\n      iszero\n      tag_256\n      jumpi\n        /* \"#utility.yul\":9724:9742   */\n      tag_257\n      tag_144\n      jump\t// in\n    tag_257:\n        /* \"#utility.yul\":9668:9752   */\n    tag_256:\n        /* \"#utility.yul\":9489:9758   */\n      pop\n        /* \"#utility.yul\":9438:9758   */\n      swap2\n      swap1\n      pop\n      jump\t// out\n        /* \"#utility.yul\":9764:9997   */\n    tag_92:\n        /* \"#utility.yul\":9803:9806   */\n      0x00\n        /* \"#utility.yul\":9826:9850   */\n      tag_259\n        /* \"#utility.yul\":9844:9849   */\n      dup3\n        /* \"#utility.yul\":9826:9850   */\n      tag_115\n      jump\t// in\n    tag_259:\n        /* \"#utility.yul\":9817:9850   */\n      swap2\n      pop\n        /* \"#utility.yul\":9872:9938   */\n      0xffffffffffffffffffffffffffffffffffffffffffffffffffffffffffffffff\n        /* \"#utility.yul\":9865:9870   */\n      dup3\n        /* \"#utility.yul\":9862:9939   */\n      eq\n        /* \"#utility.yul\":9859:9962   */\n      iszero\n      tag_260\n      jumpi\n        /* \"#utility.yul\":9942:9960   */\n      tag_261\n      tag_143\n      jump\t// in\n    tag_261:\n        /* \"#utility.yul\":9859:9962   */\n    tag_260:\n        /* \"#utility.yul\":9989:9990   */\n      0x01\n        /* \"#utility.yul\":9982:9987   */\n      dup3\n        /* \"#utility.yul\":9978:9991   */\n      add\n        /* \"#utility.yul\":9971:9991   */\n      swap1\n      pop\n        /* \"#utility.yul\":9764:9997   */\n      swap2\n      swap1\n      pop\n      jump\t// out\n\n    auxdata: 0xa26469706673582212209e5d0037d6c3ec98ea8c51dcf885cabf9c7b54da4a349b591c59549b912cd79a64736f6c634300080b0033\n}\n","bytecode":{"linkReferences":{},"object":"60806040523480156200001157600080fd5b50604051620010843803806200108483398181016040528101906200003791906200012c565b80600360006101000a81548173ffffffffffffffffffffffffffffffffffffffff021916908373ffffffffffffffffffffffffffffffffffffffff16021790555081600281905550505062000173565b600080fd5b6000819050919050565b620000a1816200008c565b8114620000ad57600080fd5b50565b600081519050620000c18162000096565b92915050565b600073ffffffffffffffffffffffffffffffffffffffff82169050919050565b6000620000f482620000c7565b9050919050565b6200010681620000e7565b81146200011257600080fd5b50565b6000815190506200012681620000fb565b92915050565b6000806040838503121562000146576200014562000087565b5b60006200015685828601620000b0565b9250506020620001698582860162000115565b9150509250929050565b610f0180620001836000396000f3fe6080604052600436106100a75760003560e01c806382fde0931161006457806382fde093146101d85780638a9cfd55146102035780639fb42b1f1461022c578063aaffadf314610257578063d7bb99ba14610282578063d7d1bbdb1461028c576100a7565b806303441006146100ac5780630a144391146100d55780633410452a146101125780634051ddac1461013d578063481c6a751461016c57806381d12c5814610197575b600080fd5b3480156100b857600080fd5b506100d360048036038101906100ce9190610945565b6102b5565b005b3480156100e157600080fd5b506100fc60048036038101906100f791906109d0565b6103f0565b6040516101099190610a18565b60405180910390f35b34801561011e57600080fd5b50610127610410565b6040516101349190610a42565b60405180910390f35b34801561014957600080fd5b50610152610419565b604051610163959493929190610a6c565b60405180910390f35b34801561017857600080fd5b5061018161045f565b60405161018e9190610ae0565b60405180910390f35b3480156101a357600080fd5b506101be60048036038101906101b99190610945565b610485565b6040516101cf959493929190610b94565b60405180910390f35b3480156101e457600080fd5b506101ed610570565b6040516101fa9190610a42565b60405180910390f35b34801561020f57600080fd5b5061022a60048036038101906102259190610d23565b610576565b005b34801561023857600080fd5b5061024161068e565b60405161024e9190610a42565b60405180910390f35b34801561026357600080fd5b5061026c610694565b6040516102799190610a42565b60405180910390f35b61028a61069a565b005b34801561029857600080fd5b506102b360048036038101906102ae9190610945565b61071a565b005b600360009054906101000a900473ffffffffffffffffffffffffffffffffffffffff1673ffffffffffffffffffffffffffffffffffffffff163373ffffffffffffffffffffffffffffffffffffffff161461030f57600080fd5b600060016000838152602001908152602001600020905060026005546103359190610df0565b81600401541161034457600080fd5b8060030160009054906101000a900460ff161561036057600080fd5b8060010160009054906101000a900473ffffffffffffffffffffffffffffffffffffffff1673ffffffffffffffffffffffffffffffffffffffff166108fc82600201549081150290604051600060405180830381858888f193505050501580156103ce573d6000803e3d6000fd5b5060018160030160006101000a81548160ff0219169083151502179055505050565b60046020528060005260406000206000915054906101000a900460ff1681565b60008054905090565b600080600080600060025447600054600554600360009054906101000a900473ffffffffffffffffffffffffffffffffffffffff16945094509450945094509091929394565b600360009054906101000a900473ffffffffffffffffffffffffffffffffffffffff1681565b60016020528060005260406000206000915090508060000180546104a890610e50565b80601f01602080910402602001604051908101604052809291908181526020018280546104d490610e50565b80156105215780601f106104f657610100808354040283529160200191610521565b820191906000526020600020905b81548152906001019060200180831161050457829003601f168201915b5050505050908060010160009054906101000a900473ffffffffffffffffffffffffffffffffffffffff16908060020154908060030160009054906101000a900460ff16908060040154905085565b60055481565b600360009054906101000a900473ffffffffffffffffffffffffffffffffffffffff1673ffffffffffffffffffffffffffffffffffffffff163373ffffffffffffffffffffffffffffffffffffffff16146105d057600080fd5b6000600160008060008154809291906105e890610e82565b919050558152602001908152602001600020905083816000019080519060200190610614929190610858565b50828160020181905550818160010160006101000a81548173ffffffffffffffffffffffffffffffffffffffff021916908373ffffffffffffffffffffffffffffffffffffffff16021790555060008160030160006101000a81548160ff0219169083151502179055506000816004018190555050505050565b60005481565b60025481565b60025434116106a857600080fd5b6001600460003373ffffffffffffffffffffffffffffffffffffffff1673ffffffffffffffffffffffffffffffffffffffff16815260200190815260200160002060006101000a81548160ff0219169083151502179055506005600081548092919061071390610e82565b9190505550565b6000600160008381526020019081526020016000209050600460003373ffffffffffffffffffffffffffffffffffffffff1673ffffffffffffffffffffffffffffffffffffffff16815260200190815260200160002060009054906101000a900460ff1661078757600080fd5b8060050160003373ffffffffffffffffffffffffffffffffffffffff1673ffffffffffffffffffffffffffffffffffffffff16815260200190815260200160002060009054906101000a900460ff16156107e057600080fd5b60018160050160003373ffffffffffffffffffffffffffffffffffffffff1673ffffffffffffffffffffffffffffffffffffffff16815260200190815260200160002060006101000a81548160ff02191690831515021790555080600401600081548092919061084f90610e82565b91905055505050565b82805461086490610e50565b90600052602060002090601f01602090048101928261088657600085556108cd565b82601f1061089f57805160ff19168380011785556108cd565b828001600101855582156108cd579182015b828111156108cc5782518255916020019190600101906108b1565b5b5090506108da91906108de565b5090565b5b808211156108f75760008160009055506001016108df565b5090565b6000604051905090565b600080fd5b600080fd5b6000819050919050565b6109228161090f565b811461092d57600080fd5b50565b60008135905061093f81610919565b92915050565b60006020828403121561095b5761095a610905565b5b600061096984828501610930565b91505092915050565b600073ffffffffffffffffffffffffffffffffffffffff82169050919050565b600061099d82610972565b9050919050565b6109ad81610992565b81146109b857600080fd5b50565b6000813590506109ca816109a4565b92915050565b6000602082840312156109e6576109e5610905565b5b60006109f4848285016109bb565b91505092915050565b60008115159050919050565b610a12816109fd565b82525050565b6000602082019050610a2d6000830184610a09565b92915050565b610a3c8161090f565b82525050565b6000602082019050610a576000830184610a33565b92915050565b610a6681610992565b82525050565b600060a082019050610a816000830188610a33565b610a8e6020830187610a33565b610a9b6040830186610a33565b610aa86060830185610a33565b610ab56080830184610a5d565b9695505050505050565b6000610aca82610972565b9050919050565b610ada81610abf565b82525050565b6000602082019050610af56000830184610ad1565b92915050565b600081519050919050565b600082825260208201905092915050565b60005b83811015610b35578082015181840152602081019050610b1a565b83811115610b44576000848401525b50505050565b6000601f19601f8301169050919050565b6000610b6682610afb565b610b708185610b06565b9350610b80818560208601610b17565b610b8981610b4a565b840191505092915050565b600060a0820190508181036000830152610bae8188610b5b565b9050610bbd6020830187610a5d565b610bca6040830186610a33565b610bd76060830185610a09565b610be46080830184610a33565b9695505050505050565b600080fd5b600080fd5b7f4e487b7100000000000000000000000000000000000000000000000000000000600052604160045260246000fd5b610c3082610b4a565b810181811067ffffffffffffffff82111715610c4f57610c4e610bf8565b5b80604052505050565b6000610c626108fb565b9050610c6e8282610c27565b919050565b600067ffffffffffffffff821115610c8e57610c8d610bf8565b5b610c9782610b4a565b9050602081019050919050565b82818337600083830152505050565b6000610cc6610cc184610c73565b610c58565b905082815260208101848484011115610ce257610ce1610bf3565b5b610ced848285610ca4565b509392505050565b600082601f830112610d0a57610d09610bee565b5b8135610d1a848260208601610cb3565b91505092915050565b600080600060608486031215610d3c57610d3b610905565b5b600084013567ffffffffffffffff811115610d5a57610d5961090a565b5b610d6686828701610cf5565b9350506020610d7786828701610930565b9250506040610d88868287016109bb565b9150509250925092565b7f4e487b7100000000000000000000000000000000000000000000000000000000600052601260045260246000fd5b7f4e487b7100000000000000000000000000000000000000000000000000000000600052601160045260246000fd5b6000610dfb8261090f565b9150610e068361090f565b925082610e1657610e15610d92565b5b828204905092915050565b7f4e487b7100000000000000000000000000000000000000000000000000000000600052602260045260246000fd5b60006002820490506001821680610e6857607f821691505b60208210811415610e7c57610e7b610e21565b5b50919050565b6000610e8d8261090f565b91507fffffffffffffffffffffffffffffffffffffffffffffffffffffffffffffffff821415610ec057610ebf610dc1565b5b60018201905091905056fea26469706673582212209e5d0037d6c3ec98ea8c51dcf885cabf9c7b54da4a349b591c59549b912cd79a64736f6c634300080b0033","opcodes":"PUSH1 0x80 PUSH1 0x40 MSTORE CALLVALUE DUP1 ISZERO PUSH3 0x11 JUMPI PUSH1 0x0 DUP1 REVERT JUMPDEST POP PUSH1 0x40 MLOAD PUSH3 0x1084 CODESIZE SUB DUP1 PUSH3 0x1084 DUP4 CODECOPY DUP2 DUP2 ADD PUSH1 0x40 MSTORE DUP2 ADD SWAP1 PUSH3 0x37 SWAP2 SWAP1 PUSH3 0x12C JUMP JUMPDEST DUP1 PUSH1 0x3 PUSH1 0x0 PUSH2 0x100 EXP DUP2 SLOAD DUP2 PUSH20 0xFFFFFFFFFFFFFFFFFFFFFFFFFFFFFFFFFFFFFFFF MUL NOT AND SWAP1 DUP4 PUSH20 0xFFFFFFFFFFFFFFFFFFFFFFFFFFFFFFFFFFFFFFFF AND MUL OR SWAP1 SSTORE POP DUP2 PUSH1 0x2 DUP2 SWAP1 SSTORE POP POP POP PUSH3 0x173 JUMP JUMPDEST PUSH1 0x0 DUP1 REVERT JUMPDEST PUSH1 0x0 DUP2 SWAP1 POP SWAP2 SWAP1 POP JUMP JUMPDEST PUSH3 0xA1 DUP2 PUSH3 0x8C JUMP JUMPDEST DUP2 EQ PUSH3 0xAD JUMPI PUSH1 0x0 DUP1 REVERT JUMPDEST POP JUMP JUMPDEST PUSH1 0x0 DUP2 MLOAD SWAP1 POP PUSH3 0xC1 DUP2 PUSH3 0x96 JUMP JUMPDEST SWAP3 SWAP2 POP POP JUMP JUMPDEST PUSH1 0x0 PUSH20 0xFFFFFFFFFFFFFFFFFFFFFFFFFFFFFFFFFFFFFFFF DUP3 AND SWAP1 POP SWAP2 SWAP1 POP JUMP JUMPDEST PUSH1 0x0 PUSH3 0xF4 DUP3 PUSH3 0xC7 JUMP JUMPDEST SWAP1 POP SWAP2 SWAP1 POP JUMP JUMPDEST PUSH3 0x106 DUP2 PUSH3 0xE7 JUMP JUMPDEST DUP2 EQ PUSH3 0x112 JUMPI PUSH1 0x0 DUP1 REVERT JUMPDEST POP JUMP JUMPDEST PUSH1 0x0 DUP2 MLOAD SWAP1 POP PUSH3 0x126 DUP2 PUSH3 0xFB JUMP JUMPDEST SWAP3 SWAP2 POP POP JUMP JUMPDEST PUSH1 0x0 DUP1 PUSH1 0x40 DUP4 DUP6 SUB SLT ISZERO PUSH3 0x146 JUMPI PUSH3 0x145 PUSH3 0x87 JUMP JUMPDEST JUMPDEST PUSH1 0x0 PUSH3 0x156 DUP6 DUP3 DUP7 ADD PUSH3 0xB0 JUMP JUMPDEST SWAP3 POP POP PUSH1 0x20 PUSH3 0x169 DUP6 DUP3 DUP7 ADD PUSH3 0x115 JUMP JUMPDEST SWAP2 POP POP SWAP3 POP SWAP3 SWAP1 POP JUMP JUMPDEST PUSH2 0xF01 DUP1 PUSH3 0x183 PUSH1 0x0 CODECOPY PUSH1 0x0 RETURN INVALID PUSH1 0x80 PUSH1 0x40 MSTORE PUSH1 0x4 CALLDATASIZE LT PUSH2 0xA7 JUMPI PUSH1 0x0 CALLDATALOAD PUSH1 0xE0 SHR DUP1 PUSH4 0x82FDE093 GT PUSH2 0x64 JUMPI DUP1 PUSH4 0x82FDE093 EQ PUSH2 0x1D8 JUMPI DUP1 PUSH4 0x8A9CFD55 EQ PUSH2 0x203 JUMPI DUP1 PUSH4 0x9FB42B1F EQ PUSH2 0x22C JUMPI DUP1 PUSH4 0xAAFFADF3 EQ PUSH2 0x257 JUMPI DUP1 PUSH4 0xD7BB99BA EQ PUSH2 0x282 JUMPI DUP1 PUSH4 0xD7D1BBDB EQ PUSH2 0x28C JUMPI PUSH2 0xA7 JUMP JUMPDEST DUP1 PUSH4 0x3441006 EQ PUSH2 0xAC JUMPI DUP1 PUSH4 0xA144391 EQ PUSH2 0xD5 JUMPI DUP1 PUSH4 0x3410452A EQ PUSH2 0x112 JUMPI DUP1 PUSH4 0x4051DDAC EQ PUSH2 0x13D JUMPI DUP1 PUSH4 0x481C6A75 EQ PUSH2 0x16C JUMPI DUP1 PUSH4 0x81D12C58 EQ PUSH2 0x197 JUMPI JUMPDEST PUSH1 0x0 DUP1 REVERT JUMPDEST CALLVALUE DUP1 ISZERO PUSH2 0xB8 JUMPI PUSH1 0x0 DUP1 REVERT JUMPDEST POP PUSH2 0xD3 PUSH1 0x4 DUP1 CALLDATASIZE SUB DUP2 ADD SWAP1 PUSH2 0xCE SWAP2 SWAP1 PUSH2 0x945 JUMP JUMPDEST PUSH2 0x2B5 JUMP JUMPDEST STOP JUMPDEST CALLVALUE DUP1 ISZERO PUSH2 0xE1 JUMPI PUSH1 0x0 DUP1 REVERT JUMPDEST POP PUSH2 0xFC PUSH1 0x4 DUP1 CALLDATASIZE SUB DUP2 ADD SWAP1 PUSH2 0xF7 SWAP2 SWAP1 PUSH2 0x9D0 JUMP JUMPDEST PUSH2 0x3F0 JUMP JUMPDEST PUSH1 0x40 MLOAD PUSH2 0x109 SWAP2 SWAP1 PUSH2 0xA18 JUMP JUMPDEST PUSH1 0x40 MLOAD DUP1 SWAP2 SUB SWAP1 RETURN JUMPDEST CALLVALUE DUP1 ISZERO PUSH2 0x11E JUMPI PUSH1 0x0 DUP1 REVERT JUMPDEST POP PUSH2 0x127 PUSH2 0x410 JUMP JUMPDEST PUSH1 0x40 MLOAD PUSH2 0x134 SWAP2 SWAP1 PUSH2 0xA42 JUMP JUMPDEST PUSH1 0x40 MLOAD DUP1 SWAP2 SUB SWAP1 RETURN JUMPDEST CALLVALUE DUP1 ISZERO PUSH2 0x149 JUMPI PUSH1 0x0 DUP1 REVERT JUMPDEST POP PUSH2 0x152 PUSH2 0x419 JUMP JUMPDEST PUSH1 0x40 MLOAD PUSH2 0x163 SWAP6 SWAP5 SWAP4 SWAP3 SWAP2 SWAP1 PUSH2 0xA6C JUMP JUMPDEST PUSH1 0x40 MLOAD DUP1 SWAP2 SUB SWAP1 RETURN JUMPDEST CALLVALUE DUP1 ISZERO PUSH2 0x178 JUMPI PUSH1 0x0 DUP1 REVERT JUMPDEST POP PUSH2 0x181 PUSH2 0x45F JUMP JUMPDEST PUSH1 0x40 MLOAD PUSH2 0x18E SWAP2 SWAP1 PUSH2 0xAE0 JUMP JUMPDEST PUSH1 0x40 MLOAD DUP1 SWAP2 SUB SWAP1 RETURN JUMPDEST CALLVALUE DUP1 ISZERO PUSH2 0x1A3 JUMPI PUSH1 0x0 DUP1 REVERT JUMPDEST POP PUSH2 0x1BE PUSH1 0x4 DUP1 CALLDATASIZE SUB DUP2 ADD SWAP1 PUSH2 0x1B9 SWAP2 SWAP1 PUSH2 0x945 JUMP JUMPDEST PUSH2 0x485 JUMP JUMPDEST PUSH1 0x40 MLOAD PUSH2 0x1CF SWAP6 SWAP5 SWAP4 SWAP3 SWAP2 SWAP1 PUSH2 0xB94 JUMP JUMPDEST PUSH1 0x40 MLOAD DUP1 SWAP2 SUB SWAP1 RETURN JUMPDEST CALLVALUE DUP1 ISZERO PUSH2 0x1E4 JUMPI PUSH1 0x0 DUP1 REVERT JUMPDEST POP PUSH2 0x1ED PUSH2 0x570 JUMP JUMPDEST PUSH1 0x40 MLOAD PUSH2 0x1FA SWAP2 SWAP1 PUSH2 0xA42 JUMP JUMPDEST PUSH1 0x40 MLOAD DUP1 SWAP2 SUB SWAP1 RETURN JUMPDEST CALLVALUE DUP1 ISZERO PUSH2 0x20F JUMPI PUSH1 0x0 DUP1 REVERT JUMPDEST POP PUSH2 0x22A PUSH1 0x4 DUP1 CALLDATASIZE SUB DUP2 ADD SWAP1 PUSH2 0x225 SWAP2 SWAP1 PUSH2 0xD23 JUMP JUMPDEST PUSH2 0x576 JUMP JUMPDEST STOP JUMPDEST CALLVALUE DUP1 ISZERO PUSH2 0x238 JUMPI PUSH1 0x0 DUP1 REVERT JUMPDEST POP PUSH2 0x241 PUSH2 0x68E JUMP JUMPDEST PUSH1 0x40 MLOAD PUSH2 0x24E SWAP2 SWAP1 PUSH2 0xA42 JUMP JUMPDEST PUSH1 0x40 MLOAD DUP1 SWAP2 SUB SWAP1 RETURN JUMPDEST CALLVALUE DUP1 ISZERO PUSH2 0x263 JUMPI PUSH1 0x0 DUP1 REVERT JUMPDEST POP PUSH2 0x26C PUSH2 0x694 JUMP JUMPDEST PUSH1 0x40 MLOAD PUSH2 0x279 SWAP2 SWAP1 PUSH2 0xA42 JUMP JUMPDEST PUSH1 0x40 MLOAD DUP1 SWAP2 SUB SWAP1 RETURN JUMPDEST PUSH2 0x28A PUSH2 0x69A JUMP JUMPDEST STOP JUMPDEST CALLVALUE DUP1 ISZERO PUSH2 0x298 JUMPI PUSH1 0x0 DUP1 REVERT JUMPDEST POP PUSH2 0x2B3 PUSH1 0x4 DUP1 CALLDATASIZE SUB DUP2 ADD SWAP1 PUSH2 0x2AE SWAP2 SWAP1 PUSH2 0x945 JUMP JUMPDEST PUSH2 0x71A JUMP JUMPDEST STOP JUMPDEST PUSH1 0x3 PUSH1 0x0 SWAP1 SLOAD SWAP1 PUSH2 0x100 EXP SWAP1 DIV PUSH20 0xFFFFFFFFFFFFFFFFFFFFFFFFFFFFFFFFFFFFFFFF AND PUSH20 0xFFFFFFFFFFFFFFFFFFFFFFFFFFFFFFFFFFFFFFFF AND CALLER PUSH20 0xFFFFFFFFFFFFFFFFFFFFFFFFFFFFFFFFFFFFFFFF AND EQ PUSH2 0x30F JUMPI PUSH1 0x0 DUP1 REVERT JUMPDEST PUSH1 0x0 PUSH1 0x1 PUSH1 0x0 DUP4 DUP2 MSTORE PUSH1 0x20 ADD SWAP1 DUP2 MSTORE PUSH1 0x20 ADD PUSH1 0x0 KECCAK256 SWAP1 POP PUSH1 0x2 PUSH1 0x5 SLOAD PUSH2 0x335 SWAP2 SWAP1 PUSH2 0xDF0 JUMP JUMPDEST DUP2 PUSH1 0x4 ADD SLOAD GT PUSH2 0x344 JUMPI PUSH1 0x0 DUP1 REVERT JUMPDEST DUP1 PUSH1 0x3 ADD PUSH1 0x0 SWAP1 SLOAD SWAP1 PUSH2 0x100 EXP SWAP1 DIV PUSH1 0xFF AND ISZERO PUSH2 0x360 JUMPI PUSH1 0x0 DUP1 REVERT JUMPDEST DUP1 PUSH1 0x1 ADD PUSH1 0x0 SWAP1 SLOAD SWAP1 PUSH2 0x100 EXP SWAP1 DIV PUSH20 0xFFFFFFFFFFFFFFFFFFFFFFFFFFFFFFFFFFFFFFFF AND PUSH20 0xFFFFFFFFFFFFFFFFFFFFFFFFFFFFFFFFFFFFFFFF AND PUSH2 0x8FC DUP3 PUSH1 0x2 ADD SLOAD SWAP1 DUP2 ISZERO MUL SWAP1 PUSH1 0x40 MLOAD PUSH1 0x0 PUSH1 0x40 MLOAD DUP1 DUP4 SUB DUP2 DUP6 DUP9 DUP9 CALL SWAP4 POP POP POP POP ISZERO DUP1 ISZERO PUSH2 0x3CE JUMPI RETURNDATASIZE PUSH1 0x0 DUP1 RETURNDATACOPY RETURNDATASIZE PUSH1 0x0 REVERT JUMPDEST POP PUSH1 0x1 DUP2 PUSH1 0x3 ADD PUSH1 0x0 PUSH2 0x100 EXP DUP2 SLOAD DUP2 PUSH1 0xFF MUL NOT AND SWAP1 DUP4 ISZERO ISZERO MUL OR SWAP1 SSTORE POP POP POP JUMP JUMPDEST PUSH1 0x4 PUSH1 0x20 MSTORE DUP1 PUSH1 0x0 MSTORE PUSH1 0x40 PUSH1 0x0 KECCAK256 PUSH1 0x0 SWAP2 POP SLOAD SWAP1 PUSH2 0x100 EXP SWAP1 DIV PUSH1 0xFF AND DUP2 JUMP JUMPDEST PUSH1 0x0 DUP1 SLOAD SWAP1 POP SWAP1 JUMP JUMPDEST PUSH1 0x0 DUP1 PUSH1 0x0 DUP1 PUSH1 0x0 PUSH1 0x2 SLOAD SELFBALANCE PUSH1 0x0 SLOAD PUSH1 0x5 SLOAD PUSH1 0x3 PUSH1 0x0 SWAP1 SLOAD SWAP1 PUSH2 0x100 EXP SWAP1 DIV PUSH20 0xFFFFFFFFFFFFFFFFFFFFFFFFFFFFFFFFFFFFFFFF AND SWAP5 POP SWAP5 POP SWAP5 POP SWAP5 POP SWAP5 POP SWAP1 SWAP2 SWAP3 SWAP4 SWAP5 JUMP JUMPDEST PUSH1 0x3 PUSH1 0x0 SWAP1 SLOAD SWAP1 PUSH2 0x100 EXP SWAP1 DIV PUSH20 0xFFFFFFFFFFFFFFFFFFFFFFFFFFFFFFFFFFFFFFFF AND DUP2 JUMP JUMPDEST PUSH1 0x1 PUSH1 0x20 MSTORE DUP1 PUSH1 0x0 MSTORE PUSH1 0x40 PUSH1 0x0 KECCAK256 PUSH1 0x0 SWAP2 POP SWAP1 POP DUP1 PUSH1 0x0 ADD DUP1 SLOAD PUSH2 0x4A8 SWAP1 PUSH2 0xE50 JUMP JUMPDEST DUP1 PUSH1 0x1F ADD PUSH1 0x20 DUP1 SWAP2 DIV MUL PUSH1 0x20 ADD PUSH1 0x40 MLOAD SWAP1 DUP2 ADD PUSH1 0x40 MSTORE DUP1 SWAP3 SWAP2 SWAP1 DUP2 DUP2 MSTORE PUSH1 0x20 ADD DUP3 DUP1 SLOAD PUSH2 0x4D4 SWAP1 PUSH2 0xE50 JUMP JUMPDEST DUP1 ISZERO PUSH2 0x521 JUMPI DUP1 PUSH1 0x1F LT PUSH2 0x4F6 JUMPI PUSH2 0x100 DUP1 DUP4 SLOAD DIV MUL DUP4 MSTORE SWAP2 PUSH1 0x20 ADD SWAP2 PUSH2 0x521 JUMP JUMPDEST DUP3 ADD SWAP2 SWAP1 PUSH1 0x0 MSTORE PUSH1 0x20 PUSH1 0x0 KECCAK256 SWAP1 JUMPDEST DUP2 SLOAD DUP2 MSTORE SWAP1 PUSH1 0x1 ADD SWAP1 PUSH1 0x20 ADD DUP1 DUP4 GT PUSH2 0x504 JUMPI DUP3 SWAP1 SUB PUSH1 0x1F AND DUP3 ADD SWAP2 JUMPDEST POP POP POP POP POP SWAP1 DUP1 PUSH1 0x1 ADD PUSH1 0x0 SWAP1 SLOAD SWAP1 PUSH2 0x100 EXP SWAP1 DIV PUSH20 0xFFFFFFFFFFFFFFFFFFFFFFFFFFFFFFFFFFFFFFFF AND SWAP1 DUP1 PUSH1 0x2 ADD SLOAD SWAP1 DUP1 PUSH1 0x3 ADD PUSH1 0x0 SWAP1 SLOAD SWAP1 PUSH2 0x100 EXP SWAP1 DIV PUSH1 0xFF AND SWAP1 DUP1 PUSH1 0x4 ADD SLOAD SWAP1 POP DUP6 JUMP JUMPDEST PUSH1 0x5 SLOAD DUP2 JUMP JUMPDEST PUSH1 0x3 PUSH1 0x0 SWAP1 SLOAD SWAP1 PUSH2 0x100 EXP SWAP1 DIV PUSH20 0xFFFFFFFFFFFFFFFFFFFFFFFFFFFFFFFFFFFFFFFF AND PUSH20 0xFFFFFFFFFFFFFFFFFFFFFFFFFFFFFFFFFFFFFFFF AND CALLER PUSH20 0xFFFFFFFFFFFFFFFFFFFFFFFFFFFFFFFFFFFFFFFF AND EQ PUSH2 0x5D0 JUMPI PUSH1 0x0 DUP1 REVERT JUMPDEST PUSH1 0x0 PUSH1 0x1 PUSH1 0x0 DUP1 PUSH1 0x0 DUP2 SLOAD DUP1 SWAP3 SWAP2 SWAP1 PUSH2 0x5E8 SWAP1 PUSH2 0xE82 JUMP JUMPDEST SWAP2 SWAP1 POP SSTORE DUP2 MSTORE PUSH1 0x20 ADD SWAP1 DUP2 MSTORE PUSH1 0x20 ADD PUSH1 0x0 KECCAK256 SWAP1 POP DUP4 DUP2 PUSH1 0x0 ADD SWAP1 DUP1 MLOAD SWAP1 PUSH1 0x20 ADD SWAP1 PUSH2 0x614 SWAP3 SWAP2 SWAP1 PUSH2 0x858 JUMP JUMPDEST POP DUP3 DUP2 PUSH1 0x2 ADD DUP2 SWAP1 SSTORE POP DUP2 DUP2 PUSH1 0x1 ADD PUSH1 0x0 PUSH2 0x100 EXP DUP2 SLOAD DUP2 PUSH20 0xFFFFFFFFFFFFFFFFFFFFFFFFFFFFFFFFFFFFFFFF MUL NOT AND SWAP1 DUP4 PUSH20 0xFFFFFFFFFFFFFFFFFFFFFFFFFFFFFFFFFFFFFFFF AND MUL OR SWAP1 SSTORE POP PUSH1 0x0 DUP2 PUSH1 0x3 ADD PUSH1 0x0 PUSH2 0x100 EXP DUP2 SLOAD DUP2 PUSH1 0xFF MUL NOT AND SWAP1 DUP4 ISZERO ISZERO MUL OR SWAP1 SSTORE POP PUSH1 0x0 DUP2 PUSH1 0x4 ADD DUP2 SWAP1 SSTORE POP POP POP POP POP JUMP JUMPDEST PUSH1 0x0 SLOAD DUP2 JUMP JUMPDEST PUSH1 0x2 SLOAD DUP2 JUMP JUMPDEST PUSH1 0x2 SLOAD CALLVALUE GT PUSH2 0x6A8 JUMPI PUSH1 0x0 DUP1 REVERT JUMPDEST PUSH1 0x1 PUSH1 0x4 PUSH1 0x0 CALLER PUSH20 0xFFFFFFFFFFFFFFFFFFFFFFFFFFFFFFFFFFFFFFFF AND PUSH20 0xFFFFFFFFFFFFFFFFFFFFFFFFFFFFFFFFFFFFFFFF AND DUP2 MSTORE PUSH1 0x20 ADD SWAP1 DUP2 MSTORE PUSH1 0x20 ADD PUSH1 0x0 KECCAK256 PUSH1 0x0 PUSH2 0x100 EXP DUP2 SLOAD DUP2 PUSH1 0xFF MUL NOT AND SWAP1 DUP4 ISZERO ISZERO MUL OR SWAP1 SSTORE POP PUSH1 0x5 PUSH1 0x0 DUP2 SLOAD DUP1 SWAP3 SWAP2 SWAP1 PUSH2 0x713 SWAP1 PUSH2 0xE82 JUMP JUMPDEST SWAP2 SWAP1 POP SSTORE POP JUMP JUMPDEST PUSH1 0x0 PUSH1 0x1 PUSH1 0x0 DUP4 DUP2 MSTORE PUSH1 0x20 ADD SWAP1 DUP2 MSTORE PUSH1 0x20 ADD PUSH1 0x0 KECCAK256 SWAP1 POP PUSH1 0x4 PUSH1 0x0 CALLER PUSH20 0xFFFFFFFFFFFFFFFFFFFFFFFFFFFFFFFFFFFFFFFF AND PUSH20 0xFFFFFFFFFFFFFFFFFFFFFFFFFFFFFFFFFFFFFFFF AND DUP2 MSTORE PUSH1 0x20 ADD SWAP1 DUP2 MSTORE PUSH1 0x20 ADD PUSH1 0x0 KECCAK256 PUSH1 0x0 SWAP1 SLOAD SWAP1 PUSH2 0x100 EXP SWAP1 DIV PUSH1 0xFF AND PUSH2 0x787 JUMPI PUSH1 0x0 DUP1 REVERT JUMPDEST DUP1 PUSH1 0x5 ADD PUSH1 0x0 CALLER PUSH20 0xFFFFFFFFFFFFFFFFFFFFFFFFFFFFFFFFFFFFFFFF AND PUSH20 0xFFFFFFFFFFFFFFFFFFFFFFFFFFFFFFFFFFFFFFFF AND DUP2 MSTORE PUSH1 0x20 ADD SWAP1 DUP2 MSTORE PUSH1 0x20 ADD PUSH1 0x0 KECCAK256 PUSH1 0x0 SWAP1 SLOAD SWAP1 PUSH2 0x100 EXP SWAP1 DIV PUSH1 0xFF AND ISZERO PUSH2 0x7E0 JUMPI PUSH1 0x0 DUP1 REVERT JUMPDEST PUSH1 0x1 DUP2 PUSH1 0x5 ADD PUSH1 0x0 CALLER PUSH20 0xFFFFFFFFFFFFFFFFFFFFFFFFFFFFFFFFFFFFFFFF AND PUSH20 0xFFFFFFFFFFFFFFFFFFFFFFFFFFFFFFFFFFFFFFFF AND DUP2 MSTORE PUSH1 0x20 ADD SWAP1 DUP2 MSTORE PUSH1 0x20 ADD PUSH1 0x0 KECCAK256 PUSH1 0x0 PUSH2 0x100 EXP DUP2 SLOAD DUP2 PUSH1 0xFF MUL NOT AND SWAP1 DUP4 ISZERO ISZERO MUL OR SWAP1 SSTORE POP DUP1 PUSH1 0x4 ADD PUSH1 0x0 DUP2 SLOAD DUP1 SWAP3 SWAP2 SWAP1 PUSH2 0x84F SWAP1 PUSH2 0xE82 JUMP JUMPDEST SWAP2 SWAP1 POP SSTORE POP POP POP JUMP JUMPDEST DUP3 DUP1 SLOAD PUSH2 0x864 SWAP1 PUSH2 0xE50 JUMP JUMPDEST SWAP1 PUSH1 0x0 MSTORE PUSH1 0x20 PUSH1 0x0 KECCAK256 SWAP1 PUSH1 0x1F ADD PUSH1 0x20 SWAP1 DIV DUP2 ADD SWAP3 DUP3 PUSH2 0x886 JUMPI PUSH1 0x0 DUP6 SSTORE PUSH2 0x8CD JUMP JUMPDEST DUP3 PUSH1 0x1F LT PUSH2 0x89F JUMPI DUP1 MLOAD PUSH1 0xFF NOT AND DUP4 DUP1 ADD OR DUP6 SSTORE PUSH2 0x8CD JUMP JUMPDEST DUP3 DUP1 ADD PUSH1 0x1 ADD DUP6 SSTORE DUP3 ISZERO PUSH2 0x8CD JUMPI SWAP2 DUP3 ADD JUMPDEST DUP3 DUP2 GT ISZERO PUSH2 0x8CC JUMPI DUP3 MLOAD DUP3 SSTORE SWAP2 PUSH1 0x20 ADD SWAP2 SWAP1 PUSH1 0x1 ADD SWAP1 PUSH2 0x8B1 JUMP JUMPDEST JUMPDEST POP SWAP1 POP PUSH2 0x8DA SWAP2 SWAP1 PUSH2 0x8DE JUMP JUMPDEST POP SWAP1 JUMP JUMPDEST JUMPDEST DUP1 DUP3 GT ISZERO PUSH2 0x8F7 JUMPI PUSH1 0x0 DUP2 PUSH1 0x0 SWAP1 SSTORE POP PUSH1 0x1 ADD PUSH2 0x8DF JUMP JUMPDEST POP SWAP1 JUMP JUMPDEST PUSH1 0x0 PUSH1 0x40 MLOAD SWAP1 POP SWAP1 JUMP JUMPDEST PUSH1 0x0 DUP1 REVERT JUMPDEST PUSH1 0x0 DUP1 REVERT JUMPDEST PUSH1 0x0 DUP2 SWAP1 POP SWAP2 SWAP1 POP JUMP JUMPDEST PUSH2 0x922 DUP2 PUSH2 0x90F JUMP JUMPDEST DUP2 EQ PUSH2 0x92D JUMPI PUSH1 0x0 DUP1 REVERT JUMPDEST POP JUMP JUMPDEST PUSH1 0x0 DUP2 CALLDATALOAD SWAP1 POP PUSH2 0x93F DUP2 PUSH2 0x919 JUMP JUMPDEST SWAP3 SWAP2 POP POP JUMP JUMPDEST PUSH1 0x0 PUSH1 0x20 DUP3 DUP5 SUB SLT ISZERO PUSH2 0x95B JUMPI PUSH2 0x95A PUSH2 0x905 JUMP JUMPDEST JUMPDEST PUSH1 0x0 PUSH2 0x969 DUP5 DUP3 DUP6 ADD PUSH2 0x930 JUMP JUMPDEST SWAP2 POP POP SWAP3 SWAP2 POP POP JUMP JUMPDEST PUSH1 0x0 PUSH20 0xFFFFFFFFFFFFFFFFFFFFFFFFFFFFFFFFFFFFFFFF DUP3 AND SWAP1 POP SWAP2 SWAP1 POP JUMP JUMPDEST PUSH1 0x0 PUSH2 0x99D DUP3 PUSH2 0x972 JUMP JUMPDEST SWAP1 POP SWAP2 SWAP1 POP JUMP JUMPDEST PUSH2 0x9AD DUP2 PUSH2 0x992 JUMP JUMPDEST DUP2 EQ PUSH2 0x9B8 JUMPI PUSH1 0x0 DUP1 REVERT JUMPDEST POP JUMP JUMPDEST PUSH1 0x0 DUP2 CALLDATALOAD SWAP1 POP PUSH2 0x9CA DUP2 PUSH2 0x9A4 JUMP JUMPDEST SWAP3 SWAP2 POP POP JUMP JUMPDEST PUSH1 0x0 PUSH1 0x20 DUP3 DUP5 SUB SLT ISZERO PUSH2 0x9E6 JUMPI PUSH2 0x9E5 PUSH2 0x905 JUMP JUMPDEST JUMPDEST PUSH1 0x0 PUSH2 0x9F4 DUP5 DUP3 DUP6 ADD PUSH2 0x9BB JUMP JUMPDEST SWAP2 POP POP SWAP3 SWAP2 POP POP JUMP JUMPDEST PUSH1 0x0 DUP2 ISZERO ISZERO SWAP1 POP SWAP2 SWAP1 POP JUMP JUMPDEST PUSH2 0xA12 DUP2 PUSH2 0x9FD JUMP JUMPDEST DUP3 MSTORE POP POP JUMP JUMPDEST PUSH1 0x0 PUSH1 0x20 DUP3 ADD SWAP1 POP PUSH2 0xA2D PUSH1 0x0 DUP4 ADD DUP5 PUSH2 0xA09 JUMP JUMPDEST SWAP3 SWAP2 POP POP JUMP JUMPDEST PUSH2 0xA3C DUP2 PUSH2 0x90F JUMP JUMPDEST DUP3 MSTORE POP POP JUMP JUMPDEST PUSH1 0x0 PUSH1 0x20 DUP3 ADD SWAP1 POP PUSH2 0xA57 PUSH1 0x0 DUP4 ADD DUP5 PUSH2 0xA33 JUMP JUMPDEST SWAP3 SWAP2 POP POP JUMP JUMPDEST PUSH2 0xA66 DUP2 PUSH2 0x992 JUMP JUMPDEST DUP3 MSTORE POP POP JUMP JUMPDEST PUSH1 0x0 PUSH1 0xA0 DUP3 ADD SWAP1 POP PUSH2 0xA81 PUSH1 0x0 DUP4 ADD DUP9 PUSH2 0xA33 JUMP JUMPDEST PUSH2 0xA8E PUSH1 0x20 DUP4 ADD DUP8 PUSH2 0xA33 JUMP JUMPDEST PUSH2 0xA9B PUSH1 0x40 DUP4 ADD DUP7 PUSH2 0xA33 JUMP JUMPDEST PUSH2 0xAA8 PUSH1 0x60 DUP4 ADD DUP6 PUSH2 0xA33 JUMP JUMPDEST PUSH2 0xAB5 PUSH1 0x80 DUP4 ADD DUP5 PUSH2 0xA5D JUMP JUMPDEST SWAP7 SWAP6 POP POP POP POP POP POP JUMP JUMPDEST PUSH1 0x0 PUSH2 0xACA DUP3 PUSH2 0x972 JUMP JUMPDEST SWAP1 POP SWAP2 SWAP1 POP JUMP JUMPDEST PUSH2 0xADA DUP2 PUSH2 0xABF JUMP JUMPDEST DUP3 MSTORE POP POP JUMP JUMPDEST PUSH1 0x0 PUSH1 0x20 DUP3 ADD SWAP1 POP PUSH2 0xAF5 PUSH1 0x0 DUP4 ADD DUP5 PUSH2 0xAD1 JUMP JUMPDEST SWAP3 SWAP2 POP POP JUMP JUMPDEST PUSH1 0x0 DUP2 MLOAD SWAP1 POP SWAP2 SWAP1 POP JUMP JUMPDEST PUSH1 0x0 DUP3 DUP3 MSTORE PUSH1 0x20 DUP3 ADD SWAP1 POP SWAP3 SWAP2 POP POP JUMP JUMPDEST PUSH1 0x0 JUMPDEST DUP4 DUP2 LT ISZERO PUSH2 0xB35 JUMPI DUP1 DUP3 ADD MLOAD DUP2 DUP5 ADD MSTORE PUSH1 0x20 DUP2 ADD SWAP1 POP PUSH2 0xB1A JUMP JUMPDEST DUP4 DUP2 GT ISZERO PUSH2 0xB44 JUMPI PUSH1 0x0 DUP5 DUP5 ADD MSTORE JUMPDEST POP POP POP POP JUMP JUMPDEST PUSH1 0x0 PUSH1 0x1F NOT PUSH1 0x1F DUP4 ADD AND SWAP1 POP SWAP2 SWAP1 POP JUMP JUMPDEST PUSH1 0x0 PUSH2 0xB66 DUP3 PUSH2 0xAFB JUMP JUMPDEST PUSH2 0xB70 DUP2 DUP6 PUSH2 0xB06 JUMP JUMPDEST SWAP4 POP PUSH2 0xB80 DUP2 DUP6 PUSH1 0x20 DUP7 ADD PUSH2 0xB17 JUMP JUMPDEST PUSH2 0xB89 DUP2 PUSH2 0xB4A JUMP JUMPDEST DUP5 ADD SWAP2 POP POP SWAP3 SWAP2 POP POP JUMP JUMPDEST PUSH1 0x0 PUSH1 0xA0 DUP3 ADD SWAP1 POP DUP2 DUP2 SUB PUSH1 0x0 DUP4 ADD MSTORE PUSH2 0xBAE DUP2 DUP9 PUSH2 0xB5B JUMP JUMPDEST SWAP1 POP PUSH2 0xBBD PUSH1 0x20 DUP4 ADD DUP8 PUSH2 0xA5D JUMP JUMPDEST PUSH2 0xBCA PUSH1 0x40 DUP4 ADD DUP7 PUSH2 0xA33 JUMP JUMPDEST PUSH2 0xBD7 PUSH1 0x60 DUP4 ADD DUP6 PUSH2 0xA09 JUMP JUMPDEST PUSH2 0xBE4 PUSH1 0x80 DUP4 ADD DUP5 PUSH2 0xA33 JUMP JUMPDEST SWAP7 SWAP6 POP POP POP POP POP POP JUMP JUMPDEST PUSH1 0x0 DUP1 REVERT JUMPDEST PUSH1 0x0 DUP1 REVERT JUMPDEST PUSH32 0x4E487B7100000000000000000000000000000000000000000000000000000000 PUSH1 0x0 MSTORE PUSH1 0x41 PUSH1 0x4 MSTORE PUSH1 0x24 PUSH1 0x0 REVERT JUMPDEST PUSH2 0xC30 DUP3 PUSH2 0xB4A JUMP JUMPDEST DUP2 ADD DUP2 DUP2 LT PUSH8 0xFFFFFFFFFFFFFFFF DUP3 GT OR ISZERO PUSH2 0xC4F JUMPI PUSH2 0xC4E PUSH2 0xBF8 JUMP JUMPDEST JUMPDEST DUP1 PUSH1 0x40 MSTORE POP POP POP JUMP JUMPDEST PUSH1 0x0 PUSH2 0xC62 PUSH2 0x8FB JUMP JUMPDEST SWAP1 POP PUSH2 0xC6E DUP3 DUP3 PUSH2 0xC27 JUMP JUMPDEST SWAP2 SWAP1 POP JUMP JUMPDEST PUSH1 0x0 PUSH8 0xFFFFFFFFFFFFFFFF DUP3 GT ISZERO PUSH2 0xC8E JUMPI PUSH2 0xC8D PUSH2 0xBF8 JUMP JUMPDEST JUMPDEST PUSH2 0xC97 DUP3 PUSH2 0xB4A JUMP JUMPDEST SWAP1 POP PUSH1 0x20 DUP2 ADD SWAP1 POP SWAP2 SWAP1 POP JUMP JUMPDEST DUP3 DUP2 DUP4 CALLDATACOPY PUSH1 0x0 DUP4 DUP4 ADD MSTORE POP POP POP JUMP JUMPDEST PUSH1 0x0 PUSH2 0xCC6 PUSH2 0xCC1 DUP5 PUSH2 0xC73 JUMP JUMPDEST PUSH2 0xC58 JUMP JUMPDEST SWAP1 POP DUP3 DUP2 MSTORE PUSH1 0x20 DUP2 ADD DUP5 DUP5 DUP5 ADD GT ISZERO PUSH2 0xCE2 JUMPI PUSH2 0xCE1 PUSH2 0xBF3 JUMP JUMPDEST JUMPDEST PUSH2 0xCED DUP5 DUP3 DUP6 PUSH2 0xCA4 JUMP JUMPDEST POP SWAP4 SWAP3 POP POP POP JUMP JUMPDEST PUSH1 0x0 DUP3 PUSH1 0x1F DUP4 ADD SLT PUSH2 0xD0A JUMPI PUSH2 0xD09 PUSH2 0xBEE JUMP JUMPDEST JUMPDEST DUP2 CALLDATALOAD PUSH2 0xD1A DUP5 DUP3 PUSH1 0x20 DUP7 ADD PUSH2 0xCB3 JUMP JUMPDEST SWAP2 POP POP SWAP3 SWAP2 POP POP JUMP JUMPDEST PUSH1 0x0 DUP1 PUSH1 0x0 PUSH1 0x60 DUP5 DUP7 SUB SLT ISZERO PUSH2 0xD3C JUMPI PUSH2 0xD3B PUSH2 0x905 JUMP JUMPDEST JUMPDEST PUSH1 0x0 DUP5 ADD CALLDATALOAD PUSH8 0xFFFFFFFFFFFFFFFF DUP2 GT ISZERO PUSH2 0xD5A JUMPI PUSH2 0xD59 PUSH2 0x90A JUMP JUMPDEST JUMPDEST PUSH2 0xD66 DUP7 DUP3 DUP8 ADD PUSH2 0xCF5 JUMP JUMPDEST SWAP4 POP POP PUSH1 0x20 PUSH2 0xD77 DUP7 DUP3 DUP8 ADD PUSH2 0x930 JUMP JUMPDEST SWAP3 POP POP PUSH1 0x40 PUSH2 0xD88 DUP7 DUP3 DUP8 ADD PUSH2 0x9BB JUMP JUMPDEST SWAP2 POP POP SWAP3 POP SWAP3 POP SWAP3 JUMP JUMPDEST PUSH32 0x4E487B7100000000000000000000000000000000000000000000000000000000 PUSH1 0x0 MSTORE PUSH1 0x12 PUSH1 0x4 MSTORE PUSH1 0x24 PUSH1 0x0 REVERT JUMPDEST PUSH32 0x4E487B7100000000000000000000000000000000000000000000000000000000 PUSH1 0x0 MSTORE PUSH1 0x11 PUSH1 0x4 MSTORE PUSH1 0x24 PUSH1 0x0 REVERT JUMPDEST PUSH1 0x0 PUSH2 0xDFB DUP3 PUSH2 0x90F JUMP JUMPDEST SWAP2 POP PUSH2 0xE06 DUP4 PUSH2 0x90F JUMP JUMPDEST SWAP3 POP DUP3 PUSH2 0xE16 JUMPI PUSH2 0xE15 PUSH2 0xD92 JUMP JUMPDEST JUMPDEST DUP3 DUP3 DIV SWAP1 POP SWAP3 SWAP2 POP POP JUMP JUMPDEST PUSH32 0x4E487B7100000000000000000000000000000000000000000000000000000000 PUSH1 0x0 MSTORE PUSH1 0x22 PUSH1 0x4 MSTORE PUSH1 0x24 PUSH1 0x0 REVERT JUMPDEST PUSH1 0x0 PUSH1 0x2 DUP3 DIV SWAP1 POP PUSH1 0x1 DUP3 AND DUP1 PUSH2 0xE68 JUMPI PUSH1 0x7F DUP3 AND SWAP2 POP JUMPDEST PUSH1 0x20 DUP3 LT DUP2 EQ ISZERO PUSH2 0xE7C JUMPI PUSH2 0xE7B PUSH2 0xE21 JUMP JUMPDEST JUMPDEST POP SWAP2 SWAP1 POP JUMP JUMPDEST PUSH1 0x0 PUSH2 0xE8D DUP3 PUSH2 0x90F JUMP JUMPDEST SWAP2 POP PUSH32 0xFFFFFFFFFFFFFFFFFFFFFFFFFFFFFFFFFFFFFFFFFFFFFFFFFFFFFFFFFFFFFFFF DUP3 EQ ISZERO PUSH2 0xEC0 JUMPI PUSH2 0xEBF PUSH2 0xDC1 JUMP JUMPDEST JUMPDEST PUSH1 0x1 DUP3 ADD SWAP1 POP SWAP2 SWAP1 POP JUMP INVALID LOG2 PUSH5 0x6970667358 0x22 SLT KECCAK256 SWAP15 0x5D STOP CALLDATACOPY 0xD6 0xC3 0xEC SWAP9 0xEA DUP13 MLOAD 0xDC 0xF8 DUP6 0xCA 0xBF SWAP13 PUSH28 0x54DA4A349B591C59549B912CD79A64736F6C634300080B0033000000 "},"gasEstimates":{"creation":{"codeDepositCost":"768200","executionCost":"infinite","totalCost":"infinite"},"external":{"approveRequest(uint256)":"infinite","approvers(address)":"2868","approversCount()":"2429","contribute()":"51046","createRequest(string,uint256,address)":"infinite","finalizeRequest(uint256)":"infinite","getRequestsCount()":"2482","getSummary()":"infinite","manager()":"2603","minContribution()":"2495","numRequests()":"2473","requests(uint256)":"infinite"}},"methodIdentifiers":{"approveRequest(uint256)":"d7d1bbdb","approvers(address)":"0a144391","approversCount()":"82fde093","contribute()":"d7bb99ba","createRequest(string,uint256,address)":"8a9cfd55","finalizeRequest(uint256)":"03441006","getRequestsCount()":"3410452a","getSummary()":"4051ddac","manager()":"481c6a75","minContribution()":"aaffadf3","numRequests()":"9fb42b1f","requests(uint256)":"81d12c58"}},"storageLayout":{"storage":[{"astId":56,"contract":"Compaign.sol:Compaign","label":"numRequests","offset":0,"slot":"0","type":"t_uint256"},{"astId":61,"contract":"Compaign.sol:Compaign","label":"requests","offset":0,"slot":"1","type":"t_mapping(t_uint256,t_struct(Request)54_storage)"},{"astId":63,"contract":"Compaign.sol:Compaign","label":"minContribution","offset":0,"slot":"2","type":"t_uint256"},{"astId":65,"contract":"Compaign.sol:Compaign","label":"manager","offset":0,"slot":"3","type":"t_address_payable"},{"astId":69,"contract":"Compaign.sol:Compaign","label":"approvers","offset":0,"slot":"4","type":"t_mapping(t_address,t_bool)"},{"astId":71,"contract":"Compaign.sol:Compaign","label":"approversCount","offset":0,"slot":"5","type":"t_uint256"}],"types":{"t_address":{"encoding":"inplace","label":"address","numberOfBytes":"20"},"t_address_payable":{"encoding":"inplace","label":"address payable","numberOfBytes":"20"},"t_bool":{"encoding":"inplace","label":"bool","numberOfBytes":"1"},"t_mapping(t_address,t_bool)":{"encoding":"mapping","key":"t_address","label":"mapping(address => bool)","numberOfBytes":"32","value":"t_bool"},"t_mapping(t_uint256,t_struct(Request)54_storage)":{"encoding":"mapping","key":"t_uint256","label":"mapping(uint256 => struct Compaign.Request)","numberOfBytes":"32","value":"t_struct(Request)54_storage"},"t_string_storage":{"encoding":"bytes","label":"string","numberOfBytes":"32"},"t_struct(Request)54_storage":{"encoding":"inplace","label":"struct Compaign.Request","members":[{"astId":41,"contract":"Compaign.sol:Compaign","label":"description","offset":0,"slot":"0","type":"t_string_storage"},{"astId":43,"contract":"Compaign.sol:Compaign","label":"recipient","offset":0,"slot":"1","type":"t_address"},{"astId":45,"contract":"Compaign.sol:Compaign","label":"value","offset":0,"slot":"2","type":"t_uint256"},{"astId":47,"contract":"Compaign.sol:Compaign","label":"complete","offset":0,"slot":"3","type":"t_bool"},{"astId":49,"contract":"Compaign.sol:Compaign","label":"approvalCount","offset":0,"slot":"4","type":"t_uint256"},{"astId":53,"contract":"Compaign.sol:Compaign","label":"approvals","offset":0,"slot":"5","type":"t_mapping(t_address,t_bool)"}],"numberOfBytes":"192"},"t_uint256":{"encoding":"inplace","label":"uint256","numberOfBytes":"32"}}},"userdoc":{"kind":"user","methods":{},"version":1}}