{"abi":[{"inputs":[{"internalType":"uint256","name":"_minContribution","type":"uint256"}],"name":"createCompaigns","outputs":[],"stateMutability":"nonpayable","type":"function"},{"inputs":[{"internalType":"uint256","name":"","type":"uint256"}],"name":"deployedCompaigns","outputs":[{"internalType":"address","name":"","type":"address"}],"stateMutability":"view","type":"function"},{"inputs":[],"name":"getDeployedCompaigns","outputs":[{"internalType":"address[]","name":"","type":"address[]"}],"stateMutability":"view","type":"function"}],"devdoc":{"kind":"dev","methods":{},"version":1},"evm":{"assembly":"    /* \"Compaign.sol\":58:442  contract FactoryCompaign {... */\n  mstore(0x40, 0x80)\n  callvalue\n  dup1\n  iszero\n  tag_1\n  jumpi\n  0x00\n  dup1\n  revert\ntag_1:\n  pop\n  dataSize(sub_0)\n  dup1\n  dataOffset(sub_0)\n  0x00\n  codecopy\n  0x00\n  return\nstop\n\nsub_0: assembly {\n        /* \"Compaign.sol\":58:442  contract FactoryCompaign {... */\n      mstore(0x40, 0x80)\n      callvalue\n      dup1\n      iszero\n      tag_1\n      jumpi\n      0x00\n      dup1\n      revert\n    tag_1:\n      pop\n      jumpi(tag_2, lt(calldatasize, 0x04))\n      shr(0xe0, calldataload(0x00))\n      dup1\n      0x58c9aa44\n      eq\n      tag_3\n      jumpi\n      dup1\n      0x9389b892\n      eq\n      tag_4\n      jumpi\n      dup1\n      0xe698bdf1\n      eq\n      tag_5\n      jumpi\n    tag_2:\n      0x00\n      dup1\n      revert\n        /* \"Compaign.sol\":330:440  function getDeployedCompaigns() public view returns(address[] memory){... */\n    tag_3:\n      tag_6\n      tag_7\n      jump\t// in\n    tag_6:\n      mload(0x40)\n      tag_8\n      swap2\n      swap1\n      tag_9\n      jump\t// in\n    tag_8:\n      mload(0x40)\n      dup1\n      swap2\n      sub\n      swap1\n      return\n        /* \"Compaign.sol\":130:320  function createCompaigns(uint _minContribution) public {... */\n    tag_4:\n      tag_10\n      0x04\n      dup1\n      calldatasize\n      sub\n      dup2\n      add\n      swap1\n      tag_11\n      swap2\n      swap1\n      tag_12\n      jump\t// in\n    tag_11:\n      tag_13\n      jump\t// in\n    tag_10:\n      stop\n        /* \"Compaign.sol\":89:123  address[] public deployedCompaigns */\n    tag_5:\n      tag_14\n      0x04\n      dup1\n      calldatasize\n      sub\n      dup2\n      add\n      swap1\n      tag_15\n      swap2\n      swap1\n      tag_12\n      jump\t// in\n    tag_15:\n      tag_16\n      jump\t// in\n    tag_14:\n      mload(0x40)\n      tag_17\n      swap2\n      swap1\n      tag_18\n      jump\t// in\n    tag_17:\n      mload(0x40)\n      dup1\n      swap2\n      sub\n      swap1\n      return\n        /* \"Compaign.sol\":330:440  function getDeployedCompaigns() public view returns(address[] memory){... */\n    tag_7:\n        /* \"Compaign.sol\":382:398  address[] memory */\n      0x60\n        /* \"Compaign.sol\":416:433  deployedCompaigns */\n      0x00\n        /* \"Compaign.sol\":409:433  return deployedCompaigns */\n      dup1\n      sload\n      dup1\n      0x20\n      mul\n      0x20\n      add\n      mload(0x40)\n      swap1\n      dup2\n      add\n      0x40\n      mstore\n      dup1\n      swap3\n      swap2\n      swap1\n      dup2\n      dup2\n      mstore\n      0x20\n      add\n      dup3\n      dup1\n      sload\n      dup1\n      iszero\n      tag_20\n      jumpi\n      0x20\n      mul\n      dup3\n      add\n      swap2\n      swap1\n      0x00\n      mstore\n      keccak256(0x00, 0x20)\n      swap1\n    tag_21:\n      dup2\n      0x00\n      swap1\n      sload\n      swap1\n      0x0100\n      exp\n      swap1\n      div\n      0xffffffffffffffffffffffffffffffffffffffff\n      and\n      0xffffffffffffffffffffffffffffffffffffffff\n      and\n      dup2\n      mstore\n      0x20\n      add\n      swap1\n      0x01\n      add\n      swap1\n      dup1\n      dup4\n      gt\n      tag_21\n      jumpi\n    tag_20:\n      pop\n      pop\n      pop\n      pop\n      pop\n      swap1\n      pop\n        /* \"Compaign.sol\":330:440  function getDeployedCompaigns() public view returns(address[] memory){... */\n      swap1\n      jump\t// out\n        /* \"Compaign.sol\":130:320  function createCompaigns(uint _minContribution) public {... */\n    tag_13:\n        /* \"Compaign.sol\":195:214  address newCompaign */\n      0x00\n        /* \"Compaign.sol\":238:254  _minContribution */\n      dup2\n        /* \"Compaign.sol\":256:266  msg.sender */\n      caller\n        /* \"Compaign.sol\":225:267  new Compaign(_minContribution, msg.sender) */\n      mload(0x40)\n      tag_23\n      swap1\n      tag_24\n      jump\t// in\n    tag_23:\n      tag_25\n      swap3\n      swap2\n      swap1\n      tag_26\n      jump\t// in\n    tag_25:\n      mload(0x40)\n      dup1\n      swap2\n      sub\n      swap1\n      0x00\n      create\n      dup1\n      iszero\n      dup1\n      iszero\n      tag_27\n      jumpi\n      returndatasize\n      0x00\n      dup1\n      returndatacopy\n      revert(0x00, returndatasize)\n    tag_27:\n      pop\n        /* \"Compaign.sol\":195:268  address newCompaign = address(new Compaign(_minContribution, msg.sender)) */\n      swap1\n      pop\n        /* \"Compaign.sol\":278:295  deployedCompaigns */\n      0x00\n        /* \"Compaign.sol\":301:312  newCompaign */\n      dup2\n        /* \"Compaign.sol\":278:313  deployedCompaigns.push(newCompaign) */\n      swap1\n      dup1\n      0x01\n      dup2\n      sload\n      add\n      dup1\n      dup3\n      sstore\n      dup1\n      swap2\n      pop\n      pop\n      0x01\n      swap1\n      sub\n      swap1\n      0x00\n      mstore\n      keccak256(0x00, 0x20)\n      add\n      0x00\n      swap1\n      swap2\n      swap1\n      swap2\n      swap1\n      swap2\n      0x0100\n      exp\n      dup2\n      sload\n      dup2\n      0xffffffffffffffffffffffffffffffffffffffff\n      mul\n      not\n      and\n      swap1\n      dup4\n      0xffffffffffffffffffffffffffffffffffffffff\n      and\n      mul\n      or\n      swap1\n      sstore\n      pop\n        /* \"Compaign.sol\":185:320  {... */\n      pop\n        /* \"Compaign.sol\":130:320  function createCompaigns(uint _minContribution) public {... */\n      pop\n      jump\t// out\n        /* \"Compaign.sol\":89:123  address[] public deployedCompaigns */\n    tag_16:\n      0x00\n      dup2\n      dup2\n      sload\n      dup2\n      lt\n      tag_29\n      jumpi\n      0x00\n      dup1\n      revert\n    tag_29:\n      swap1\n      0x00\n      mstore\n      keccak256(0x00, 0x20)\n      add\n      0x00\n      swap2\n      pop\n      sload\n      swap1\n      0x0100\n      exp\n      swap1\n      div\n      0xffffffffffffffffffffffffffffffffffffffff\n      and\n      dup2\n      jump\t// out\n    tag_24:\n      dataSize(sub_0)\n      dup1\n      dataOffset(sub_0)\n      dup4\n      codecopy\n      add\n      swap1\n      jump\t// out\n        /* \"#utility.yul\":7:121   */\n    tag_31:\n        /* \"#utility.yul\":74:80   */\n      0x00\n        /* \"#utility.yul\":108:113   */\n      dup2\n        /* \"#utility.yul\":102:114   */\n      mload\n        /* \"#utility.yul\":92:114   */\n      swap1\n      pop\n        /* \"#utility.yul\":7:121   */\n      swap2\n      swap1\n      pop\n      jump\t// out\n        /* \"#utility.yul\":127:311   */\n    tag_32:\n        /* \"#utility.yul\":226:237   */\n      0x00\n        /* \"#utility.yul\":260:266   */\n      dup3\n        /* \"#utility.yul\":255:258   */\n      dup3\n        /* \"#utility.yul\":248:267   */\n      mstore\n        /* \"#utility.yul\":300:304   */\n      0x20\n        /* \"#utility.yul\":295:298   */\n      dup3\n        /* \"#utility.yul\":291:305   */\n      add\n        /* \"#utility.yul\":276:305   */\n      swap1\n      pop\n        /* \"#utility.yul\":127:311   */\n      swap3\n      swap2\n      pop\n      pop\n      jump\t// out\n        /* \"#utility.yul\":317:449   */\n    tag_33:\n        /* \"#utility.yul\":384:388   */\n      0x00\n        /* \"#utility.yul\":407:410   */\n      dup2\n        /* \"#utility.yul\":399:410   */\n      swap1\n      pop\n        /* \"#utility.yul\":437:441   */\n      0x20\n        /* \"#utility.yul\":432:435   */\n      dup3\n        /* \"#utility.yul\":428:442   */\n      add\n        /* \"#utility.yul\":420:442   */\n      swap1\n      pop\n        /* \"#utility.yul\":317:449   */\n      swap2\n      swap1\n      pop\n      jump\t// out\n        /* \"#utility.yul\":455:581   */\n    tag_34:\n        /* \"#utility.yul\":492:499   */\n      0x00\n        /* \"#utility.yul\":532:574   */\n      0xffffffffffffffffffffffffffffffffffffffff\n        /* \"#utility.yul\":525:530   */\n      dup3\n        /* \"#utility.yul\":521:575   */\n      and\n        /* \"#utility.yul\":510:575   */\n      swap1\n      pop\n        /* \"#utility.yul\":455:581   */\n      swap2\n      swap1\n      pop\n      jump\t// out\n        /* \"#utility.yul\":587:683   */\n    tag_35:\n        /* \"#utility.yul\":624:631   */\n      0x00\n        /* \"#utility.yul\":653:677   */\n      tag_54\n        /* \"#utility.yul\":671:676   */\n      dup3\n        /* \"#utility.yul\":653:677   */\n      tag_34\n      jump\t// in\n    tag_54:\n        /* \"#utility.yul\":642:677   */\n      swap1\n      pop\n        /* \"#utility.yul\":587:683   */\n      swap2\n      swap1\n      pop\n      jump\t// out\n        /* \"#utility.yul\":689:797   */\n    tag_36:\n        /* \"#utility.yul\":766:790   */\n      tag_56\n        /* \"#utility.yul\":784:789   */\n      dup2\n        /* \"#utility.yul\":766:790   */\n      tag_35\n      jump\t// in\n    tag_56:\n        /* \"#utility.yul\":761:764   */\n      dup3\n        /* \"#utility.yul\":754:791   */\n      mstore\n        /* \"#utility.yul\":689:797   */\n      pop\n      pop\n      jump\t// out\n        /* \"#utility.yul\":803:982   */\n    tag_37:\n        /* \"#utility.yul\":872:882   */\n      0x00\n        /* \"#utility.yul\":893:939   */\n      tag_58\n        /* \"#utility.yul\":935:938   */\n      dup4\n        /* \"#utility.yul\":927:933   */\n      dup4\n        /* \"#utility.yul\":893:939   */\n      tag_36\n      jump\t// in\n    tag_58:\n        /* \"#utility.yul\":971:975   */\n      0x20\n        /* \"#utility.yul\":966:969   */\n      dup4\n        /* \"#utility.yul\":962:976   */\n      add\n        /* \"#utility.yul\":948:976   */\n      swap1\n      pop\n        /* \"#utility.yul\":803:982   */\n      swap3\n      swap2\n      pop\n      pop\n      jump\t// out\n        /* \"#utility.yul\":988:1101   */\n    tag_38:\n        /* \"#utility.yul\":1058:1062   */\n      0x00\n        /* \"#utility.yul\":1090:1094   */\n      0x20\n        /* \"#utility.yul\":1085:1088   */\n      dup3\n        /* \"#utility.yul\":1081:1095   */\n      add\n        /* \"#utility.yul\":1073:1095   */\n      swap1\n      pop\n        /* \"#utility.yul\":988:1101   */\n      swap2\n      swap1\n      pop\n      jump\t// out\n        /* \"#utility.yul\":1137:1869   */\n    tag_39:\n        /* \"#utility.yul\":1256:1259   */\n      0x00\n        /* \"#utility.yul\":1285:1339   */\n      tag_61\n        /* \"#utility.yul\":1333:1338   */\n      dup3\n        /* \"#utility.yul\":1285:1339   */\n      tag_31\n      jump\t// in\n    tag_61:\n        /* \"#utility.yul\":1355:1441   */\n      tag_62\n        /* \"#utility.yul\":1434:1440   */\n      dup2\n        /* \"#utility.yul\":1429:1432   */\n      dup6\n        /* \"#utility.yul\":1355:1441   */\n      tag_32\n      jump\t// in\n    tag_62:\n        /* \"#utility.yul\":1348:1441   */\n      swap4\n      pop\n        /* \"#utility.yul\":1465:1521   */\n      tag_63\n        /* \"#utility.yul\":1515:1520   */\n      dup4\n        /* \"#utility.yul\":1465:1521   */\n      tag_33\n      jump\t// in\n    tag_63:\n        /* \"#utility.yul\":1544:1551   */\n      dup1\n        /* \"#utility.yul\":1575:1576   */\n      0x00\n        /* \"#utility.yul\":1560:1844   */\n    tag_64:\n        /* \"#utility.yul\":1585:1591   */\n      dup4\n        /* \"#utility.yul\":1582:1583   */\n      dup2\n        /* \"#utility.yul\":1579:1592   */\n      lt\n        /* \"#utility.yul\":1560:1844   */\n      iszero\n      tag_66\n      jumpi\n        /* \"#utility.yul\":1661:1667   */\n      dup2\n        /* \"#utility.yul\":1655:1668   */\n      mload\n        /* \"#utility.yul\":1688:1751   */\n      tag_67\n        /* \"#utility.yul\":1747:1750   */\n      dup9\n        /* \"#utility.yul\":1732:1745   */\n      dup3\n        /* \"#utility.yul\":1688:1751   */\n      tag_37\n      jump\t// in\n    tag_67:\n        /* \"#utility.yul\":1681:1751   */\n      swap8\n      pop\n        /* \"#utility.yul\":1774:1834   */\n      tag_68\n        /* \"#utility.yul\":1827:1833   */\n      dup4\n        /* \"#utility.yul\":1774:1834   */\n      tag_38\n      jump\t// in\n    tag_68:\n        /* \"#utility.yul\":1764:1834   */\n      swap3\n      pop\n        /* \"#utility.yul\":1620:1844   */\n      pop\n        /* \"#utility.yul\":1607:1608   */\n      0x01\n        /* \"#utility.yul\":1604:1605   */\n      dup2\n        /* \"#utility.yul\":1600:1609   */\n      add\n        /* \"#utility.yul\":1595:1609   */\n      swap1\n      pop\n        /* \"#utility.yul\":1560:1844   */\n      jump(tag_64)\n    tag_66:\n        /* \"#utility.yul\":1564:1578   */\n      pop\n        /* \"#utility.yul\":1860:1863   */\n      dup6\n        /* \"#utility.yul\":1853:1863   */\n      swap4\n      pop\n        /* \"#utility.yul\":1261:1869   */\n      pop\n      pop\n      pop\n        /* \"#utility.yul\":1137:1869   */\n      swap3\n      swap2\n      pop\n      pop\n      jump\t// out\n        /* \"#utility.yul\":1875:2248   */\n    tag_9:\n        /* \"#utility.yul\":2018:2022   */\n      0x00\n        /* \"#utility.yul\":2056:2058   */\n      0x20\n        /* \"#utility.yul\":2045:2054   */\n      dup3\n        /* \"#utility.yul\":2041:2059   */\n      add\n        /* \"#utility.yul\":2033:2059   */\n      swap1\n      pop\n        /* \"#utility.yul\":2105:2114   */\n      dup2\n        /* \"#utility.yul\":2099:2103   */\n      dup2\n        /* \"#utility.yul\":2095:2115   */\n      sub\n        /* \"#utility.yul\":2091:2092   */\n      0x00\n        /* \"#utility.yul\":2080:2089   */\n      dup4\n        /* \"#utility.yul\":2076:2093   */\n      add\n        /* \"#utility.yul\":2069:2116   */\n      mstore\n        /* \"#utility.yul\":2133:2241   */\n      tag_70\n        /* \"#utility.yul\":2236:2240   */\n      dup2\n        /* \"#utility.yul\":2227:2233   */\n      dup5\n        /* \"#utility.yul\":2133:2241   */\n      tag_39\n      jump\t// in\n    tag_70:\n        /* \"#utility.yul\":2125:2241   */\n      swap1\n      pop\n        /* \"#utility.yul\":1875:2248   */\n      swap3\n      swap2\n      pop\n      pop\n      jump\t// out\n        /* \"#utility.yul\":2335:2452   */\n    tag_41:\n        /* \"#utility.yul\":2444:2445   */\n      0x00\n        /* \"#utility.yul\":2441:2442   */\n      dup1\n        /* \"#utility.yul\":2434:2446   */\n      revert\n        /* \"#utility.yul\":2581:2658   */\n    tag_43:\n        /* \"#utility.yul\":2618:2625   */\n      0x00\n        /* \"#utility.yul\":2647:2652   */\n      dup2\n        /* \"#utility.yul\":2636:2652   */\n      swap1\n      pop\n        /* \"#utility.yul\":2581:2658   */\n      swap2\n      swap1\n      pop\n      jump\t// out\n        /* \"#utility.yul\":2664:2786   */\n    tag_44:\n        /* \"#utility.yul\":2737:2761   */\n      tag_76\n        /* \"#utility.yul\":2755:2760   */\n      dup2\n        /* \"#utility.yul\":2737:2761   */\n      tag_43\n      jump\t// in\n    tag_76:\n        /* \"#utility.yul\":2730:2735   */\n      dup2\n        /* \"#utility.yul\":2727:2762   */\n      eq\n        /* \"#utility.yul\":2717:2780   */\n      tag_77\n      jumpi\n        /* \"#utility.yul\":2776:2777   */\n      0x00\n        /* \"#utility.yul\":2773:2774   */\n      dup1\n        /* \"#utility.yul\":2766:2778   */\n      revert\n        /* \"#utility.yul\":2717:2780   */\n    tag_77:\n        /* \"#utility.yul\":2664:2786   */\n      pop\n      jump\t// out\n        /* \"#utility.yul\":2792:2931   */\n    tag_45:\n        /* \"#utility.yul\":2838:2843   */\n      0x00\n        /* \"#utility.yul\":2876:2882   */\n      dup2\n        /* \"#utility.yul\":2863:2883   */\n      calldataload\n        /* \"#utility.yul\":2854:2883   */\n      swap1\n      pop\n        /* \"#utility.yul\":2892:2925   */\n      tag_79\n        /* \"#utility.yul\":2919:2924   */\n      dup2\n        /* \"#utility.yul\":2892:2925   */\n      tag_44\n      jump\t// in\n    tag_79:\n        /* \"#utility.yul\":2792:2931   */\n      swap3\n      swap2\n      pop\n      pop\n      jump\t// out\n        /* \"#utility.yul\":2937:3266   */\n    tag_12:\n        /* \"#utility.yul\":2996:3002   */\n      0x00\n        /* \"#utility.yul\":3045:3047   */\n      0x20\n        /* \"#utility.yul\":3033:3042   */\n      dup3\n        /* \"#utility.yul\":3024:3031   */\n      dup5\n        /* \"#utility.yul\":3020:3043   */\n      sub\n        /* \"#utility.yul\":3016:3048   */\n      slt\n        /* \"#utility.yul\":3013:3132   */\n      iszero\n      tag_81\n      jumpi\n        /* \"#utility.yul\":3051:3130   */\n      tag_82\n      tag_41\n      jump\t// in\n    tag_82:\n        /* \"#utility.yul\":3013:3132   */\n    tag_81:\n        /* \"#utility.yul\":3171:3172   */\n      0x00\n        /* \"#utility.yul\":3196:3249   */\n      tag_83\n        /* \"#utility.yul\":3241:3248   */\n      dup5\n        /* \"#utility.yul\":3232:3238   */\n      dup3\n        /* \"#utility.yul\":3221:3230   */\n      dup6\n        /* \"#utility.yul\":3217:3239   */\n      add\n        /* \"#utility.yul\":3196:3249   */\n      tag_45\n      jump\t// in\n    tag_83:\n        /* \"#utility.yul\":3186:3249   */\n      swap2\n      pop\n        /* \"#utility.yul\":3142:3259   */\n      pop\n        /* \"#utility.yul\":2937:3266   */\n      swap3\n      swap2\n      pop\n      pop\n      jump\t// out\n        /* \"#utility.yul\":3272:3390   */\n    tag_46:\n        /* \"#utility.yul\":3359:3383   */\n      tag_85\n        /* \"#utility.yul\":3377:3382   */\n      dup2\n        /* \"#utility.yul\":3359:3383   */\n      tag_35\n      jump\t// in\n    tag_85:\n        /* \"#utility.yul\":3354:3357   */\n      dup3\n        /* \"#utility.yul\":3347:3384   */\n      mstore\n        /* \"#utility.yul\":3272:3390   */\n      pop\n      pop\n      jump\t// out\n        /* \"#utility.yul\":3396:3618   */\n    tag_18:\n        /* \"#utility.yul\":3489:3493   */\n      0x00\n        /* \"#utility.yul\":3527:3529   */\n      0x20\n        /* \"#utility.yul\":3516:3525   */\n      dup3\n        /* \"#utility.yul\":3512:3530   */\n      add\n        /* \"#utility.yul\":3504:3530   */\n      swap1\n      pop\n        /* \"#utility.yul\":3540:3611   */\n      tag_87\n        /* \"#utility.yul\":3608:3609   */\n      0x00\n        /* \"#utility.yul\":3597:3606   */\n      dup4\n        /* \"#utility.yul\":3593:3610   */\n      add\n        /* \"#utility.yul\":3584:3590   */\n      dup5\n        /* \"#utility.yul\":3540:3611   */\n      tag_46\n      jump\t// in\n    tag_87:\n        /* \"#utility.yul\":3396:3618   */\n      swap3\n      swap2\n      pop\n      pop\n      jump\t// out\n        /* \"#utility.yul\":3624:3742   */\n    tag_47:\n        /* \"#utility.yul\":3711:3735   */\n      tag_89\n        /* \"#utility.yul\":3729:3734   */\n      dup2\n        /* \"#utility.yul\":3711:3735   */\n      tag_43\n      jump\t// in\n    tag_89:\n        /* \"#utility.yul\":3706:3709   */\n      dup3\n        /* \"#utility.yul\":3699:3736   */\n      mstore\n        /* \"#utility.yul\":3624:3742   */\n      pop\n      pop\n      jump\t// out\n        /* \"#utility.yul\":3748:4080   */\n    tag_26:\n        /* \"#utility.yul\":3869:3873   */\n      0x00\n        /* \"#utility.yul\":3907:3909   */\n      0x40\n        /* \"#utility.yul\":3896:3905   */\n      dup3\n        /* \"#utility.yul\":3892:3910   */\n      add\n        /* \"#utility.yul\":3884:3910   */\n      swap1\n      pop\n        /* \"#utility.yul\":3920:3991   */\n      tag_91\n        /* \"#utility.yul\":3988:3989   */\n      0x00\n        /* \"#utility.yul\":3977:3986   */\n      dup4\n        /* \"#utility.yul\":3973:3990   */\n      add\n        /* \"#utility.yul\":3964:3970   */\n      dup6\n        /* \"#utility.yul\":3920:3991   */\n      tag_47\n      jump\t// in\n    tag_91:\n        /* \"#utility.yul\":4001:4073   */\n      tag_92\n        /* \"#utility.yul\":4069:4071   */\n      0x20\n        /* \"#utility.yul\":4058:4067   */\n      dup4\n        /* \"#utility.yul\":4054:4072   */\n      add\n        /* \"#utility.yul\":4045:4051   */\n      dup5\n        /* \"#utility.yul\":4001:4073   */\n      tag_46\n      jump\t// in\n    tag_92:\n        /* \"#utility.yul\":3748:4080   */\n      swap4\n      swap3\n      pop\n      pop\n      pop\n      jump\t// out\n    stop\n\n    sub_0: assembly {\n            /* \"Compaign.sol\":444:2258  contract Compaign {... */\n          mstore(0x40, 0x80)\n            /* \"Compaign.sol\":974:1114  constructor(uint _minContribution, address creator) {... */\n          callvalue\n          dup1\n          iszero\n          tag_1\n          jumpi\n          0x00\n          dup1\n          revert\n        tag_1:\n          pop\n          mload(0x40)\n          sub(codesize, bytecodeSize)\n          dup1\n          bytecodeSize\n          dup4\n          codecopy\n          dup2\n          dup2\n          add\n          0x40\n          mstore\n          dup2\n          add\n          swap1\n          tag_2\n          swap2\n          swap1\n          tag_3\n          jump\t// in\n        tag_2:\n            /* \"Compaign.sol\":1054:1061  creator */\n          dup1\n            /* \"Compaign.sol\":1036:1043  manager */\n          0x03\n          0x00\n            /* \"Compaign.sol\":1036:1062  manager = payable(creator) */\n          0x0100\n          exp\n          dup2\n          sload\n          dup2\n          0xffffffffffffffffffffffffffffffffffffffff\n          mul\n          not\n          and\n          swap1\n          dup4\n          0xffffffffffffffffffffffffffffffffffffffff\n          and\n          mul\n          or\n          swap1\n          sstore\n          pop\n            /* \"Compaign.sol\":1090:1106  _minContribution */\n          dup2\n            /* \"Compaign.sol\":1072:1087  minContribution */\n          0x02\n            /* \"Compaign.sol\":1072:1106  minContribution = _minContribution */\n          dup2\n          swap1\n          sstore\n          pop\n            /* \"Compaign.sol\":974:1114  constructor(uint _minContribution, address creator) {... */\n          pop\n          pop\n            /* \"Compaign.sol\":444:2258  contract Compaign {... */\n          jump(tag_6)\n            /* \"#utility.yul\":88:205   */\n        tag_8:\n            /* \"#utility.yul\":197:198   */\n          0x00\n            /* \"#utility.yul\":194:195   */\n          dup1\n            /* \"#utility.yul\":187:199   */\n          revert\n            /* \"#utility.yul\":334:411   */\n        tag_10:\n            /* \"#utility.yul\":371:378   */\n          0x00\n            /* \"#utility.yul\":400:405   */\n          dup2\n            /* \"#utility.yul\":389:405   */\n          swap1\n          pop\n            /* \"#utility.yul\":334:411   */\n          swap2\n          swap1\n          pop\n          jump\t// out\n            /* \"#utility.yul\":417:539   */\n        tag_11:\n            /* \"#utility.yul\":490:514   */\n          tag_23\n            /* \"#utility.yul\":508:513   */\n          dup2\n            /* \"#utility.yul\":490:514   */\n          tag_10\n          jump\t// in\n        tag_23:\n            /* \"#utility.yul\":483:488   */\n          dup2\n            /* \"#utility.yul\":480:515   */\n          eq\n            /* \"#utility.yul\":470:533   */\n          tag_24\n          jumpi\n            /* \"#utility.yul\":529:530   */\n          0x00\n            /* \"#utility.yul\":526:527   */\n          dup1\n            /* \"#utility.yul\":519:531   */\n          revert\n            /* \"#utility.yul\":470:533   */\n        tag_24:\n            /* \"#utility.yul\":417:539   */\n          pop\n          jump\t// out\n            /* \"#utility.yul\":545:688   */\n        tag_12:\n            /* \"#utility.yul\":602:607   */\n          0x00\n            /* \"#utility.yul\":633:639   */\n          dup2\n            /* \"#utility.yul\":627:640   */\n          mload\n            /* \"#utility.yul\":618:640   */\n          swap1\n          pop\n            /* \"#utility.yul\":649:682   */\n          tag_26\n            /* \"#utility.yul\":676:681   */\n          dup2\n            /* \"#utility.yul\":649:682   */\n          tag_11\n          jump\t// in\n        tag_26:\n            /* \"#utility.yul\":545:688   */\n          swap3\n          swap2\n          pop\n          pop\n          jump\t// out\n            /* \"#utility.yul\":694:820   */\n        tag_13:\n            /* \"#utility.yul\":731:738   */\n          0x00\n            /* \"#utility.yul\":771:813   */\n          0xffffffffffffffffffffffffffffffffffffffff\n            /* \"#utility.yul\":764:769   */\n          dup3\n            /* \"#utility.yul\":760:814   */\n          and\n            /* \"#utility.yul\":749:814   */\n          swap1\n          pop\n            /* \"#utility.yul\":694:820   */\n          swap2\n          swap1\n          pop\n          jump\t// out\n            /* \"#utility.yul\":826:922   */\n        tag_14:\n            /* \"#utility.yul\":863:870   */\n          0x00\n            /* \"#utility.yul\":892:916   */\n          tag_29\n            /* \"#utility.yul\":910:915   */\n          dup3\n            /* \"#utility.yul\":892:916   */\n          tag_13\n          jump\t// in\n        tag_29:\n            /* \"#utility.yul\":881:916   */\n          swap1\n          pop\n            /* \"#utility.yul\":826:922   */\n          swap2\n          swap1\n          pop\n          jump\t// out\n            /* \"#utility.yul\":928:1050   */\n        tag_15:\n            /* \"#utility.yul\":1001:1025   */\n          tag_31\n            /* \"#utility.yul\":1019:1024   */\n          dup2\n            /* \"#utility.yul\":1001:1025   */\n          tag_14\n          jump\t// in\n        tag_31:\n            /* \"#utility.yul\":994:999   */\n          dup2\n            /* \"#utility.yul\":991:1026   */\n          eq\n            /* \"#utility.yul\":981:1044   */\n          tag_32\n          jumpi\n            /* \"#utility.yul\":1040:1041   */\n          0x00\n            /* \"#utility.yul\":1037:1038   */\n          dup1\n            /* \"#utility.yul\":1030:1042   */\n          revert\n            /* \"#utility.yul\":981:1044   */\n        tag_32:\n            /* \"#utility.yul\":928:1050   */\n          pop\n          jump\t// out\n            /* \"#utility.yul\":1056:1199   */\n        tag_16:\n            /* \"#utility.yul\":1113:1118   */\n          0x00\n            /* \"#utility.yul\":1144:1150   */\n          dup2\n            /* \"#utility.yul\":1138:1151   */\n          mload\n            /* \"#utility.yul\":1129:1151   */\n          swap1\n          pop\n            /* \"#utility.yul\":1160:1193   */\n          tag_34\n            /* \"#utility.yul\":1187:1192   */\n          dup2\n            /* \"#utility.yul\":1160:1193   */\n          tag_15\n          jump\t// in\n        tag_34:\n            /* \"#utility.yul\":1056:1199   */\n          swap3\n          swap2\n          pop\n          pop\n          jump\t// out\n            /* \"#utility.yul\":1205:1712   */\n        tag_3:\n            /* \"#utility.yul\":1284:1290   */\n          0x00\n            /* \"#utility.yul\":1292:1298   */\n          dup1\n            /* \"#utility.yul\":1341:1343   */\n          0x40\n            /* \"#utility.yul\":1329:1338   */\n          dup4\n            /* \"#utility.yul\":1320:1327   */\n          dup6\n            /* \"#utility.yul\":1316:1339   */\n          sub\n            /* \"#utility.yul\":1312:1344   */\n          slt\n            /* \"#utility.yul\":1309:1428   */\n          iszero\n          tag_36\n          jumpi\n            /* \"#utility.yul\":1347:1426   */\n          tag_37\n          tag_8\n          jump\t// in\n        tag_37:\n            /* \"#utility.yul\":1309:1428   */\n        tag_36:\n            /* \"#utility.yul\":1467:1468   */\n          0x00\n            /* \"#utility.yul\":1492:1556   */\n          tag_38\n            /* \"#utility.yul\":1548:1555   */\n          dup6\n            /* \"#utility.yul\":1539:1545   */\n          dup3\n            /* \"#utility.yul\":1528:1537   */\n          dup7\n            /* \"#utility.yul\":1524:1546   */\n          add\n            /* \"#utility.yul\":1492:1556   */\n          tag_12\n          jump\t// in\n        tag_38:\n            /* \"#utility.yul\":1482:1556   */\n          swap3\n          pop\n            /* \"#utility.yul\":1438:1566   */\n          pop\n            /* \"#utility.yul\":1605:1607   */\n          0x20\n            /* \"#utility.yul\":1631:1695   */\n          tag_39\n            /* \"#utility.yul\":1687:1694   */\n          dup6\n            /* \"#utility.yul\":1678:1684   */\n          dup3\n            /* \"#utility.yul\":1667:1676   */\n          dup7\n            /* \"#utility.yul\":1663:1685   */\n          add\n            /* \"#utility.yul\":1631:1695   */\n          tag_16\n          jump\t// in\n        tag_39:\n            /* \"#utility.yul\":1621:1695   */\n          swap2\n          pop\n            /* \"#utility.yul\":1576:1705   */\n          pop\n            /* \"#utility.yul\":1205:1712   */\n          swap3\n          pop\n          swap3\n          swap1\n          pop\n          jump\t// out\n            /* \"Compaign.sol\":444:2258  contract Compaign {... */\n        tag_6:\n          dataSize(sub_0)\n          dup1\n          dataOffset(sub_0)\n          0x00\n          codecopy\n          0x00\n          return\n        stop\n\n        sub_0: assembly {\n                /* \"Compaign.sol\":444:2258  contract Compaign {... */\n              mstore(0x40, 0x80)\n              jumpi(tag_1, lt(calldatasize, 0x04))\n              shr(0xe0, calldataload(0x00))\n              dup1\n              0x82fde093\n              gt\n              tag_11\n              jumpi\n              dup1\n              0x82fde093\n              eq\n              tag_6\n              jumpi\n              dup1\n              0x8a9cfd55\n              eq\n              tag_7\n              jumpi\n              dup1\n              0xaaffadf3\n              eq\n              tag_8\n              jumpi\n              dup1\n              0xd7bb99ba\n              eq\n              tag_9\n              jumpi\n              dup1\n              0xd7d1bbdb\n              eq\n              tag_10\n              jumpi\n              jump(tag_1)\n            tag_11:\n              dup1\n              0x03441006\n              eq\n              tag_2\n              jumpi\n              dup1\n              0x0a144391\n              eq\n              tag_3\n              jumpi\n              dup1\n              0x481c6a75\n              eq\n              tag_4\n              jumpi\n              dup1\n              0x81d12c58\n              eq\n              tag_5\n              jumpi\n            tag_1:\n              0x00\n              dup1\n              revert\n                /* \"Compaign.sol\":1951:2256  function finalizeRequest(uint index) public restricted {... */\n            tag_2:\n              callvalue\n              dup1\n              iszero\n              tag_12\n              jumpi\n              0x00\n              dup1\n              revert\n            tag_12:\n              pop\n              tag_13\n              0x04\n              dup1\n              calldatasize\n              sub\n              dup2\n              add\n              swap1\n              tag_14\n              swap2\n              swap1\n              tag_15\n              jump\t// in\n            tag_14:\n              tag_16\n              jump\t// in\n            tag_13:\n              stop\n                /* \"Compaign.sol\":808:849  mapping(address => bool) public approvers */\n            tag_3:\n              callvalue\n              dup1\n              iszero\n              tag_17\n              jumpi\n              0x00\n              dup1\n              revert\n            tag_17:\n              pop\n              tag_18\n              0x04\n              dup1\n              calldatasize\n              sub\n              dup2\n              add\n              swap1\n              tag_19\n              swap2\n              swap1\n              tag_20\n              jump\t// in\n            tag_19:\n              tag_21\n              jump\t// in\n            tag_18:\n              mload(0x40)\n              tag_22\n              swap2\n              swap1\n              tag_23\n              jump\t// in\n            tag_22:\n              mload(0x40)\n              dup1\n              swap2\n              sub\n              swap1\n              return\n                /* \"Compaign.sol\":772:802  address payable public manager */\n            tag_4:\n              callvalue\n              dup1\n              iszero\n              tag_24\n              jumpi\n              0x00\n              dup1\n              revert\n            tag_24:\n              pop\n              tag_25\n              tag_26\n              jump\t// in\n            tag_25:\n              mload(0x40)\n              tag_27\n              swap2\n              swap1\n              tag_28\n              jump\t// in\n            tag_27:\n              mload(0x40)\n              dup1\n              swap2\n              sub\n              swap1\n              return\n                /* \"Compaign.sol\":688:728  mapping(uint => Request) public requests */\n            tag_5:\n              callvalue\n              dup1\n              iszero\n              tag_29\n              jumpi\n              0x00\n              dup1\n              revert\n            tag_29:\n              pop\n              tag_30\n              0x04\n              dup1\n              calldatasize\n              sub\n              dup2\n              add\n              swap1\n              tag_31\n              swap2\n              swap1\n              tag_15\n              jump\t// in\n            tag_31:\n              tag_32\n              jump\t// in\n            tag_30:\n              mload(0x40)\n              tag_33\n              swap6\n              swap5\n              swap4\n              swap3\n              swap2\n              swap1\n              tag_34\n              jump\t// in\n            tag_33:\n              mload(0x40)\n              dup1\n              swap2\n              sub\n              swap1\n              return\n                /* \"Compaign.sol\":855:881  uint public approversCount */\n            tag_6:\n              callvalue\n              dup1\n              iszero\n              tag_35\n              jumpi\n              0x00\n              dup1\n              revert\n            tag_35:\n              pop\n              tag_36\n              tag_37\n              jump\t// in\n            tag_36:\n              mload(0x40)\n              tag_38\n              swap2\n              swap1\n              tag_39\n              jump\t// in\n            tag_38:\n              mload(0x40)\n              dup1\n              swap2\n              sub\n              swap1\n              return\n                /* \"Compaign.sol\":1281:1659  function createRequest(string memory _description, uint _value, address _recipient) public restricted {... */\n            tag_7:\n              callvalue\n              dup1\n              iszero\n              tag_40\n              jumpi\n              0x00\n              dup1\n              revert\n            tag_40:\n              pop\n              tag_41\n              0x04\n              dup1\n              calldatasize\n              sub\n              dup2\n              add\n              swap1\n              tag_42\n              swap2\n              swap1\n              tag_43\n              jump\t// in\n            tag_42:\n              tag_44\n              jump\t// in\n            tag_41:\n              stop\n                /* \"Compaign.sol\":739:766  uint public minContribution */\n            tag_8:\n              callvalue\n              dup1\n              iszero\n              tag_45\n              jumpi\n              0x00\n              dup1\n              revert\n            tag_45:\n              pop\n              tag_46\n              tag_47\n              jump\t// in\n            tag_46:\n              mload(0x40)\n              tag_48\n              swap2\n              swap1\n              tag_39\n              jump\t// in\n            tag_48:\n              mload(0x40)\n              dup1\n              swap2\n              sub\n              swap1\n              return\n                /* \"Compaign.sol\":1120:1275  function contribute() public payable {... */\n            tag_9:\n              tag_49\n              tag_50\n              jump\t// in\n            tag_49:\n              stop\n                /* \"Compaign.sol\":1665:1945  function approveRequest(uint index) public {... */\n            tag_10:\n              callvalue\n              dup1\n              iszero\n              tag_51\n              jumpi\n              0x00\n              dup1\n              revert\n            tag_51:\n              pop\n              tag_52\n              0x04\n              dup1\n              calldatasize\n              sub\n              dup2\n              add\n              swap1\n              tag_53\n              swap2\n              swap1\n              tag_15\n              jump\t// in\n            tag_53:\n              tag_54\n              jump\t// in\n            tag_52:\n              stop\n                /* \"Compaign.sol\":1951:2256  function finalizeRequest(uint index) public restricted {... */\n            tag_16:\n                /* \"Compaign.sol\":942:949  manager */\n              0x03\n              0x00\n              swap1\n              sload\n              swap1\n              0x0100\n              exp\n              swap1\n              div\n              0xffffffffffffffffffffffffffffffffffffffff\n              and\n                /* \"Compaign.sol\":928:949  msg.sender == manager */\n              0xffffffffffffffffffffffffffffffffffffffff\n              and\n                /* \"Compaign.sol\":928:938  msg.sender */\n              caller\n                /* \"Compaign.sol\":928:949  msg.sender == manager */\n              0xffffffffffffffffffffffffffffffffffffffff\n              and\n              eq\n                /* \"Compaign.sol\":920:950  require(msg.sender == manager) */\n              tag_56\n              jumpi\n              0x00\n              dup1\n              revert\n            tag_56:\n                /* \"Compaign.sol\":2016:2039  Request storage request */\n              0x00\n                /* \"Compaign.sol\":2042:2050  requests */\n              0x01\n                /* \"Compaign.sol\":2042:2057  requests[index] */\n              0x00\n                /* \"Compaign.sol\":2051:2056  index */\n              dup4\n                /* \"Compaign.sol\":2042:2057  requests[index] */\n              dup2\n              mstore\n              0x20\n              add\n              swap1\n              dup2\n              mstore\n              0x20\n              add\n              0x00\n              keccak256\n                /* \"Compaign.sol\":2016:2057  Request storage request = requests[index] */\n              swap1\n              pop\n                /* \"Compaign.sol\":2117:2118  2 */\n              0x02\n                /* \"Compaign.sol\":2100:2114  approversCount */\n              sload(0x05)\n                /* \"Compaign.sol\":2100:2118  approversCount / 2 */\n              tag_58\n              swap2\n              swap1\n              tag_59\n              jump\t// in\n            tag_58:\n                /* \"Compaign.sol\":2076:2083  request */\n              dup2\n                /* \"Compaign.sol\":2076:2097  request.approvalCount */\n              0x04\n              add\n              sload\n                /* \"Compaign.sol\":2076:2118  request.approvalCount > approversCount / 2 */\n              gt\n                /* \"Compaign.sol\":2068:2119  require(request.approvalCount > approversCount / 2) */\n              tag_60\n              jumpi\n              0x00\n              dup1\n              revert\n            tag_60:\n                /* \"Compaign.sol\":2138:2145  request */\n              dup1\n                /* \"Compaign.sol\":2138:2154  request.complete */\n              0x03\n              add\n              0x00\n              swap1\n              sload\n              swap1\n              0x0100\n              exp\n              swap1\n              div\n              0xff\n              and\n                /* \"Compaign.sol\":2137:2154  !request.complete */\n              iszero\n                /* \"Compaign.sol\":2129:2155  require(!request.complete) */\n              tag_61\n              jumpi\n              0x00\n              dup1\n              revert\n            tag_61:\n                /* \"Compaign.sol\":2174:2181  request */\n              dup1\n                /* \"Compaign.sol\":2174:2191  request.recipient */\n              0x01\n              add\n              0x00\n              swap1\n              sload\n              swap1\n              0x0100\n              exp\n              swap1\n              div\n              0xffffffffffffffffffffffffffffffffffffffff\n              and\n                /* \"Compaign.sol\":2166:2201  payable(request.recipient).transfer */\n              0xffffffffffffffffffffffffffffffffffffffff\n              and\n                /* \"Compaign.sol\":2166:2216  payable(request.recipient).transfer(request.value) */\n              0x08fc\n                /* \"Compaign.sol\":2202:2209  request */\n              dup3\n                /* \"Compaign.sol\":2202:2215  request.value */\n              0x02\n              add\n              sload\n                /* \"Compaign.sol\":2166:2216  payable(request.recipient).transfer(request.value) */\n              swap1\n              dup2\n              iszero\n              mul\n              swap1\n              mload(0x40)\n              0x00\n              mload(0x40)\n              dup1\n              dup4\n              sub\n              dup2\n              dup6\n              dup9\n              dup9\n              call\n              swap4\n              pop\n              pop\n              pop\n              pop\n              iszero\n              dup1\n              iszero\n              tag_63\n              jumpi\n              returndatasize\n              0x00\n              dup1\n              returndatacopy\n              revert(0x00, returndatasize)\n            tag_63:\n              pop\n                /* \"Compaign.sol\":2245:2249  true */\n              0x01\n                /* \"Compaign.sol\":2226:2233  request */\n              dup2\n                /* \"Compaign.sol\":2226:2242  request.complete */\n              0x03\n              add\n              0x00\n                /* \"Compaign.sol\":2226:2249  request.complete = true */\n              0x0100\n              exp\n              dup2\n              sload\n              dup2\n              0xff\n              mul\n              not\n              and\n              swap1\n              dup4\n              iszero\n              iszero\n              mul\n              or\n              swap1\n              sstore\n              pop\n                /* \"Compaign.sol\":2006:2256  {... */\n              pop\n                /* \"Compaign.sol\":1951:2256  function finalizeRequest(uint index) public restricted {... */\n              pop\n              jump\t// out\n                /* \"Compaign.sol\":808:849  mapping(address => bool) public approvers */\n            tag_21:\n              mstore(0x20, 0x04)\n              dup1\n              0x00\n              mstore\n              keccak256(0x00, 0x40)\n              0x00\n              swap2\n              pop\n              sload\n              swap1\n              0x0100\n              exp\n              swap1\n              div\n              0xff\n              and\n              dup2\n              jump\t// out\n                /* \"Compaign.sol\":772:802  address payable public manager */\n            tag_26:\n              0x03\n              0x00\n              swap1\n              sload\n              swap1\n              0x0100\n              exp\n              swap1\n              div\n              0xffffffffffffffffffffffffffffffffffffffff\n              and\n              dup2\n              jump\t// out\n                /* \"Compaign.sol\":688:728  mapping(uint => Request) public requests */\n            tag_32:\n              mstore(0x20, 0x01)\n              dup1\n              0x00\n              mstore\n              keccak256(0x00, 0x40)\n              0x00\n              swap2\n              pop\n              swap1\n              pop\n              dup1\n              0x00\n              add\n              dup1\n              sload\n              tag_64\n              swap1\n              tag_65\n              jump\t// in\n            tag_64:\n              dup1\n              0x1f\n              add\n              0x20\n              dup1\n              swap2\n              div\n              mul\n              0x20\n              add\n              mload(0x40)\n              swap1\n              dup2\n              add\n              0x40\n              mstore\n              dup1\n              swap3\n              swap2\n              swap1\n              dup2\n              dup2\n              mstore\n              0x20\n              add\n              dup3\n              dup1\n              sload\n              tag_66\n              swap1\n              tag_65\n              jump\t// in\n            tag_66:\n              dup1\n              iszero\n              tag_67\n              jumpi\n              dup1\n              0x1f\n              lt\n              tag_68\n              jumpi\n              0x0100\n              dup1\n              dup4\n              sload\n              div\n              mul\n              dup4\n              mstore\n              swap2\n              0x20\n              add\n              swap2\n              jump(tag_67)\n            tag_68:\n              dup3\n              add\n              swap2\n              swap1\n              0x00\n              mstore\n              keccak256(0x00, 0x20)\n              swap1\n            tag_69:\n              dup2\n              sload\n              dup2\n              mstore\n              swap1\n              0x01\n              add\n              swap1\n              0x20\n              add\n              dup1\n              dup4\n              gt\n              tag_69\n              jumpi\n              dup3\n              swap1\n              sub\n              0x1f\n              and\n              dup3\n              add\n              swap2\n            tag_67:\n              pop\n              pop\n              pop\n              pop\n              pop\n              swap1\n              dup1\n              0x01\n              add\n              0x00\n              swap1\n              sload\n              swap1\n              0x0100\n              exp\n              swap1\n              div\n              0xffffffffffffffffffffffffffffffffffffffff\n              and\n              swap1\n              dup1\n              0x02\n              add\n              sload\n              swap1\n              dup1\n              0x03\n              add\n              0x00\n              swap1\n              sload\n              swap1\n              0x0100\n              exp\n              swap1\n              div\n              0xff\n              and\n              swap1\n              dup1\n              0x04\n              add\n              sload\n              swap1\n              pop\n              dup6\n              jump\t// out\n                /* \"Compaign.sol\":855:881  uint public approversCount */\n            tag_37:\n              sload(0x05)\n              dup2\n              jump\t// out\n                /* \"Compaign.sol\":1281:1659  function createRequest(string memory _description, uint _value, address _recipient) public restricted {... */\n            tag_44:\n                /* \"Compaign.sol\":942:949  manager */\n              0x03\n              0x00\n              swap1\n              sload\n              swap1\n              0x0100\n              exp\n              swap1\n              div\n              0xffffffffffffffffffffffffffffffffffffffff\n              and\n                /* \"Compaign.sol\":928:949  msg.sender == manager */\n              0xffffffffffffffffffffffffffffffffffffffff\n              and\n                /* \"Compaign.sol\":928:938  msg.sender */\n              caller\n                /* \"Compaign.sol\":928:949  msg.sender == manager */\n              0xffffffffffffffffffffffffffffffffffffffff\n              and\n              eq\n                /* \"Compaign.sol\":920:950  require(msg.sender == manager) */\n              tag_71\n              jumpi\n              0x00\n              dup1\n              revert\n            tag_71:\n                /* \"Compaign.sol\":1393:1419  Request storage newRequest */\n              0x00\n                /* \"Compaign.sol\":1422:1430  requests */\n              0x01\n                /* \"Compaign.sol\":1422:1445  requests[numRequests++] */\n              0x00\n                /* \"Compaign.sol\":1431:1442  numRequests */\n              dup1\n              0x00\n                /* \"Compaign.sol\":1431:1444  numRequests++ */\n              dup2\n              sload\n              dup1\n              swap3\n              swap2\n              swap1\n              tag_73\n              swap1\n              tag_74\n              jump\t// in\n            tag_73:\n              swap2\n              swap1\n              pop\n              sstore\n                /* \"Compaign.sol\":1422:1445  requests[numRequests++] */\n              dup2\n              mstore\n              0x20\n              add\n              swap1\n              dup2\n              mstore\n              0x20\n              add\n              0x00\n              keccak256\n                /* \"Compaign.sol\":1393:1445  Request storage newRequest = requests[numRequests++] */\n              swap1\n              pop\n                /* \"Compaign.sol\":1480:1492  _description */\n              dup4\n                /* \"Compaign.sol\":1455:1465  newRequest */\n              dup2\n                /* \"Compaign.sol\":1455:1477  newRequest.description */\n              0x00\n              add\n                /* \"Compaign.sol\":1455:1492  newRequest.description = _description */\n              swap1\n              dup1\n              mload\n              swap1\n              0x20\n              add\n              swap1\n              tag_75\n              swap3\n              swap2\n              swap1\n              tag_76\n              jump\t// in\n            tag_75:\n              pop\n                /* \"Compaign.sol\":1521:1527  _value */\n              dup3\n                /* \"Compaign.sol\":1502:1512  newRequest */\n              dup2\n                /* \"Compaign.sol\":1502:1518  newRequest.value */\n              0x02\n              add\n                /* \"Compaign.sol\":1502:1527  newRequest.value = _value */\n              dup2\n              swap1\n              sstore\n              pop\n                /* \"Compaign.sol\":1560:1570  _recipient */\n              dup2\n                /* \"Compaign.sol\":1537:1547  newRequest */\n              dup2\n                /* \"Compaign.sol\":1537:1557  newRequest.recipient */\n              0x01\n              add\n              0x00\n                /* \"Compaign.sol\":1537:1570  newRequest.recipient = _recipient */\n              0x0100\n              exp\n              dup2\n              sload\n              dup2\n              0xffffffffffffffffffffffffffffffffffffffff\n              mul\n              not\n              and\n              swap1\n              dup4\n              0xffffffffffffffffffffffffffffffffffffffff\n              and\n              mul\n              or\n              swap1\n              sstore\n              pop\n                /* \"Compaign.sol\":1602:1607  false */\n              0x00\n                /* \"Compaign.sol\":1580:1590  newRequest */\n              dup2\n                /* \"Compaign.sol\":1580:1599  newRequest.complete */\n              0x03\n              add\n              0x00\n                /* \"Compaign.sol\":1580:1607  newRequest.complete = false */\n              0x0100\n              exp\n              dup2\n              sload\n              dup2\n              0xff\n              mul\n              not\n              and\n              swap1\n              dup4\n              iszero\n              iszero\n              mul\n              or\n              swap1\n              sstore\n              pop\n                /* \"Compaign.sol\":1644:1645  0 */\n              0x00\n                /* \"Compaign.sol\":1617:1627  newRequest */\n              dup2\n                /* \"Compaign.sol\":1617:1641  newRequest.approvalCount */\n              0x04\n              add\n                /* \"Compaign.sol\":1617:1645  newRequest.approvalCount = 0 */\n              dup2\n              swap1\n              sstore\n              pop\n                /* \"Compaign.sol\":1383:1659  {... */\n              pop\n                /* \"Compaign.sol\":1281:1659  function createRequest(string memory _description, uint _value, address _recipient) public restricted {... */\n              pop\n              pop\n              pop\n              jump\t// out\n                /* \"Compaign.sol\":739:766  uint public minContribution */\n            tag_47:\n              sload(0x02)\n              dup2\n              jump\t// out\n                /* \"Compaign.sol\":1120:1275  function contribute() public payable {... */\n            tag_50:\n                /* \"Compaign.sol\":1188:1203  minContribution */\n              sload(0x02)\n                /* \"Compaign.sol\":1176:1185  msg.value */\n              callvalue\n                /* \"Compaign.sol\":1176:1203  msg.value > minContribution */\n              gt\n                /* \"Compaign.sol\":1167:1204  require (msg.value > minContribution) */\n              tag_78\n              jumpi\n              0x00\n              dup1\n              revert\n            tag_78:\n                /* \"Compaign.sol\":1238:1242  true */\n              0x01\n                /* \"Compaign.sol\":1214:1223  approvers */\n              0x04\n                /* \"Compaign.sol\":1214:1235  approvers[msg.sender] */\n              0x00\n                /* \"Compaign.sol\":1224:1234  msg.sender */\n              caller\n                /* \"Compaign.sol\":1214:1235  approvers[msg.sender] */\n              0xffffffffffffffffffffffffffffffffffffffff\n              and\n              0xffffffffffffffffffffffffffffffffffffffff\n              and\n              dup2\n              mstore\n              0x20\n              add\n              swap1\n              dup2\n              mstore\n              0x20\n              add\n              0x00\n              keccak256\n              0x00\n                /* \"Compaign.sol\":1214:1242  approvers[msg.sender] = true */\n              0x0100\n              exp\n              dup2\n              sload\n              dup2\n              0xff\n              mul\n              not\n              and\n              swap1\n              dup4\n              iszero\n              iszero\n              mul\n              or\n              swap1\n              sstore\n              pop\n                /* \"Compaign.sol\":1252:1266  approversCount */\n              0x05\n              0x00\n                /* \"Compaign.sol\":1252:1268  approversCount++ */\n              dup2\n              sload\n              dup1\n              swap3\n              swap2\n              swap1\n              tag_79\n              swap1\n              tag_74\n              jump\t// in\n            tag_79:\n              swap2\n              swap1\n              pop\n              sstore\n              pop\n                /* \"Compaign.sol\":1120:1275  function contribute() public payable {... */\n              jump\t// out\n                /* \"Compaign.sol\":1665:1945  function approveRequest(uint index) public {... */\n            tag_54:\n                /* \"Compaign.sol\":1727:1750  Request storage request */\n              0x00\n                /* \"Compaign.sol\":1753:1761  requests */\n              0x01\n                /* \"Compaign.sol\":1753:1768  requests[index] */\n              0x00\n                /* \"Compaign.sol\":1762:1767  index */\n              dup4\n                /* \"Compaign.sol\":1753:1768  requests[index] */\n              dup2\n              mstore\n              0x20\n              add\n              swap1\n              dup2\n              mstore\n              0x20\n              add\n              0x00\n              keccak256\n                /* \"Compaign.sol\":1727:1768  Request storage request = requests[index] */\n              swap1\n              pop\n                /* \"Compaign.sol\":1787:1796  approvers */\n              0x04\n                /* \"Compaign.sol\":1787:1808  approvers[msg.sender] */\n              0x00\n                /* \"Compaign.sol\":1797:1807  msg.sender */\n              caller\n                /* \"Compaign.sol\":1787:1808  approvers[msg.sender] */\n              0xffffffffffffffffffffffffffffffffffffffff\n              and\n              0xffffffffffffffffffffffffffffffffffffffff\n              and\n              dup2\n              mstore\n              0x20\n              add\n              swap1\n              dup2\n              mstore\n              0x20\n              add\n              0x00\n              keccak256\n              0x00\n              swap1\n              sload\n              swap1\n              0x0100\n              exp\n              swap1\n              div\n              0xff\n              and\n                /* \"Compaign.sol\":1779:1809  require(approvers[msg.sender]) */\n              tag_81\n              jumpi\n              0x00\n              dup1\n              revert\n            tag_81:\n                /* \"Compaign.sol\":1828:1835  request */\n              dup1\n                /* \"Compaign.sol\":1828:1845  request.approvals */\n              0x05\n              add\n                /* \"Compaign.sol\":1828:1857  request.approvals[msg.sender] */\n              0x00\n                /* \"Compaign.sol\":1846:1856  msg.sender */\n              caller\n                /* \"Compaign.sol\":1828:1857  request.approvals[msg.sender] */\n              0xffffffffffffffffffffffffffffffffffffffff\n              and\n              0xffffffffffffffffffffffffffffffffffffffff\n              and\n              dup2\n              mstore\n              0x20\n              add\n              swap1\n              dup2\n              mstore\n              0x20\n              add\n              0x00\n              keccak256\n              0x00\n              swap1\n              sload\n              swap1\n              0x0100\n              exp\n              swap1\n              div\n              0xff\n              and\n                /* \"Compaign.sol\":1827:1857  !request.approvals[msg.sender] */\n              iszero\n                /* \"Compaign.sol\":1819:1858  require(!request.approvals[msg.sender]) */\n              tag_82\n              jumpi\n              0x00\n              dup1\n              revert\n            tag_82:\n                /* \"Compaign.sol\":1901:1905  true */\n              0x01\n                /* \"Compaign.sol\":1869:1876  request */\n              dup2\n                /* \"Compaign.sol\":1869:1886  request.approvals */\n              0x05\n              add\n                /* \"Compaign.sol\":1869:1898  request.approvals[msg.sender] */\n              0x00\n                /* \"Compaign.sol\":1887:1897  msg.sender */\n              caller\n                /* \"Compaign.sol\":1869:1898  request.approvals[msg.sender] */\n              0xffffffffffffffffffffffffffffffffffffffff\n              and\n              0xffffffffffffffffffffffffffffffffffffffff\n              and\n              dup2\n              mstore\n              0x20\n              add\n              swap1\n              dup2\n              mstore\n              0x20\n              add\n              0x00\n              keccak256\n              0x00\n                /* \"Compaign.sol\":1869:1905  request.approvals[msg.sender] = true */\n              0x0100\n              exp\n              dup2\n              sload\n              dup2\n              0xff\n              mul\n              not\n              and\n              swap1\n              dup4\n              iszero\n              iszero\n              mul\n              or\n              swap1\n              sstore\n              pop\n                /* \"Compaign.sol\":1915:1922  request */\n              dup1\n                /* \"Compaign.sol\":1915:1936  request.approvalCount */\n              0x04\n              add\n              0x00\n                /* \"Compaign.sol\":1915:1938  request.approvalCount++ */\n              dup2\n              sload\n              dup1\n              swap3\n              swap2\n              swap1\n              tag_83\n              swap1\n              tag_74\n              jump\t// in\n            tag_83:\n              swap2\n              swap1\n              pop\n              sstore\n              pop\n                /* \"Compaign.sol\":1708:1945  {... */\n              pop\n                /* \"Compaign.sol\":1665:1945  function approveRequest(uint index) public {... */\n              pop\n              jump\t// out\n            tag_76:\n              dup3\n              dup1\n              sload\n              tag_84\n              swap1\n              tag_65\n              jump\t// in\n            tag_84:\n              swap1\n              0x00\n              mstore\n              keccak256(0x00, 0x20)\n              swap1\n              0x1f\n              add\n              0x20\n              swap1\n              div\n              dup2\n              add\n              swap3\n              dup3\n              tag_86\n              jumpi\n              0x00\n              dup6\n              sstore\n              jump(tag_85)\n            tag_86:\n              dup3\n              0x1f\n              lt\n              tag_87\n              jumpi\n              dup1\n              mload\n              not(0xff)\n              and\n              dup4\n              dup1\n              add\n              or\n              dup6\n              sstore\n              jump(tag_85)\n            tag_87:\n              dup3\n              dup1\n              add\n              0x01\n              add\n              dup6\n              sstore\n              dup3\n              iszero\n              tag_85\n              jumpi\n              swap2\n              dup3\n              add\n            tag_88:\n              dup3\n              dup2\n              gt\n              iszero\n              tag_89\n              jumpi\n              dup3\n              mload\n              dup3\n              sstore\n              swap2\n              0x20\n              add\n              swap2\n              swap1\n              0x01\n              add\n              swap1\n              jump(tag_88)\n            tag_89:\n            tag_85:\n              pop\n              swap1\n              pop\n              tag_90\n              swap2\n              swap1\n              tag_91\n              jump\t// in\n            tag_90:\n              pop\n              swap1\n              jump\t// out\n            tag_91:\n            tag_92:\n              dup1\n              dup3\n              gt\n              iszero\n              tag_93\n              jumpi\n              0x00\n              dup2\n              0x00\n              swap1\n              sstore\n              pop\n              0x01\n              add\n              jump(tag_92)\n            tag_93:\n              pop\n              swap1\n              jump\t// out\n                /* \"#utility.yul\":7:82   */\n            tag_94:\n                /* \"#utility.yul\":40:46   */\n              0x00\n                /* \"#utility.yul\":73:75   */\n              0x40\n                /* \"#utility.yul\":67:76   */\n              mload\n                /* \"#utility.yul\":57:76   */\n              swap1\n              pop\n                /* \"#utility.yul\":7:82   */\n              swap1\n              jump\t// out\n                /* \"#utility.yul\":88:205   */\n            tag_95:\n                /* \"#utility.yul\":197:198   */\n              0x00\n                /* \"#utility.yul\":194:195   */\n              dup1\n                /* \"#utility.yul\":187:199   */\n              revert\n                /* \"#utility.yul\":211:328   */\n            tag_96:\n                /* \"#utility.yul\":320:321   */\n              0x00\n                /* \"#utility.yul\":317:318   */\n              dup1\n                /* \"#utility.yul\":310:322   */\n              revert\n                /* \"#utility.yul\":334:411   */\n            tag_97:\n                /* \"#utility.yul\":371:378   */\n              0x00\n                /* \"#utility.yul\":400:405   */\n              dup2\n                /* \"#utility.yul\":389:405   */\n              swap1\n              pop\n                /* \"#utility.yul\":334:411   */\n              swap2\n              swap1\n              pop\n              jump\t// out\n                /* \"#utility.yul\":417:539   */\n            tag_98:\n                /* \"#utility.yul\":490:514   */\n              tag_133\n                /* \"#utility.yul\":508:513   */\n              dup2\n                /* \"#utility.yul\":490:514   */\n              tag_97\n              jump\t// in\n            tag_133:\n                /* \"#utility.yul\":483:488   */\n              dup2\n                /* \"#utility.yul\":480:515   */\n              eq\n                /* \"#utility.yul\":470:533   */\n              tag_134\n              jumpi\n                /* \"#utility.yul\":529:530   */\n              0x00\n                /* \"#utility.yul\":526:527   */\n              dup1\n                /* \"#utility.yul\":519:531   */\n              revert\n                /* \"#utility.yul\":470:533   */\n            tag_134:\n                /* \"#utility.yul\":417:539   */\n              pop\n              jump\t// out\n                /* \"#utility.yul\":545:684   */\n            tag_99:\n                /* \"#utility.yul\":591:596   */\n              0x00\n                /* \"#utility.yul\":629:635   */\n              dup2\n                /* \"#utility.yul\":616:636   */\n              calldataload\n                /* \"#utility.yul\":607:636   */\n              swap1\n              pop\n                /* \"#utility.yul\":645:678   */\n              tag_136\n                /* \"#utility.yul\":672:677   */\n              dup2\n                /* \"#utility.yul\":645:678   */\n              tag_98\n              jump\t// in\n            tag_136:\n                /* \"#utility.yul\":545:684   */\n              swap3\n              swap2\n              pop\n              pop\n              jump\t// out\n                /* \"#utility.yul\":690:1019   */\n            tag_15:\n                /* \"#utility.yul\":749:755   */\n              0x00\n                /* \"#utility.yul\":798:800   */\n              0x20\n                /* \"#utility.yul\":786:795   */\n              dup3\n                /* \"#utility.yul\":777:784   */\n              dup5\n                /* \"#utility.yul\":773:796   */\n              sub\n                /* \"#utility.yul\":769:801   */\n              slt\n                /* \"#utility.yul\":766:885   */\n              iszero\n              tag_138\n              jumpi\n                /* \"#utility.yul\":804:883   */\n              tag_139\n              tag_95\n              jump\t// in\n            tag_139:\n                /* \"#utility.yul\":766:885   */\n            tag_138:\n                /* \"#utility.yul\":924:925   */\n              0x00\n                /* \"#utility.yul\":949:1002   */\n              tag_140\n                /* \"#utility.yul\":994:1001   */\n              dup5\n                /* \"#utility.yul\":985:991   */\n              dup3\n                /* \"#utility.yul\":974:983   */\n              dup6\n                /* \"#utility.yul\":970:992   */\n              add\n                /* \"#utility.yul\":949:1002   */\n              tag_99\n              jump\t// in\n            tag_140:\n                /* \"#utility.yul\":939:1002   */\n              swap2\n              pop\n                /* \"#utility.yul\":895:1012   */\n              pop\n                /* \"#utility.yul\":690:1019   */\n              swap3\n              swap2\n              pop\n              pop\n              jump\t// out\n                /* \"#utility.yul\":1025:1151   */\n            tag_100:\n                /* \"#utility.yul\":1062:1069   */\n              0x00\n                /* \"#utility.yul\":1102:1144   */\n              0xffffffffffffffffffffffffffffffffffffffff\n                /* \"#utility.yul\":1095:1100   */\n              dup3\n                /* \"#utility.yul\":1091:1145   */\n              and\n                /* \"#utility.yul\":1080:1145   */\n              swap1\n              pop\n                /* \"#utility.yul\":1025:1151   */\n              swap2\n              swap1\n              pop\n              jump\t// out\n                /* \"#utility.yul\":1157:1253   */\n            tag_101:\n                /* \"#utility.yul\":1194:1201   */\n              0x00\n                /* \"#utility.yul\":1223:1247   */\n              tag_143\n                /* \"#utility.yul\":1241:1246   */\n              dup3\n                /* \"#utility.yul\":1223:1247   */\n              tag_100\n              jump\t// in\n            tag_143:\n                /* \"#utility.yul\":1212:1247   */\n              swap1\n              pop\n                /* \"#utility.yul\":1157:1253   */\n              swap2\n              swap1\n              pop\n              jump\t// out\n                /* \"#utility.yul\":1259:1381   */\n            tag_102:\n                /* \"#utility.yul\":1332:1356   */\n              tag_145\n                /* \"#utility.yul\":1350:1355   */\n              dup2\n                /* \"#utility.yul\":1332:1356   */\n              tag_101\n              jump\t// in\n            tag_145:\n                /* \"#utility.yul\":1325:1330   */\n              dup2\n                /* \"#utility.yul\":1322:1357   */\n              eq\n                /* \"#utility.yul\":1312:1375   */\n              tag_146\n              jumpi\n                /* \"#utility.yul\":1371:1372   */\n              0x00\n                /* \"#utility.yul\":1368:1369   */\n              dup1\n                /* \"#utility.yul\":1361:1373   */\n              revert\n                /* \"#utility.yul\":1312:1375   */\n            tag_146:\n                /* \"#utility.yul\":1259:1381   */\n              pop\n              jump\t// out\n                /* \"#utility.yul\":1387:1526   */\n            tag_103:\n                /* \"#utility.yul\":1433:1438   */\n              0x00\n                /* \"#utility.yul\":1471:1477   */\n              dup2\n                /* \"#utility.yul\":1458:1478   */\n              calldataload\n                /* \"#utility.yul\":1449:1478   */\n              swap1\n              pop\n                /* \"#utility.yul\":1487:1520   */\n              tag_148\n                /* \"#utility.yul\":1514:1519   */\n              dup2\n                /* \"#utility.yul\":1487:1520   */\n              tag_102\n              jump\t// in\n            tag_148:\n                /* \"#utility.yul\":1387:1526   */\n              swap3\n              swap2\n              pop\n              pop\n              jump\t// out\n                /* \"#utility.yul\":1532:1861   */\n            tag_20:\n                /* \"#utility.yul\":1591:1597   */\n              0x00\n                /* \"#utility.yul\":1640:1642   */\n              0x20\n                /* \"#utility.yul\":1628:1637   */\n              dup3\n                /* \"#utility.yul\":1619:1626   */\n              dup5\n                /* \"#utility.yul\":1615:1638   */\n              sub\n                /* \"#utility.yul\":1611:1643   */\n              slt\n                /* \"#utility.yul\":1608:1727   */\n              iszero\n              tag_150\n              jumpi\n                /* \"#utility.yul\":1646:1725   */\n              tag_151\n              tag_95\n              jump\t// in\n            tag_151:\n                /* \"#utility.yul\":1608:1727   */\n            tag_150:\n                /* \"#utility.yul\":1766:1767   */\n              0x00\n                /* \"#utility.yul\":1791:1844   */\n              tag_152\n                /* \"#utility.yul\":1836:1843   */\n              dup5\n                /* \"#utility.yul\":1827:1833   */\n              dup3\n                /* \"#utility.yul\":1816:1825   */\n              dup6\n                /* \"#utility.yul\":1812:1834   */\n              add\n                /* \"#utility.yul\":1791:1844   */\n              tag_103\n              jump\t// in\n            tag_152:\n                /* \"#utility.yul\":1781:1844   */\n              swap2\n              pop\n                /* \"#utility.yul\":1737:1854   */\n              pop\n                /* \"#utility.yul\":1532:1861   */\n              swap3\n              swap2\n              pop\n              pop\n              jump\t// out\n                /* \"#utility.yul\":1867:1957   */\n            tag_104:\n                /* \"#utility.yul\":1901:1908   */\n              0x00\n                /* \"#utility.yul\":1944:1949   */\n              dup2\n                /* \"#utility.yul\":1937:1950   */\n              iszero\n                /* \"#utility.yul\":1930:1951   */\n              iszero\n                /* \"#utility.yul\":1919:1951   */\n              swap1\n              pop\n                /* \"#utility.yul\":1867:1957   */\n              swap2\n              swap1\n              pop\n              jump\t// out\n                /* \"#utility.yul\":1963:2072   */\n            tag_105:\n                /* \"#utility.yul\":2044:2065   */\n              tag_155\n                /* \"#utility.yul\":2059:2064   */\n              dup2\n                /* \"#utility.yul\":2044:2065   */\n              tag_104\n              jump\t// in\n            tag_155:\n                /* \"#utility.yul\":2039:2042   */\n              dup3\n                /* \"#utility.yul\":2032:2066   */\n              mstore\n                /* \"#utility.yul\":1963:2072   */\n              pop\n              pop\n              jump\t// out\n                /* \"#utility.yul\":2078:2288   */\n            tag_23:\n                /* \"#utility.yul\":2165:2169   */\n              0x00\n                /* \"#utility.yul\":2203:2205   */\n              0x20\n                /* \"#utility.yul\":2192:2201   */\n              dup3\n                /* \"#utility.yul\":2188:2206   */\n              add\n                /* \"#utility.yul\":2180:2206   */\n              swap1\n              pop\n                /* \"#utility.yul\":2216:2281   */\n              tag_157\n                /* \"#utility.yul\":2278:2279   */\n              0x00\n                /* \"#utility.yul\":2267:2276   */\n              dup4\n                /* \"#utility.yul\":2263:2280   */\n              add\n                /* \"#utility.yul\":2254:2260   */\n              dup5\n                /* \"#utility.yul\":2216:2281   */\n              tag_105\n              jump\t// in\n            tag_157:\n                /* \"#utility.yul\":2078:2288   */\n              swap3\n              swap2\n              pop\n              pop\n              jump\t// out\n                /* \"#utility.yul\":2294:2398   */\n            tag_106:\n                /* \"#utility.yul\":2339:2346   */\n              0x00\n                /* \"#utility.yul\":2368:2392   */\n              tag_159\n                /* \"#utility.yul\":2386:2391   */\n              dup3\n                /* \"#utility.yul\":2368:2392   */\n              tag_100\n              jump\t// in\n            tag_159:\n                /* \"#utility.yul\":2357:2392   */\n              swap1\n              pop\n                /* \"#utility.yul\":2294:2398   */\n              swap2\n              swap1\n              pop\n              jump\t// out\n                /* \"#utility.yul\":2404:2546   */\n            tag_107:\n                /* \"#utility.yul\":2507:2539   */\n              tag_161\n                /* \"#utility.yul\":2533:2538   */\n              dup2\n                /* \"#utility.yul\":2507:2539   */\n              tag_106\n              jump\t// in\n            tag_161:\n                /* \"#utility.yul\":2502:2505   */\n              dup3\n                /* \"#utility.yul\":2495:2540   */\n              mstore\n                /* \"#utility.yul\":2404:2546   */\n              pop\n              pop\n              jump\t// out\n                /* \"#utility.yul\":2552:2806   */\n            tag_28:\n                /* \"#utility.yul\":2661:2665   */\n              0x00\n                /* \"#utility.yul\":2699:2701   */\n              0x20\n                /* \"#utility.yul\":2688:2697   */\n              dup3\n                /* \"#utility.yul\":2684:2702   */\n              add\n                /* \"#utility.yul\":2676:2702   */\n              swap1\n              pop\n                /* \"#utility.yul\":2712:2799   */\n              tag_163\n                /* \"#utility.yul\":2796:2797   */\n              0x00\n                /* \"#utility.yul\":2785:2794   */\n              dup4\n                /* \"#utility.yul\":2781:2798   */\n              add\n                /* \"#utility.yul\":2772:2778   */\n              dup5\n                /* \"#utility.yul\":2712:2799   */\n              tag_107\n              jump\t// in\n            tag_163:\n                /* \"#utility.yul\":2552:2806   */\n              swap3\n              swap2\n              pop\n              pop\n              jump\t// out\n                /* \"#utility.yul\":2812:2911   */\n            tag_108:\n                /* \"#utility.yul\":2864:2870   */\n              0x00\n                /* \"#utility.yul\":2898:2903   */\n              dup2\n                /* \"#utility.yul\":2892:2904   */\n              mload\n                /* \"#utility.yul\":2882:2904   */\n              swap1\n              pop\n                /* \"#utility.yul\":2812:2911   */\n              swap2\n              swap1\n              pop\n              jump\t// out\n                /* \"#utility.yul\":2917:3086   */\n            tag_109:\n                /* \"#utility.yul\":3001:3012   */\n              0x00\n                /* \"#utility.yul\":3035:3041   */\n              dup3\n                /* \"#utility.yul\":3030:3033   */\n              dup3\n                /* \"#utility.yul\":3023:3042   */\n              mstore\n                /* \"#utility.yul\":3075:3079   */\n              0x20\n                /* \"#utility.yul\":3070:3073   */\n              dup3\n                /* \"#utility.yul\":3066:3080   */\n              add\n                /* \"#utility.yul\":3051:3080   */\n              swap1\n              pop\n                /* \"#utility.yul\":2917:3086   */\n              swap3\n              swap2\n              pop\n              pop\n              jump\t// out\n                /* \"#utility.yul\":3092:3399   */\n            tag_110:\n                /* \"#utility.yul\":3160:3161   */\n              0x00\n                /* \"#utility.yul\":3170:3283   */\n            tag_167:\n                /* \"#utility.yul\":3184:3190   */\n              dup4\n                /* \"#utility.yul\":3181:3182   */\n              dup2\n                /* \"#utility.yul\":3178:3191   */\n              lt\n                /* \"#utility.yul\":3170:3283   */\n              iszero\n              tag_169\n              jumpi\n                /* \"#utility.yul\":3269:3270   */\n              dup1\n                /* \"#utility.yul\":3264:3267   */\n              dup3\n                /* \"#utility.yul\":3260:3271   */\n              add\n                /* \"#utility.yul\":3254:3272   */\n              mload\n                /* \"#utility.yul\":3250:3251   */\n              dup2\n                /* \"#utility.yul\":3245:3248   */\n              dup5\n                /* \"#utility.yul\":3241:3252   */\n              add\n                /* \"#utility.yul\":3234:3273   */\n              mstore\n                /* \"#utility.yul\":3206:3208   */\n              0x20\n                /* \"#utility.yul\":3203:3204   */\n              dup2\n                /* \"#utility.yul\":3199:3209   */\n              add\n                /* \"#utility.yul\":3194:3209   */\n              swap1\n              pop\n                /* \"#utility.yul\":3170:3283   */\n              jump(tag_167)\n            tag_169:\n                /* \"#utility.yul\":3301:3307   */\n              dup4\n                /* \"#utility.yul\":3298:3299   */\n              dup2\n                /* \"#utility.yul\":3295:3308   */\n              gt\n                /* \"#utility.yul\":3292:3393   */\n              iszero\n              tag_170\n              jumpi\n                /* \"#utility.yul\":3381:3382   */\n              0x00\n                /* \"#utility.yul\":3372:3378   */\n              dup5\n                /* \"#utility.yul\":3367:3370   */\n              dup5\n                /* \"#utility.yul\":3363:3379   */\n              add\n                /* \"#utility.yul\":3356:3383   */\n              mstore\n                /* \"#utility.yul\":3292:3393   */\n            tag_170:\n                /* \"#utility.yul\":3141:3399   */\n              pop\n                /* \"#utility.yul\":3092:3399   */\n              pop\n              pop\n              pop\n              jump\t// out\n                /* \"#utility.yul\":3405:3507   */\n            tag_111:\n                /* \"#utility.yul\":3446:3452   */\n              0x00\n                /* \"#utility.yul\":3497:3499   */\n              0x1f\n                /* \"#utility.yul\":3493:3500   */\n              not\n                /* \"#utility.yul\":3488:3490   */\n              0x1f\n                /* \"#utility.yul\":3481:3486   */\n              dup4\n                /* \"#utility.yul\":3477:3491   */\n              add\n                /* \"#utility.yul\":3473:3501   */\n              and\n                /* \"#utility.yul\":3463:3501   */\n              swap1\n              pop\n                /* \"#utility.yul\":3405:3507   */\n              swap2\n              swap1\n              pop\n              jump\t// out\n                /* \"#utility.yul\":3513:3877   */\n            tag_112:\n                /* \"#utility.yul\":3601:3604   */\n              0x00\n                /* \"#utility.yul\":3629:3668   */\n              tag_173\n                /* \"#utility.yul\":3662:3667   */\n              dup3\n                /* \"#utility.yul\":3629:3668   */\n              tag_108\n              jump\t// in\n            tag_173:\n                /* \"#utility.yul\":3684:3755   */\n              tag_174\n                /* \"#utility.yul\":3748:3754   */\n              dup2\n                /* \"#utility.yul\":3743:3746   */\n              dup6\n                /* \"#utility.yul\":3684:3755   */\n              tag_109\n              jump\t// in\n            tag_174:\n                /* \"#utility.yul\":3677:3755   */\n              swap4\n              pop\n                /* \"#utility.yul\":3764:3816   */\n              tag_175\n                /* \"#utility.yul\":3809:3815   */\n              dup2\n                /* \"#utility.yul\":3804:3807   */\n              dup6\n                /* \"#utility.yul\":3797:3801   */\n              0x20\n                /* \"#utility.yul\":3790:3795   */\n              dup7\n                /* \"#utility.yul\":3786:3802   */\n              add\n                /* \"#utility.yul\":3764:3816   */\n              tag_110\n              jump\t// in\n            tag_175:\n                /* \"#utility.yul\":3841:3870   */\n              tag_176\n                /* \"#utility.yul\":3863:3869   */\n              dup2\n                /* \"#utility.yul\":3841:3870   */\n              tag_111\n              jump\t// in\n            tag_176:\n                /* \"#utility.yul\":3836:3839   */\n              dup5\n                /* \"#utility.yul\":3832:3871   */\n              add\n                /* \"#utility.yul\":3825:3871   */\n              swap2\n              pop\n                /* \"#utility.yul\":3605:3877   */\n              pop\n                /* \"#utility.yul\":3513:3877   */\n              swap3\n              swap2\n              pop\n              pop\n              jump\t// out\n                /* \"#utility.yul\":3883:4001   */\n            tag_113:\n                /* \"#utility.yul\":3970:3994   */\n              tag_178\n                /* \"#utility.yul\":3988:3993   */\n              dup2\n                /* \"#utility.yul\":3970:3994   */\n              tag_101\n              jump\t// in\n            tag_178:\n                /* \"#utility.yul\":3965:3968   */\n              dup3\n                /* \"#utility.yul\":3958:3995   */\n              mstore\n                /* \"#utility.yul\":3883:4001   */\n              pop\n              pop\n              jump\t// out\n                /* \"#utility.yul\":4007:4125   */\n            tag_114:\n                /* \"#utility.yul\":4094:4118   */\n              tag_180\n                /* \"#utility.yul\":4112:4117   */\n              dup2\n                /* \"#utility.yul\":4094:4118   */\n              tag_97\n              jump\t// in\n            tag_180:\n                /* \"#utility.yul\":4089:4092   */\n              dup3\n                /* \"#utility.yul\":4082:4119   */\n              mstore\n                /* \"#utility.yul\":4007:4125   */\n              pop\n              pop\n              jump\t// out\n                /* \"#utility.yul\":4131:4874   */\n            tag_34:\n                /* \"#utility.yul\":4350:4354   */\n              0x00\n                /* \"#utility.yul\":4388:4391   */\n              0xa0\n                /* \"#utility.yul\":4377:4386   */\n              dup3\n                /* \"#utility.yul\":4373:4392   */\n              add\n                /* \"#utility.yul\":4365:4392   */\n              swap1\n              pop\n                /* \"#utility.yul\":4438:4447   */\n              dup2\n                /* \"#utility.yul\":4432:4436   */\n              dup2\n                /* \"#utility.yul\":4428:4448   */\n              sub\n                /* \"#utility.yul\":4424:4425   */\n              0x00\n                /* \"#utility.yul\":4413:4422   */\n              dup4\n                /* \"#utility.yul\":4409:4426   */\n              add\n                /* \"#utility.yul\":4402:4449   */\n              mstore\n                /* \"#utility.yul\":4466:4544   */\n              tag_182\n                /* \"#utility.yul\":4539:4543   */\n              dup2\n                /* \"#utility.yul\":4530:4536   */\n              dup9\n                /* \"#utility.yul\":4466:4544   */\n              tag_112\n              jump\t// in\n            tag_182:\n                /* \"#utility.yul\":4458:4544   */\n              swap1\n              pop\n                /* \"#utility.yul\":4554:4626   */\n              tag_183\n                /* \"#utility.yul\":4622:4624   */\n              0x20\n                /* \"#utility.yul\":4611:4620   */\n              dup4\n                /* \"#utility.yul\":4607:4625   */\n              add\n                /* \"#utility.yul\":4598:4604   */\n              dup8\n                /* \"#utility.yul\":4554:4626   */\n              tag_113\n              jump\t// in\n            tag_183:\n                /* \"#utility.yul\":4636:4708   */\n              tag_184\n                /* \"#utility.yul\":4704:4706   */\n              0x40\n                /* \"#utility.yul\":4693:4702   */\n              dup4\n                /* \"#utility.yul\":4689:4707   */\n              add\n                /* \"#utility.yul\":4680:4686   */\n              dup7\n                /* \"#utility.yul\":4636:4708   */\n              tag_114\n              jump\t// in\n            tag_184:\n                /* \"#utility.yul\":4718:4784   */\n              tag_185\n                /* \"#utility.yul\":4780:4782   */\n              0x60\n                /* \"#utility.yul\":4769:4778   */\n              dup4\n                /* \"#utility.yul\":4765:4783   */\n              add\n                /* \"#utility.yul\":4756:4762   */\n              dup6\n                /* \"#utility.yul\":4718:4784   */\n              tag_105\n              jump\t// in\n            tag_185:\n                /* \"#utility.yul\":4794:4867   */\n              tag_186\n                /* \"#utility.yul\":4862:4865   */\n              0x80\n                /* \"#utility.yul\":4851:4860   */\n              dup4\n                /* \"#utility.yul\":4847:4866   */\n              add\n                /* \"#utility.yul\":4838:4844   */\n              dup5\n                /* \"#utility.yul\":4794:4867   */\n              tag_114\n              jump\t// in\n            tag_186:\n                /* \"#utility.yul\":4131:4874   */\n              swap7\n              swap6\n              pop\n              pop\n              pop\n              pop\n              pop\n              pop\n              jump\t// out\n                /* \"#utility.yul\":4880:5102   */\n            tag_39:\n                /* \"#utility.yul\":4973:4977   */\n              0x00\n                /* \"#utility.yul\":5011:5013   */\n              0x20\n                /* \"#utility.yul\":5000:5009   */\n              dup3\n                /* \"#utility.yul\":4996:5014   */\n              add\n                /* \"#utility.yul\":4988:5014   */\n              swap1\n              pop\n                /* \"#utility.yul\":5024:5095   */\n              tag_188\n                /* \"#utility.yul\":5092:5093   */\n              0x00\n                /* \"#utility.yul\":5081:5090   */\n              dup4\n                /* \"#utility.yul\":5077:5094   */\n              add\n                /* \"#utility.yul\":5068:5074   */\n              dup5\n                /* \"#utility.yul\":5024:5095   */\n              tag_114\n              jump\t// in\n            tag_188:\n                /* \"#utility.yul\":4880:5102   */\n              swap3\n              swap2\n              pop\n              pop\n              jump\t// out\n                /* \"#utility.yul\":5108:5225   */\n            tag_115:\n                /* \"#utility.yul\":5217:5218   */\n              0x00\n                /* \"#utility.yul\":5214:5215   */\n              dup1\n                /* \"#utility.yul\":5207:5219   */\n              revert\n                /* \"#utility.yul\":5231:5348   */\n            tag_116:\n                /* \"#utility.yul\":5340:5341   */\n              0x00\n                /* \"#utility.yul\":5337:5338   */\n              dup1\n                /* \"#utility.yul\":5330:5342   */\n              revert\n                /* \"#utility.yul\":5354:5534   */\n            tag_117:\n                /* \"#utility.yul\":5402:5479   */\n              0x4e487b7100000000000000000000000000000000000000000000000000000000\n                /* \"#utility.yul\":5399:5400   */\n              0x00\n                /* \"#utility.yul\":5392:5480   */\n              mstore\n                /* \"#utility.yul\":5499:5503   */\n              0x41\n                /* \"#utility.yul\":5496:5497   */\n              0x04\n                /* \"#utility.yul\":5489:5504   */\n              mstore\n                /* \"#utility.yul\":5523:5527   */\n              0x24\n                /* \"#utility.yul\":5520:5521   */\n              0x00\n                /* \"#utility.yul\":5513:5528   */\n              revert\n                /* \"#utility.yul\":5540:5821   */\n            tag_118:\n                /* \"#utility.yul\":5623:5650   */\n              tag_193\n                /* \"#utility.yul\":5645:5649   */\n              dup3\n                /* \"#utility.yul\":5623:5650   */\n              tag_111\n              jump\t// in\n            tag_193:\n                /* \"#utility.yul\":5615:5621   */\n              dup2\n                /* \"#utility.yul\":5611:5651   */\n              add\n                /* \"#utility.yul\":5753:5759   */\n              dup2\n                /* \"#utility.yul\":5741:5751   */\n              dup2\n                /* \"#utility.yul\":5738:5760   */\n              lt\n                /* \"#utility.yul\":5717:5735   */\n              0xffffffffffffffff\n                /* \"#utility.yul\":5705:5715   */\n              dup3\n                /* \"#utility.yul\":5702:5736   */\n              gt\n                /* \"#utility.yul\":5699:5761   */\n              or\n                /* \"#utility.yul\":5696:5784   */\n              iszero\n              tag_194\n              jumpi\n                /* \"#utility.yul\":5764:5782   */\n              tag_195\n              tag_117\n              jump\t// in\n            tag_195:\n                /* \"#utility.yul\":5696:5784   */\n            tag_194:\n                /* \"#utility.yul\":5804:5814   */\n              dup1\n                /* \"#utility.yul\":5800:5802   */\n              0x40\n                /* \"#utility.yul\":5793:5815   */\n              mstore\n                /* \"#utility.yul\":5583:5821   */\n              pop\n                /* \"#utility.yul\":5540:5821   */\n              pop\n              pop\n              jump\t// out\n                /* \"#utility.yul\":5827:5956   */\n            tag_119:\n                /* \"#utility.yul\":5861:5867   */\n              0x00\n                /* \"#utility.yul\":5888:5908   */\n              tag_197\n              tag_94\n              jump\t// in\n            tag_197:\n                /* \"#utility.yul\":5878:5908   */\n              swap1\n              pop\n                /* \"#utility.yul\":5917:5950   */\n              tag_198\n                /* \"#utility.yul\":5945:5949   */\n              dup3\n                /* \"#utility.yul\":5937:5943   */\n              dup3\n                /* \"#utility.yul\":5917:5950   */\n              tag_118\n              jump\t// in\n            tag_198:\n                /* \"#utility.yul\":5827:5956   */\n              swap2\n              swap1\n              pop\n              jump\t// out\n                /* \"#utility.yul\":5962:6270   */\n            tag_120:\n                /* \"#utility.yul\":6024:6028   */\n              0x00\n                /* \"#utility.yul\":6114:6132   */\n              0xffffffffffffffff\n                /* \"#utility.yul\":6106:6112   */\n              dup3\n                /* \"#utility.yul\":6103:6133   */\n              gt\n                /* \"#utility.yul\":6100:6156   */\n              iszero\n              tag_200\n              jumpi\n                /* \"#utility.yul\":6136:6154   */\n              tag_201\n              tag_117\n              jump\t// in\n            tag_201:\n                /* \"#utility.yul\":6100:6156   */\n            tag_200:\n                /* \"#utility.yul\":6174:6203   */\n              tag_202\n                /* \"#utility.yul\":6196:6202   */\n              dup3\n                /* \"#utility.yul\":6174:6203   */\n              tag_111\n              jump\t// in\n            tag_202:\n                /* \"#utility.yul\":6166:6203   */\n              swap1\n              pop\n                /* \"#utility.yul\":6258:6262   */\n              0x20\n                /* \"#utility.yul\":6252:6256   */\n              dup2\n                /* \"#utility.yul\":6248:6263   */\n              add\n                /* \"#utility.yul\":6240:6263   */\n              swap1\n              pop\n                /* \"#utility.yul\":5962:6270   */\n              swap2\n              swap1\n              pop\n              jump\t// out\n                /* \"#utility.yul\":6276:6430   */\n            tag_121:\n                /* \"#utility.yul\":6360:6366   */\n              dup3\n                /* \"#utility.yul\":6355:6358   */\n              dup2\n                /* \"#utility.yul\":6350:6353   */\n              dup4\n                /* \"#utility.yul\":6337:6367   */\n              calldatacopy\n                /* \"#utility.yul\":6422:6423   */\n              0x00\n                /* \"#utility.yul\":6413:6419   */\n              dup4\n                /* \"#utility.yul\":6408:6411   */\n              dup4\n                /* \"#utility.yul\":6404:6420   */\n              add\n                /* \"#utility.yul\":6397:6424   */\n              mstore\n                /* \"#utility.yul\":6276:6430   */\n              pop\n              pop\n              pop\n              jump\t// out\n                /* \"#utility.yul\":6436:6848   */\n            tag_122:\n                /* \"#utility.yul\":6514:6519   */\n              0x00\n                /* \"#utility.yul\":6539:6605   */\n              tag_205\n                /* \"#utility.yul\":6555:6604   */\n              tag_206\n                /* \"#utility.yul\":6597:6603   */\n              dup5\n                /* \"#utility.yul\":6555:6604   */\n              tag_120\n              jump\t// in\n            tag_206:\n                /* \"#utility.yul\":6539:6605   */\n              tag_119\n              jump\t// in\n            tag_205:\n                /* \"#utility.yul\":6530:6605   */\n              swap1\n              pop\n                /* \"#utility.yul\":6628:6634   */\n              dup3\n                /* \"#utility.yul\":6621:6626   */\n              dup2\n                /* \"#utility.yul\":6614:6635   */\n              mstore\n                /* \"#utility.yul\":6666:6670   */\n              0x20\n                /* \"#utility.yul\":6659:6664   */\n              dup2\n                /* \"#utility.yul\":6655:6671   */\n              add\n                /* \"#utility.yul\":6704:6707   */\n              dup5\n                /* \"#utility.yul\":6695:6701   */\n              dup5\n                /* \"#utility.yul\":6690:6693   */\n              dup5\n                /* \"#utility.yul\":6686:6702   */\n              add\n                /* \"#utility.yul\":6683:6708   */\n              gt\n                /* \"#utility.yul\":6680:6792   */\n              iszero\n              tag_207\n              jumpi\n                /* \"#utility.yul\":6711:6790   */\n              tag_208\n              tag_116\n              jump\t// in\n            tag_208:\n                /* \"#utility.yul\":6680:6792   */\n            tag_207:\n                /* \"#utility.yul\":6801:6842   */\n              tag_209\n                /* \"#utility.yul\":6835:6841   */\n              dup5\n                /* \"#utility.yul\":6830:6833   */\n              dup3\n                /* \"#utility.yul\":6825:6828   */\n              dup6\n                /* \"#utility.yul\":6801:6842   */\n              tag_121\n              jump\t// in\n            tag_209:\n                /* \"#utility.yul\":6520:6848   */\n              pop\n                /* \"#utility.yul\":6436:6848   */\n              swap4\n              swap3\n              pop\n              pop\n              pop\n              jump\t// out\n                /* \"#utility.yul\":6868:7208   */\n            tag_123:\n                /* \"#utility.yul\":6924:6929   */\n              0x00\n                /* \"#utility.yul\":6973:6976   */\n              dup3\n                /* \"#utility.yul\":6966:6970   */\n              0x1f\n                /* \"#utility.yul\":6958:6964   */\n              dup4\n                /* \"#utility.yul\":6954:6971   */\n              add\n                /* \"#utility.yul\":6950:6977   */\n              slt\n                /* \"#utility.yul\":6940:7062   */\n              tag_211\n              jumpi\n                /* \"#utility.yul\":6981:7060   */\n              tag_212\n              tag_115\n              jump\t// in\n            tag_212:\n                /* \"#utility.yul\":6940:7062   */\n            tag_211:\n                /* \"#utility.yul\":7098:7104   */\n              dup2\n                /* \"#utility.yul\":7085:7105   */\n              calldataload\n                /* \"#utility.yul\":7123:7202   */\n              tag_213\n                /* \"#utility.yul\":7198:7201   */\n              dup5\n                /* \"#utility.yul\":7190:7196   */\n              dup3\n                /* \"#utility.yul\":7183:7187   */\n              0x20\n                /* \"#utility.yul\":7175:7181   */\n              dup7\n                /* \"#utility.yul\":7171:7188   */\n              add\n                /* \"#utility.yul\":7123:7202   */\n              tag_122\n              jump\t// in\n            tag_213:\n                /* \"#utility.yul\":7114:7202   */\n              swap2\n              pop\n                /* \"#utility.yul\":6930:7208   */\n              pop\n                /* \"#utility.yul\":6868:7208   */\n              swap3\n              swap2\n              pop\n              pop\n              jump\t// out\n                /* \"#utility.yul\":7214:8013   */\n            tag_43:\n                /* \"#utility.yul\":7301:7307   */\n              0x00\n                /* \"#utility.yul\":7309:7315   */\n              dup1\n                /* \"#utility.yul\":7317:7323   */\n              0x00\n                /* \"#utility.yul\":7366:7368   */\n              0x60\n                /* \"#utility.yul\":7354:7363   */\n              dup5\n                /* \"#utility.yul\":7345:7352   */\n              dup7\n                /* \"#utility.yul\":7341:7364   */\n              sub\n                /* \"#utility.yul\":7337:7369   */\n              slt\n                /* \"#utility.yul\":7334:7453   */\n              iszero\n              tag_215\n              jumpi\n                /* \"#utility.yul\":7372:7451   */\n              tag_216\n              tag_95\n              jump\t// in\n            tag_216:\n                /* \"#utility.yul\":7334:7453   */\n            tag_215:\n                /* \"#utility.yul\":7520:7521   */\n              0x00\n                /* \"#utility.yul\":7509:7518   */\n              dup5\n                /* \"#utility.yul\":7505:7522   */\n              add\n                /* \"#utility.yul\":7492:7523   */\n              calldataload\n                /* \"#utility.yul\":7550:7568   */\n              0xffffffffffffffff\n                /* \"#utility.yul\":7542:7548   */\n              dup2\n                /* \"#utility.yul\":7539:7569   */\n              gt\n                /* \"#utility.yul\":7536:7653   */\n              iszero\n              tag_217\n              jumpi\n                /* \"#utility.yul\":7572:7651   */\n              tag_218\n              tag_96\n              jump\t// in\n            tag_218:\n                /* \"#utility.yul\":7536:7653   */\n            tag_217:\n                /* \"#utility.yul\":7677:7740   */\n              tag_219\n                /* \"#utility.yul\":7732:7739   */\n              dup7\n                /* \"#utility.yul\":7723:7729   */\n              dup3\n                /* \"#utility.yul\":7712:7721   */\n              dup8\n                /* \"#utility.yul\":7708:7730   */\n              add\n                /* \"#utility.yul\":7677:7740   */\n              tag_123\n              jump\t// in\n            tag_219:\n                /* \"#utility.yul\":7667:7740   */\n              swap4\n              pop\n                /* \"#utility.yul\":7463:7750   */\n              pop\n                /* \"#utility.yul\":7789:7791   */\n              0x20\n                /* \"#utility.yul\":7815:7868   */\n              tag_220\n                /* \"#utility.yul\":7860:7867   */\n              dup7\n                /* \"#utility.yul\":7851:7857   */\n              dup3\n                /* \"#utility.yul\":7840:7849   */\n              dup8\n                /* \"#utility.yul\":7836:7858   */\n              add\n                /* \"#utility.yul\":7815:7868   */\n              tag_99\n              jump\t// in\n            tag_220:\n                /* \"#utility.yul\":7805:7868   */\n              swap3\n              pop\n                /* \"#utility.yul\":7760:7878   */\n              pop\n                /* \"#utility.yul\":7917:7919   */\n              0x40\n                /* \"#utility.yul\":7943:7996   */\n              tag_221\n                /* \"#utility.yul\":7988:7995   */\n              dup7\n                /* \"#utility.yul\":7979:7985   */\n              dup3\n                /* \"#utility.yul\":7968:7977   */\n              dup8\n                /* \"#utility.yul\":7964:7986   */\n              add\n                /* \"#utility.yul\":7943:7996   */\n              tag_103\n              jump\t// in\n            tag_221:\n                /* \"#utility.yul\":7933:7996   */\n              swap2\n              pop\n                /* \"#utility.yul\":7888:8006   */\n              pop\n                /* \"#utility.yul\":7214:8013   */\n              swap3\n              pop\n              swap3\n              pop\n              swap3\n              jump\t// out\n                /* \"#utility.yul\":8019:8199   */\n            tag_124:\n                /* \"#utility.yul\":8067:8144   */\n              0x4e487b7100000000000000000000000000000000000000000000000000000000\n                /* \"#utility.yul\":8064:8065   */\n              0x00\n                /* \"#utility.yul\":8057:8145   */\n              mstore\n                /* \"#utility.yul\":8164:8168   */\n              0x12\n                /* \"#utility.yul\":8161:8162   */\n              0x04\n                /* \"#utility.yul\":8154:8169   */\n              mstore\n                /* \"#utility.yul\":8188:8192   */\n              0x24\n                /* \"#utility.yul\":8185:8186   */\n              0x00\n                /* \"#utility.yul\":8178:8193   */\n              revert\n                /* \"#utility.yul\":8205:8385   */\n            tag_125:\n                /* \"#utility.yul\":8253:8330   */\n              0x4e487b7100000000000000000000000000000000000000000000000000000000\n                /* \"#utility.yul\":8250:8251   */\n              0x00\n                /* \"#utility.yul\":8243:8331   */\n              mstore\n                /* \"#utility.yul\":8350:8354   */\n              0x11\n                /* \"#utility.yul\":8347:8348   */\n              0x04\n                /* \"#utility.yul\":8340:8355   */\n              mstore\n                /* \"#utility.yul\":8374:8378   */\n              0x24\n                /* \"#utility.yul\":8371:8372   */\n              0x00\n                /* \"#utility.yul\":8364:8379   */\n              revert\n                /* \"#utility.yul\":8391:8576   */\n            tag_59:\n                /* \"#utility.yul\":8431:8432   */\n              0x00\n                /* \"#utility.yul\":8448:8468   */\n              tag_225\n                /* \"#utility.yul\":8466:8467   */\n              dup3\n                /* \"#utility.yul\":8448:8468   */\n              tag_97\n              jump\t// in\n            tag_225:\n                /* \"#utility.yul\":8443:8468   */\n              swap2\n              pop\n                /* \"#utility.yul\":8482:8502   */\n              tag_226\n                /* \"#utility.yul\":8500:8501   */\n              dup4\n                /* \"#utility.yul\":8482:8502   */\n              tag_97\n              jump\t// in\n            tag_226:\n                /* \"#utility.yul\":8477:8502   */\n              swap3\n              pop\n                /* \"#utility.yul\":8521:8522   */\n              dup3\n                /* \"#utility.yul\":8511:8546   */\n              tag_227\n              jumpi\n                /* \"#utility.yul\":8526:8544   */\n              tag_228\n              tag_124\n              jump\t// in\n            tag_228:\n                /* \"#utility.yul\":8511:8546   */\n            tag_227:\n                /* \"#utility.yul\":8568:8569   */\n              dup3\n                /* \"#utility.yul\":8565:8566   */\n              dup3\n                /* \"#utility.yul\":8561:8570   */\n              div\n                /* \"#utility.yul\":8556:8570   */\n              swap1\n              pop\n                /* \"#utility.yul\":8391:8576   */\n              swap3\n              swap2\n              pop\n              pop\n              jump\t// out\n                /* \"#utility.yul\":8582:8762   */\n            tag_126:\n                /* \"#utility.yul\":8630:8707   */\n              0x4e487b7100000000000000000000000000000000000000000000000000000000\n                /* \"#utility.yul\":8627:8628   */\n              0x00\n                /* \"#utility.yul\":8620:8708   */\n              mstore\n                /* \"#utility.yul\":8727:8731   */\n              0x22\n                /* \"#utility.yul\":8724:8725   */\n              0x04\n                /* \"#utility.yul\":8717:8732   */\n              mstore\n                /* \"#utility.yul\":8751:8755   */\n              0x24\n                /* \"#utility.yul\":8748:8749   */\n              0x00\n                /* \"#utility.yul\":8741:8756   */\n              revert\n                /* \"#utility.yul\":8768:9088   */\n            tag_65:\n                /* \"#utility.yul\":8812:8818   */\n              0x00\n                /* \"#utility.yul\":8849:8850   */\n              0x02\n                /* \"#utility.yul\":8843:8847   */\n              dup3\n                /* \"#utility.yul\":8839:8851   */\n              div\n                /* \"#utility.yul\":8829:8851   */\n              swap1\n              pop\n                /* \"#utility.yul\":8896:8897   */\n              0x01\n                /* \"#utility.yul\":8890:8894   */\n              dup3\n                /* \"#utility.yul\":8886:8898   */\n              and\n                /* \"#utility.yul\":8917:8935   */\n              dup1\n                /* \"#utility.yul\":8907:8988   */\n              tag_231\n              jumpi\n                /* \"#utility.yul\":8973:8977   */\n              0x7f\n                /* \"#utility.yul\":8965:8971   */\n              dup3\n                /* \"#utility.yul\":8961:8978   */\n              and\n                /* \"#utility.yul\":8951:8978   */\n              swap2\n              pop\n                /* \"#utility.yul\":8907:8988   */\n            tag_231:\n                /* \"#utility.yul\":9035:9037   */\n              0x20\n                /* \"#utility.yul\":9027:9033   */\n              dup3\n                /* \"#utility.yul\":9024:9038   */\n              lt\n                /* \"#utility.yul\":9004:9022   */\n              dup2\n                /* \"#utility.yul\":9001:9039   */\n              eq\n                /* \"#utility.yul\":8998:9082   */\n              iszero\n              tag_232\n              jumpi\n                /* \"#utility.yul\":9054:9072   */\n              tag_233\n              tag_126\n              jump\t// in\n            tag_233:\n                /* \"#utility.yul\":8998:9082   */\n            tag_232:\n                /* \"#utility.yul\":8819:9088   */\n              pop\n                /* \"#utility.yul\":8768:9088   */\n              swap2\n              swap1\n              pop\n              jump\t// out\n                /* \"#utility.yul\":9094:9327   */\n            tag_74:\n                /* \"#utility.yul\":9133:9136   */\n              0x00\n                /* \"#utility.yul\":9156:9180   */\n              tag_235\n                /* \"#utility.yul\":9174:9179   */\n              dup3\n                /* \"#utility.yul\":9156:9180   */\n              tag_97\n              jump\t// in\n            tag_235:\n                /* \"#utility.yul\":9147:9180   */\n              swap2\n              pop\n                /* \"#utility.yul\":9202:9268   */\n              0xffffffffffffffffffffffffffffffffffffffffffffffffffffffffffffffff\n                /* \"#utility.yul\":9195:9200   */\n              dup3\n                /* \"#utility.yul\":9192:9269   */\n              eq\n                /* \"#utility.yul\":9189:9292   */\n              iszero\n              tag_236\n              jumpi\n                /* \"#utility.yul\":9272:9290   */\n              tag_237\n              tag_125\n              jump\t// in\n            tag_237:\n                /* \"#utility.yul\":9189:9292   */\n            tag_236:\n                /* \"#utility.yul\":9319:9320   */\n              0x01\n                /* \"#utility.yul\":9312:9317   */\n              dup3\n                /* \"#utility.yul\":9308:9321   */\n              add\n                /* \"#utility.yul\":9301:9321   */\n              swap1\n              pop\n                /* \"#utility.yul\":9094:9327   */\n              swap2\n              swap1\n              pop\n              jump\t// out\n\n            auxdata: 0xa2646970667358221220f7a932fd40d365e20af466026077c42b5903a41c1b232dd6662eb14e7c12a36764736f6c634300080b0033\n        }\n    }\n\n    auxdata: 0xa26469706673582212208e7f3cd1a7b280bf2331409fec695f224549ad180bb26dcb2776281ea28cc2a564736f6c634300080b0033\n}\n","bytecode":{"linkReferences":{},"object":"608060405234801561001057600080fd5b50611373806100206000396000f3fe608060405234801561001057600080fd5b50600436106100415760003560e01c806358c9aa44146100465780639389b89214610064578063e698bdf114610080575b600080fd5b61004e6100b0565b60405161005b919061031b565b60405180910390f35b61007e60048036038101906100799190610378565b61013e565b005b61009a60048036038101906100959190610378565b6101df565b6040516100a791906103b4565b60405180910390f35b6060600080548060200260200160405190810160405280929190818152602001828054801561013457602002820191906000526020600020905b8160009054906101000a900473ffffffffffffffffffffffffffffffffffffffff1673ffffffffffffffffffffffffffffffffffffffff16815260200190600101908083116100ea575b5050505050905090565b6000813360405161014e9061021e565b6101599291906103de565b604051809103906000f080158015610175573d6000803e3d6000fd5b5090506000819080600181540180825580915050600190039060005260206000200160009091909190916101000a81548173ffffffffffffffffffffffffffffffffffffffff021916908373ffffffffffffffffffffffffffffffffffffffff1602179055505050565b600081815481106101ef57600080fd5b906000526020600020016000915054906101000a900473ffffffffffffffffffffffffffffffffffffffff1681565b610f368061040883390190565b600081519050919050565b600082825260208201905092915050565b6000819050602082019050919050565b600073ffffffffffffffffffffffffffffffffffffffff82169050919050565b600061028282610257565b9050919050565b61029281610277565b82525050565b60006102a48383610289565b60208301905092915050565b6000602082019050919050565b60006102c88261022b565b6102d28185610236565b93506102dd83610247565b8060005b8381101561030e5781516102f58882610298565b9750610300836102b0565b9250506001810190506102e1565b5085935050505092915050565b6000602082019050818103600083015261033581846102bd565b905092915050565b600080fd5b6000819050919050565b61035581610342565b811461036057600080fd5b50565b6000813590506103728161034c565b92915050565b60006020828403121561038e5761038d61033d565b5b600061039c84828501610363565b91505092915050565b6103ae81610277565b82525050565b60006020820190506103c960008301846103a5565b92915050565b6103d881610342565b82525050565b60006040820190506103f360008301856103cf565b61040060208301846103a5565b939250505056fe60806040523480156200001157600080fd5b5060405162000f3638038062000f3683398181016040528101906200003791906200012c565b80600360006101000a81548173ffffffffffffffffffffffffffffffffffffffff021916908373ffffffffffffffffffffffffffffffffffffffff16021790555081600281905550505062000173565b600080fd5b6000819050919050565b620000a1816200008c565b8114620000ad57600080fd5b50565b600081519050620000c18162000096565b92915050565b600073ffffffffffffffffffffffffffffffffffffffff82169050919050565b6000620000f482620000c7565b9050919050565b6200010681620000e7565b81146200011257600080fd5b50565b6000815190506200012681620000fb565b92915050565b6000806040838503121562000146576200014562000087565b5b60006200015685828601620000b0565b9250506020620001698582860162000115565b9150509250929050565b610db380620001836000396000f3fe6080604052600436106100865760003560e01c806382fde0931161005957806382fde0931461015d5780638a9cfd5514610188578063aaffadf3146101b1578063d7bb99ba146101dc578063d7d1bbdb146101e657610086565b8063034410061461008b5780630a144391146100b4578063481c6a75146100f157806381d12c581461011c575b600080fd5b34801561009757600080fd5b506100b260048036038101906100ad919061084a565b61020f565b005b3480156100c057600080fd5b506100db60048036038101906100d691906108d5565b61034a565b6040516100e8919061091d565b60405180910390f35b3480156100fd57600080fd5b5061010661036a565b6040516101139190610959565b60405180910390f35b34801561012857600080fd5b50610143600480360381019061013e919061084a565b610390565b604051610154959493929190610a2b565b60405180910390f35b34801561016957600080fd5b5061017261047b565b60405161017f9190610a85565b60405180910390f35b34801561019457600080fd5b506101af60048036038101906101aa9190610bd5565b610481565b005b3480156101bd57600080fd5b506101c6610599565b6040516101d39190610a85565b60405180910390f35b6101e461059f565b005b3480156101f257600080fd5b5061020d6004803603810190610208919061084a565b61061f565b005b600360009054906101000a900473ffffffffffffffffffffffffffffffffffffffff1673ffffffffffffffffffffffffffffffffffffffff163373ffffffffffffffffffffffffffffffffffffffff161461026957600080fd5b6000600160008381526020019081526020016000209050600260055461028f9190610ca2565b81600401541161029e57600080fd5b8060030160009054906101000a900460ff16156102ba57600080fd5b8060010160009054906101000a900473ffffffffffffffffffffffffffffffffffffffff1673ffffffffffffffffffffffffffffffffffffffff166108fc82600201549081150290604051600060405180830381858888f19350505050158015610328573d6000803e3d6000fd5b5060018160030160006101000a81548160ff0219169083151502179055505050565b60046020528060005260406000206000915054906101000a900460ff1681565b600360009054906101000a900473ffffffffffffffffffffffffffffffffffffffff1681565b60016020528060005260406000206000915090508060000180546103b390610d02565b80601f01602080910402602001604051908101604052809291908181526020018280546103df90610d02565b801561042c5780601f106104015761010080835404028352916020019161042c565b820191906000526020600020905b81548152906001019060200180831161040f57829003601f168201915b5050505050908060010160009054906101000a900473ffffffffffffffffffffffffffffffffffffffff16908060020154908060030160009054906101000a900460ff16908060040154905085565b60055481565b600360009054906101000a900473ffffffffffffffffffffffffffffffffffffffff1673ffffffffffffffffffffffffffffffffffffffff163373ffffffffffffffffffffffffffffffffffffffff16146104db57600080fd5b6000600160008060008154809291906104f390610d34565b91905055815260200190815260200160002090508381600001908051906020019061051f92919061075d565b50828160020181905550818160010160006101000a81548173ffffffffffffffffffffffffffffffffffffffff021916908373ffffffffffffffffffffffffffffffffffffffff16021790555060008160030160006101000a81548160ff0219169083151502179055506000816004018190555050505050565b60025481565b60025434116105ad57600080fd5b6001600460003373ffffffffffffffffffffffffffffffffffffffff1673ffffffffffffffffffffffffffffffffffffffff16815260200190815260200160002060006101000a81548160ff0219169083151502179055506005600081548092919061061890610d34565b9190505550565b6000600160008381526020019081526020016000209050600460003373ffffffffffffffffffffffffffffffffffffffff1673ffffffffffffffffffffffffffffffffffffffff16815260200190815260200160002060009054906101000a900460ff1661068c57600080fd5b8060050160003373ffffffffffffffffffffffffffffffffffffffff1673ffffffffffffffffffffffffffffffffffffffff16815260200190815260200160002060009054906101000a900460ff16156106e557600080fd5b60018160050160003373ffffffffffffffffffffffffffffffffffffffff1673ffffffffffffffffffffffffffffffffffffffff16815260200190815260200160002060006101000a81548160ff02191690831515021790555080600401600081548092919061075490610d34565b91905055505050565b82805461076990610d02565b90600052602060002090601f01602090048101928261078b57600085556107d2565b82601f106107a457805160ff19168380011785556107d2565b828001600101855582156107d2579182015b828111156107d15782518255916020019190600101906107b6565b5b5090506107df91906107e3565b5090565b5b808211156107fc5760008160009055506001016107e4565b5090565b6000604051905090565b600080fd5b600080fd5b6000819050919050565b61082781610814565b811461083257600080fd5b50565b6000813590506108448161081e565b92915050565b6000602082840312156108605761085f61080a565b5b600061086e84828501610835565b91505092915050565b600073ffffffffffffffffffffffffffffffffffffffff82169050919050565b60006108a282610877565b9050919050565b6108b281610897565b81146108bd57600080fd5b50565b6000813590506108cf816108a9565b92915050565b6000602082840312156108eb576108ea61080a565b5b60006108f9848285016108c0565b91505092915050565b60008115159050919050565b61091781610902565b82525050565b6000602082019050610932600083018461090e565b92915050565b600061094382610877565b9050919050565b61095381610938565b82525050565b600060208201905061096e600083018461094a565b92915050565b600081519050919050565b600082825260208201905092915050565b60005b838110156109ae578082015181840152602081019050610993565b838111156109bd576000848401525b50505050565b6000601f19601f8301169050919050565b60006109df82610974565b6109e9818561097f565b93506109f9818560208601610990565b610a02816109c3565b840191505092915050565b610a1681610897565b82525050565b610a2581610814565b82525050565b600060a0820190508181036000830152610a4581886109d4565b9050610a546020830187610a0d565b610a616040830186610a1c565b610a6e606083018561090e565b610a7b6080830184610a1c565b9695505050505050565b6000602082019050610a9a6000830184610a1c565b92915050565b600080fd5b600080fd5b7f4e487b7100000000000000000000000000000000000000000000000000000000600052604160045260246000fd5b610ae2826109c3565b810181811067ffffffffffffffff82111715610b0157610b00610aaa565b5b80604052505050565b6000610b14610800565b9050610b208282610ad9565b919050565b600067ffffffffffffffff821115610b4057610b3f610aaa565b5b610b49826109c3565b9050602081019050919050565b82818337600083830152505050565b6000610b78610b7384610b25565b610b0a565b905082815260208101848484011115610b9457610b93610aa5565b5b610b9f848285610b56565b509392505050565b600082601f830112610bbc57610bbb610aa0565b5b8135610bcc848260208601610b65565b91505092915050565b600080600060608486031215610bee57610bed61080a565b5b600084013567ffffffffffffffff811115610c0c57610c0b61080f565b5b610c1886828701610ba7565b9350506020610c2986828701610835565b9250506040610c3a868287016108c0565b9150509250925092565b7f4e487b7100000000000000000000000000000000000000000000000000000000600052601260045260246000fd5b7f4e487b7100000000000000000000000000000000000000000000000000000000600052601160045260246000fd5b6000610cad82610814565b9150610cb883610814565b925082610cc857610cc7610c44565b5b828204905092915050565b7f4e487b7100000000000000000000000000000000000000000000000000000000600052602260045260246000fd5b60006002820490506001821680610d1a57607f821691505b60208210811415610d2e57610d2d610cd3565b5b50919050565b6000610d3f82610814565b91507fffffffffffffffffffffffffffffffffffffffffffffffffffffffffffffffff821415610d7257610d71610c73565b5b60018201905091905056fea2646970667358221220f7a932fd40d365e20af466026077c42b5903a41c1b232dd6662eb14e7c12a36764736f6c634300080b0033a26469706673582212208e7f3cd1a7b280bf2331409fec695f224549ad180bb26dcb2776281ea28cc2a564736f6c634300080b0033","opcodes":"PUSH1 0x80 PUSH1 0x40 MSTORE CALLVALUE DUP1 ISZERO PUSH2 0x10 JUMPI PUSH1 0x0 DUP1 REVERT JUMPDEST POP PUSH2 0x1373 DUP1 PUSH2 0x20 PUSH1 0x0 CODECOPY PUSH1 0x0 RETURN INVALID PUSH1 0x80 PUSH1 0x40 MSTORE CALLVALUE DUP1 ISZERO PUSH2 0x10 JUMPI PUSH1 0x0 DUP1 REVERT JUMPDEST POP PUSH1 0x4 CALLDATASIZE LT PUSH2 0x41 JUMPI PUSH1 0x0 CALLDATALOAD PUSH1 0xE0 SHR DUP1 PUSH4 0x58C9AA44 EQ PUSH2 0x46 JUMPI DUP1 PUSH4 0x9389B892 EQ PUSH2 0x64 JUMPI DUP1 PUSH4 0xE698BDF1 EQ PUSH2 0x80 JUMPI JUMPDEST PUSH1 0x0 DUP1 REVERT JUMPDEST PUSH2 0x4E PUSH2 0xB0 JUMP JUMPDEST PUSH1 0x40 MLOAD PUSH2 0x5B SWAP2 SWAP1 PUSH2 0x31B JUMP JUMPDEST PUSH1 0x40 MLOAD DUP1 SWAP2 SUB SWAP1 RETURN JUMPDEST PUSH2 0x7E PUSH1 0x4 DUP1 CALLDATASIZE SUB DUP2 ADD SWAP1 PUSH2 0x79 SWAP2 SWAP1 PUSH2 0x378 JUMP JUMPDEST PUSH2 0x13E JUMP JUMPDEST STOP JUMPDEST PUSH2 0x9A PUSH1 0x4 DUP1 CALLDATASIZE SUB DUP2 ADD SWAP1 PUSH2 0x95 SWAP2 SWAP1 PUSH2 0x378 JUMP JUMPDEST PUSH2 0x1DF JUMP JUMPDEST PUSH1 0x40 MLOAD PUSH2 0xA7 SWAP2 SWAP1 PUSH2 0x3B4 JUMP JUMPDEST PUSH1 0x40 MLOAD DUP1 SWAP2 SUB SWAP1 RETURN JUMPDEST PUSH1 0x60 PUSH1 0x0 DUP1 SLOAD DUP1 PUSH1 0x20 MUL PUSH1 0x20 ADD PUSH1 0x40 MLOAD SWAP1 DUP2 ADD PUSH1 0x40 MSTORE DUP1 SWAP3 SWAP2 SWAP1 DUP2 DUP2 MSTORE PUSH1 0x20 ADD DUP3 DUP1 SLOAD DUP1 ISZERO PUSH2 0x134 JUMPI PUSH1 0x20 MUL DUP3 ADD SWAP2 SWAP1 PUSH1 0x0 MSTORE PUSH1 0x20 PUSH1 0x0 KECCAK256 SWAP1 JUMPDEST DUP2 PUSH1 0x0 SWAP1 SLOAD SWAP1 PUSH2 0x100 EXP SWAP1 DIV PUSH20 0xFFFFFFFFFFFFFFFFFFFFFFFFFFFFFFFFFFFFFFFF AND PUSH20 0xFFFFFFFFFFFFFFFFFFFFFFFFFFFFFFFFFFFFFFFF AND DUP2 MSTORE PUSH1 0x20 ADD SWAP1 PUSH1 0x1 ADD SWAP1 DUP1 DUP4 GT PUSH2 0xEA JUMPI JUMPDEST POP POP POP POP POP SWAP1 POP SWAP1 JUMP JUMPDEST PUSH1 0x0 DUP2 CALLER PUSH1 0x40 MLOAD PUSH2 0x14E SWAP1 PUSH2 0x21E JUMP JUMPDEST PUSH2 0x159 SWAP3 SWAP2 SWAP1 PUSH2 0x3DE JUMP JUMPDEST PUSH1 0x40 MLOAD DUP1 SWAP2 SUB SWAP1 PUSH1 0x0 CREATE DUP1 ISZERO DUP1 ISZERO PUSH2 0x175 JUMPI RETURNDATASIZE PUSH1 0x0 DUP1 RETURNDATACOPY RETURNDATASIZE PUSH1 0x0 REVERT JUMPDEST POP SWAP1 POP PUSH1 0x0 DUP2 SWAP1 DUP1 PUSH1 0x1 DUP2 SLOAD ADD DUP1 DUP3 SSTORE DUP1 SWAP2 POP POP PUSH1 0x1 SWAP1 SUB SWAP1 PUSH1 0x0 MSTORE PUSH1 0x20 PUSH1 0x0 KECCAK256 ADD PUSH1 0x0 SWAP1 SWAP2 SWAP1 SWAP2 SWAP1 SWAP2 PUSH2 0x100 EXP DUP2 SLOAD DUP2 PUSH20 0xFFFFFFFFFFFFFFFFFFFFFFFFFFFFFFFFFFFFFFFF MUL NOT AND SWAP1 DUP4 PUSH20 0xFFFFFFFFFFFFFFFFFFFFFFFFFFFFFFFFFFFFFFFF AND MUL OR SWAP1 SSTORE POP POP POP JUMP JUMPDEST PUSH1 0x0 DUP2 DUP2 SLOAD DUP2 LT PUSH2 0x1EF JUMPI PUSH1 0x0 DUP1 REVERT JUMPDEST SWAP1 PUSH1 0x0 MSTORE PUSH1 0x20 PUSH1 0x0 KECCAK256 ADD PUSH1 0x0 SWAP2 POP SLOAD SWAP1 PUSH2 0x100 EXP SWAP1 DIV PUSH20 0xFFFFFFFFFFFFFFFFFFFFFFFFFFFFFFFFFFFFFFFF AND DUP2 JUMP JUMPDEST PUSH2 0xF36 DUP1 PUSH2 0x408 DUP4 CODECOPY ADD SWAP1 JUMP JUMPDEST PUSH1 0x0 DUP2 MLOAD SWAP1 POP SWAP2 SWAP1 POP JUMP JUMPDEST PUSH1 0x0 DUP3 DUP3 MSTORE PUSH1 0x20 DUP3 ADD SWAP1 POP SWAP3 SWAP2 POP POP JUMP JUMPDEST PUSH1 0x0 DUP2 SWAP1 POP PUSH1 0x20 DUP3 ADD SWAP1 POP SWAP2 SWAP1 POP JUMP JUMPDEST PUSH1 0x0 PUSH20 0xFFFFFFFFFFFFFFFFFFFFFFFFFFFFFFFFFFFFFFFF DUP3 AND SWAP1 POP SWAP2 SWAP1 POP JUMP JUMPDEST PUSH1 0x0 PUSH2 0x282 DUP3 PUSH2 0x257 JUMP JUMPDEST SWAP1 POP SWAP2 SWAP1 POP JUMP JUMPDEST PUSH2 0x292 DUP2 PUSH2 0x277 JUMP JUMPDEST DUP3 MSTORE POP POP JUMP JUMPDEST PUSH1 0x0 PUSH2 0x2A4 DUP4 DUP4 PUSH2 0x289 JUMP JUMPDEST PUSH1 0x20 DUP4 ADD SWAP1 POP SWAP3 SWAP2 POP POP JUMP JUMPDEST PUSH1 0x0 PUSH1 0x20 DUP3 ADD SWAP1 POP SWAP2 SWAP1 POP JUMP JUMPDEST PUSH1 0x0 PUSH2 0x2C8 DUP3 PUSH2 0x22B JUMP JUMPDEST PUSH2 0x2D2 DUP2 DUP6 PUSH2 0x236 JUMP JUMPDEST SWAP4 POP PUSH2 0x2DD DUP4 PUSH2 0x247 JUMP JUMPDEST DUP1 PUSH1 0x0 JUMPDEST DUP4 DUP2 LT ISZERO PUSH2 0x30E JUMPI DUP2 MLOAD PUSH2 0x2F5 DUP9 DUP3 PUSH2 0x298 JUMP JUMPDEST SWAP8 POP PUSH2 0x300 DUP4 PUSH2 0x2B0 JUMP JUMPDEST SWAP3 POP POP PUSH1 0x1 DUP2 ADD SWAP1 POP PUSH2 0x2E1 JUMP JUMPDEST POP DUP6 SWAP4 POP POP POP POP SWAP3 SWAP2 POP POP JUMP JUMPDEST PUSH1 0x0 PUSH1 0x20 DUP3 ADD SWAP1 POP DUP2 DUP2 SUB PUSH1 0x0 DUP4 ADD MSTORE PUSH2 0x335 DUP2 DUP5 PUSH2 0x2BD JUMP JUMPDEST SWAP1 POP SWAP3 SWAP2 POP POP JUMP JUMPDEST PUSH1 0x0 DUP1 REVERT JUMPDEST PUSH1 0x0 DUP2 SWAP1 POP SWAP2 SWAP1 POP JUMP JUMPDEST PUSH2 0x355 DUP2 PUSH2 0x342 JUMP JUMPDEST DUP2 EQ PUSH2 0x360 JUMPI PUSH1 0x0 DUP1 REVERT JUMPDEST POP JUMP JUMPDEST PUSH1 0x0 DUP2 CALLDATALOAD SWAP1 POP PUSH2 0x372 DUP2 PUSH2 0x34C JUMP JUMPDEST SWAP3 SWAP2 POP POP JUMP JUMPDEST PUSH1 0x0 PUSH1 0x20 DUP3 DUP5 SUB SLT ISZERO PUSH2 0x38E JUMPI PUSH2 0x38D PUSH2 0x33D JUMP JUMPDEST JUMPDEST PUSH1 0x0 PUSH2 0x39C DUP5 DUP3 DUP6 ADD PUSH2 0x363 JUMP JUMPDEST SWAP2 POP POP SWAP3 SWAP2 POP POP JUMP JUMPDEST PUSH2 0x3AE DUP2 PUSH2 0x277 JUMP JUMPDEST DUP3 MSTORE POP POP JUMP JUMPDEST PUSH1 0x0 PUSH1 0x20 DUP3 ADD SWAP1 POP PUSH2 0x3C9 PUSH1 0x0 DUP4 ADD DUP5 PUSH2 0x3A5 JUMP JUMPDEST SWAP3 SWAP2 POP POP JUMP JUMPDEST PUSH2 0x3D8 DUP2 PUSH2 0x342 JUMP JUMPDEST DUP3 MSTORE POP POP JUMP JUMPDEST PUSH1 0x0 PUSH1 0x40 DUP3 ADD SWAP1 POP PUSH2 0x3F3 PUSH1 0x0 DUP4 ADD DUP6 PUSH2 0x3CF JUMP JUMPDEST PUSH2 0x400 PUSH1 0x20 DUP4 ADD DUP5 PUSH2 0x3A5 JUMP JUMPDEST SWAP4 SWAP3 POP POP POP JUMP INVALID PUSH1 0x80 PUSH1 0x40 MSTORE CALLVALUE DUP1 ISZERO PUSH3 0x11 JUMPI PUSH1 0x0 DUP1 REVERT JUMPDEST POP PUSH1 0x40 MLOAD PUSH3 0xF36 CODESIZE SUB DUP1 PUSH3 0xF36 DUP4 CODECOPY DUP2 DUP2 ADD PUSH1 0x40 MSTORE DUP2 ADD SWAP1 PUSH3 0x37 SWAP2 SWAP1 PUSH3 0x12C JUMP JUMPDEST DUP1 PUSH1 0x3 PUSH1 0x0 PUSH2 0x100 EXP DUP2 SLOAD DUP2 PUSH20 0xFFFFFFFFFFFFFFFFFFFFFFFFFFFFFFFFFFFFFFFF MUL NOT AND SWAP1 DUP4 PUSH20 0xFFFFFFFFFFFFFFFFFFFFFFFFFFFFFFFFFFFFFFFF AND MUL OR SWAP1 SSTORE POP DUP2 PUSH1 0x2 DUP2 SWAP1 SSTORE POP POP POP PUSH3 0x173 JUMP JUMPDEST PUSH1 0x0 DUP1 REVERT JUMPDEST PUSH1 0x0 DUP2 SWAP1 POP SWAP2 SWAP1 POP JUMP JUMPDEST PUSH3 0xA1 DUP2 PUSH3 0x8C JUMP JUMPDEST DUP2 EQ PUSH3 0xAD JUMPI PUSH1 0x0 DUP1 REVERT JUMPDEST POP JUMP JUMPDEST PUSH1 0x0 DUP2 MLOAD SWAP1 POP PUSH3 0xC1 DUP2 PUSH3 0x96 JUMP JUMPDEST SWAP3 SWAP2 POP POP JUMP JUMPDEST PUSH1 0x0 PUSH20 0xFFFFFFFFFFFFFFFFFFFFFFFFFFFFFFFFFFFFFFFF DUP3 AND SWAP1 POP SWAP2 SWAP1 POP JUMP JUMPDEST PUSH1 0x0 PUSH3 0xF4 DUP3 PUSH3 0xC7 JUMP JUMPDEST SWAP1 POP SWAP2 SWAP1 POP JUMP JUMPDEST PUSH3 0x106 DUP2 PUSH3 0xE7 JUMP JUMPDEST DUP2 EQ PUSH3 0x112 JUMPI PUSH1 0x0 DUP1 REVERT JUMPDEST POP JUMP JUMPDEST PUSH1 0x0 DUP2 MLOAD SWAP1 POP PUSH3 0x126 DUP2 PUSH3 0xFB JUMP JUMPDEST SWAP3 SWAP2 POP POP JUMP JUMPDEST PUSH1 0x0 DUP1 PUSH1 0x40 DUP4 DUP6 SUB SLT ISZERO PUSH3 0x146 JUMPI PUSH3 0x145 PUSH3 0x87 JUMP JUMPDEST JUMPDEST PUSH1 0x0 PUSH3 0x156 DUP6 DUP3 DUP7 ADD PUSH3 0xB0 JUMP JUMPDEST SWAP3 POP POP PUSH1 0x20 PUSH3 0x169 DUP6 DUP3 DUP7 ADD PUSH3 0x115 JUMP JUMPDEST SWAP2 POP POP SWAP3 POP SWAP3 SWAP1 POP JUMP JUMPDEST PUSH2 0xDB3 DUP1 PUSH3 0x183 PUSH1 0x0 CODECOPY PUSH1 0x0 RETURN INVALID PUSH1 0x80 PUSH1 0x40 MSTORE PUSH1 0x4 CALLDATASIZE LT PUSH2 0x86 JUMPI PUSH1 0x0 CALLDATALOAD PUSH1 0xE0 SHR DUP1 PUSH4 0x82FDE093 GT PUSH2 0x59 JUMPI DUP1 PUSH4 0x82FDE093 EQ PUSH2 0x15D JUMPI DUP1 PUSH4 0x8A9CFD55 EQ PUSH2 0x188 JUMPI DUP1 PUSH4 0xAAFFADF3 EQ PUSH2 0x1B1 JUMPI DUP1 PUSH4 0xD7BB99BA EQ PUSH2 0x1DC JUMPI DUP1 PUSH4 0xD7D1BBDB EQ PUSH2 0x1E6 JUMPI PUSH2 0x86 JUMP JUMPDEST DUP1 PUSH4 0x3441006 EQ PUSH2 0x8B JUMPI DUP1 PUSH4 0xA144391 EQ PUSH2 0xB4 JUMPI DUP1 PUSH4 0x481C6A75 EQ PUSH2 0xF1 JUMPI DUP1 PUSH4 0x81D12C58 EQ PUSH2 0x11C JUMPI JUMPDEST PUSH1 0x0 DUP1 REVERT JUMPDEST CALLVALUE DUP1 ISZERO PUSH2 0x97 JUMPI PUSH1 0x0 DUP1 REVERT JUMPDEST POP PUSH2 0xB2 PUSH1 0x4 DUP1 CALLDATASIZE SUB DUP2 ADD SWAP1 PUSH2 0xAD SWAP2 SWAP1 PUSH2 0x84A JUMP JUMPDEST PUSH2 0x20F JUMP JUMPDEST STOP JUMPDEST CALLVALUE DUP1 ISZERO PUSH2 0xC0 JUMPI PUSH1 0x0 DUP1 REVERT JUMPDEST POP PUSH2 0xDB PUSH1 0x4 DUP1 CALLDATASIZE SUB DUP2 ADD SWAP1 PUSH2 0xD6 SWAP2 SWAP1 PUSH2 0x8D5 JUMP JUMPDEST PUSH2 0x34A JUMP JUMPDEST PUSH1 0x40 MLOAD PUSH2 0xE8 SWAP2 SWAP1 PUSH2 0x91D JUMP JUMPDEST PUSH1 0x40 MLOAD DUP1 SWAP2 SUB SWAP1 RETURN JUMPDEST CALLVALUE DUP1 ISZERO PUSH2 0xFD JUMPI PUSH1 0x0 DUP1 REVERT JUMPDEST POP PUSH2 0x106 PUSH2 0x36A JUMP JUMPDEST PUSH1 0x40 MLOAD PUSH2 0x113 SWAP2 SWAP1 PUSH2 0x959 JUMP JUMPDEST PUSH1 0x40 MLOAD DUP1 SWAP2 SUB SWAP1 RETURN JUMPDEST CALLVALUE DUP1 ISZERO PUSH2 0x128 JUMPI PUSH1 0x0 DUP1 REVERT JUMPDEST POP PUSH2 0x143 PUSH1 0x4 DUP1 CALLDATASIZE SUB DUP2 ADD SWAP1 PUSH2 0x13E SWAP2 SWAP1 PUSH2 0x84A JUMP JUMPDEST PUSH2 0x390 JUMP JUMPDEST PUSH1 0x40 MLOAD PUSH2 0x154 SWAP6 SWAP5 SWAP4 SWAP3 SWAP2 SWAP1 PUSH2 0xA2B JUMP JUMPDEST PUSH1 0x40 MLOAD DUP1 SWAP2 SUB SWAP1 RETURN JUMPDEST CALLVALUE DUP1 ISZERO PUSH2 0x169 JUMPI PUSH1 0x0 DUP1 REVERT JUMPDEST POP PUSH2 0x172 PUSH2 0x47B JUMP JUMPDEST PUSH1 0x40 MLOAD PUSH2 0x17F SWAP2 SWAP1 PUSH2 0xA85 JUMP JUMPDEST PUSH1 0x40 MLOAD DUP1 SWAP2 SUB SWAP1 RETURN JUMPDEST CALLVALUE DUP1 ISZERO PUSH2 0x194 JUMPI PUSH1 0x0 DUP1 REVERT JUMPDEST POP PUSH2 0x1AF PUSH1 0x4 DUP1 CALLDATASIZE SUB DUP2 ADD SWAP1 PUSH2 0x1AA SWAP2 SWAP1 PUSH2 0xBD5 JUMP JUMPDEST PUSH2 0x481 JUMP JUMPDEST STOP JUMPDEST CALLVALUE DUP1 ISZERO PUSH2 0x1BD JUMPI PUSH1 0x0 DUP1 REVERT JUMPDEST POP PUSH2 0x1C6 PUSH2 0x599 JUMP JUMPDEST PUSH1 0x40 MLOAD PUSH2 0x1D3 SWAP2 SWAP1 PUSH2 0xA85 JUMP JUMPDEST PUSH1 0x40 MLOAD DUP1 SWAP2 SUB SWAP1 RETURN JUMPDEST PUSH2 0x1E4 PUSH2 0x59F JUMP JUMPDEST STOP JUMPDEST CALLVALUE DUP1 ISZERO PUSH2 0x1F2 JUMPI PUSH1 0x0 DUP1 REVERT JUMPDEST POP PUSH2 0x20D PUSH1 0x4 DUP1 CALLDATASIZE SUB DUP2 ADD SWAP1 PUSH2 0x208 SWAP2 SWAP1 PUSH2 0x84A JUMP JUMPDEST PUSH2 0x61F JUMP JUMPDEST STOP JUMPDEST PUSH1 0x3 PUSH1 0x0 SWAP1 SLOAD SWAP1 PUSH2 0x100 EXP SWAP1 DIV PUSH20 0xFFFFFFFFFFFFFFFFFFFFFFFFFFFFFFFFFFFFFFFF AND PUSH20 0xFFFFFFFFFFFFFFFFFFFFFFFFFFFFFFFFFFFFFFFF AND CALLER PUSH20 0xFFFFFFFFFFFFFFFFFFFFFFFFFFFFFFFFFFFFFFFF AND EQ PUSH2 0x269 JUMPI PUSH1 0x0 DUP1 REVERT JUMPDEST PUSH1 0x0 PUSH1 0x1 PUSH1 0x0 DUP4 DUP2 MSTORE PUSH1 0x20 ADD SWAP1 DUP2 MSTORE PUSH1 0x20 ADD PUSH1 0x0 KECCAK256 SWAP1 POP PUSH1 0x2 PUSH1 0x5 SLOAD PUSH2 0x28F SWAP2 SWAP1 PUSH2 0xCA2 JUMP JUMPDEST DUP2 PUSH1 0x4 ADD SLOAD GT PUSH2 0x29E JUMPI PUSH1 0x0 DUP1 REVERT JUMPDEST DUP1 PUSH1 0x3 ADD PUSH1 0x0 SWAP1 SLOAD SWAP1 PUSH2 0x100 EXP SWAP1 DIV PUSH1 0xFF AND ISZERO PUSH2 0x2BA JUMPI PUSH1 0x0 DUP1 REVERT JUMPDEST DUP1 PUSH1 0x1 ADD PUSH1 0x0 SWAP1 SLOAD SWAP1 PUSH2 0x100 EXP SWAP1 DIV PUSH20 0xFFFFFFFFFFFFFFFFFFFFFFFFFFFFFFFFFFFFFFFF AND PUSH20 0xFFFFFFFFFFFFFFFFFFFFFFFFFFFFFFFFFFFFFFFF AND PUSH2 0x8FC DUP3 PUSH1 0x2 ADD SLOAD SWAP1 DUP2 ISZERO MUL SWAP1 PUSH1 0x40 MLOAD PUSH1 0x0 PUSH1 0x40 MLOAD DUP1 DUP4 SUB DUP2 DUP6 DUP9 DUP9 CALL SWAP4 POP POP POP POP ISZERO DUP1 ISZERO PUSH2 0x328 JUMPI RETURNDATASIZE PUSH1 0x0 DUP1 RETURNDATACOPY RETURNDATASIZE PUSH1 0x0 REVERT JUMPDEST POP PUSH1 0x1 DUP2 PUSH1 0x3 ADD PUSH1 0x0 PUSH2 0x100 EXP DUP2 SLOAD DUP2 PUSH1 0xFF MUL NOT AND SWAP1 DUP4 ISZERO ISZERO MUL OR SWAP1 SSTORE POP POP POP JUMP JUMPDEST PUSH1 0x4 PUSH1 0x20 MSTORE DUP1 PUSH1 0x0 MSTORE PUSH1 0x40 PUSH1 0x0 KECCAK256 PUSH1 0x0 SWAP2 POP SLOAD SWAP1 PUSH2 0x100 EXP SWAP1 DIV PUSH1 0xFF AND DUP2 JUMP JUMPDEST PUSH1 0x3 PUSH1 0x0 SWAP1 SLOAD SWAP1 PUSH2 0x100 EXP SWAP1 DIV PUSH20 0xFFFFFFFFFFFFFFFFFFFFFFFFFFFFFFFFFFFFFFFF AND DUP2 JUMP JUMPDEST PUSH1 0x1 PUSH1 0x20 MSTORE DUP1 PUSH1 0x0 MSTORE PUSH1 0x40 PUSH1 0x0 KECCAK256 PUSH1 0x0 SWAP2 POP SWAP1 POP DUP1 PUSH1 0x0 ADD DUP1 SLOAD PUSH2 0x3B3 SWAP1 PUSH2 0xD02 JUMP JUMPDEST DUP1 PUSH1 0x1F ADD PUSH1 0x20 DUP1 SWAP2 DIV MUL PUSH1 0x20 ADD PUSH1 0x40 MLOAD SWAP1 DUP2 ADD PUSH1 0x40 MSTORE DUP1 SWAP3 SWAP2 SWAP1 DUP2 DUP2 MSTORE PUSH1 0x20 ADD DUP3 DUP1 SLOAD PUSH2 0x3DF SWAP1 PUSH2 0xD02 JUMP JUMPDEST DUP1 ISZERO PUSH2 0x42C JUMPI DUP1 PUSH1 0x1F LT PUSH2 0x401 JUMPI PUSH2 0x100 DUP1 DUP4 SLOAD DIV MUL DUP4 MSTORE SWAP2 PUSH1 0x20 ADD SWAP2 PUSH2 0x42C JUMP JUMPDEST DUP3 ADD SWAP2 SWAP1 PUSH1 0x0 MSTORE PUSH1 0x20 PUSH1 0x0 KECCAK256 SWAP1 JUMPDEST DUP2 SLOAD DUP2 MSTORE SWAP1 PUSH1 0x1 ADD SWAP1 PUSH1 0x20 ADD DUP1 DUP4 GT PUSH2 0x40F JUMPI DUP3 SWAP1 SUB PUSH1 0x1F AND DUP3 ADD SWAP2 JUMPDEST POP POP POP POP POP SWAP1 DUP1 PUSH1 0x1 ADD PUSH1 0x0 SWAP1 SLOAD SWAP1 PUSH2 0x100 EXP SWAP1 DIV PUSH20 0xFFFFFFFFFFFFFFFFFFFFFFFFFFFFFFFFFFFFFFFF AND SWAP1 DUP1 PUSH1 0x2 ADD SLOAD SWAP1 DUP1 PUSH1 0x3 ADD PUSH1 0x0 SWAP1 SLOAD SWAP1 PUSH2 0x100 EXP SWAP1 DIV PUSH1 0xFF AND SWAP1 DUP1 PUSH1 0x4 ADD SLOAD SWAP1 POP DUP6 JUMP JUMPDEST PUSH1 0x5 SLOAD DUP2 JUMP JUMPDEST PUSH1 0x3 PUSH1 0x0 SWAP1 SLOAD SWAP1 PUSH2 0x100 EXP SWAP1 DIV PUSH20 0xFFFFFFFFFFFFFFFFFFFFFFFFFFFFFFFFFFFFFFFF AND PUSH20 0xFFFFFFFFFFFFFFFFFFFFFFFFFFFFFFFFFFFFFFFF AND CALLER PUSH20 0xFFFFFFFFFFFFFFFFFFFFFFFFFFFFFFFFFFFFFFFF AND EQ PUSH2 0x4DB JUMPI PUSH1 0x0 DUP1 REVERT JUMPDEST PUSH1 0x0 PUSH1 0x1 PUSH1 0x0 DUP1 PUSH1 0x0 DUP2 SLOAD DUP1 SWAP3 SWAP2 SWAP1 PUSH2 0x4F3 SWAP1 PUSH2 0xD34 JUMP JUMPDEST SWAP2 SWAP1 POP SSTORE DUP2 MSTORE PUSH1 0x20 ADD SWAP1 DUP2 MSTORE PUSH1 0x20 ADD PUSH1 0x0 KECCAK256 SWAP1 POP DUP4 DUP2 PUSH1 0x0 ADD SWAP1 DUP1 MLOAD SWAP1 PUSH1 0x20 ADD SWAP1 PUSH2 0x51F SWAP3 SWAP2 SWAP1 PUSH2 0x75D JUMP JUMPDEST POP DUP3 DUP2 PUSH1 0x2 ADD DUP2 SWAP1 SSTORE POP DUP2 DUP2 PUSH1 0x1 ADD PUSH1 0x0 PUSH2 0x100 EXP DUP2 SLOAD DUP2 PUSH20 0xFFFFFFFFFFFFFFFFFFFFFFFFFFFFFFFFFFFFFFFF MUL NOT AND SWAP1 DUP4 PUSH20 0xFFFFFFFFFFFFFFFFFFFFFFFFFFFFFFFFFFFFFFFF AND MUL OR SWAP1 SSTORE POP PUSH1 0x0 DUP2 PUSH1 0x3 ADD PUSH1 0x0 PUSH2 0x100 EXP DUP2 SLOAD DUP2 PUSH1 0xFF MUL NOT AND SWAP1 DUP4 ISZERO ISZERO MUL OR SWAP1 SSTORE POP PUSH1 0x0 DUP2 PUSH1 0x4 ADD DUP2 SWAP1 SSTORE POP POP POP POP POP JUMP JUMPDEST PUSH1 0x2 SLOAD DUP2 JUMP JUMPDEST PUSH1 0x2 SLOAD CALLVALUE GT PUSH2 0x5AD JUMPI PUSH1 0x0 DUP1 REVERT JUMPDEST PUSH1 0x1 PUSH1 0x4 PUSH1 0x0 CALLER PUSH20 0xFFFFFFFFFFFFFFFFFFFFFFFFFFFFFFFFFFFFFFFF AND PUSH20 0xFFFFFFFFFFFFFFFFFFFFFFFFFFFFFFFFFFFFFFFF AND DUP2 MSTORE PUSH1 0x20 ADD SWAP1 DUP2 MSTORE PUSH1 0x20 ADD PUSH1 0x0 KECCAK256 PUSH1 0x0 PUSH2 0x100 EXP DUP2 SLOAD DUP2 PUSH1 0xFF MUL NOT AND SWAP1 DUP4 ISZERO ISZERO MUL OR SWAP1 SSTORE POP PUSH1 0x5 PUSH1 0x0 DUP2 SLOAD DUP1 SWAP3 SWAP2 SWAP1 PUSH2 0x618 SWAP1 PUSH2 0xD34 JUMP JUMPDEST SWAP2 SWAP1 POP SSTORE POP JUMP JUMPDEST PUSH1 0x0 PUSH1 0x1 PUSH1 0x0 DUP4 DUP2 MSTORE PUSH1 0x20 ADD SWAP1 DUP2 MSTORE PUSH1 0x20 ADD PUSH1 0x0 KECCAK256 SWAP1 POP PUSH1 0x4 PUSH1 0x0 CALLER PUSH20 0xFFFFFFFFFFFFFFFFFFFFFFFFFFFFFFFFFFFFFFFF AND PUSH20 0xFFFFFFFFFFFFFFFFFFFFFFFFFFFFFFFFFFFFFFFF AND DUP2 MSTORE PUSH1 0x20 ADD SWAP1 DUP2 MSTORE PUSH1 0x20 ADD PUSH1 0x0 KECCAK256 PUSH1 0x0 SWAP1 SLOAD SWAP1 PUSH2 0x100 EXP SWAP1 DIV PUSH1 0xFF AND PUSH2 0x68C JUMPI PUSH1 0x0 DUP1 REVERT JUMPDEST DUP1 PUSH1 0x5 ADD PUSH1 0x0 CALLER PUSH20 0xFFFFFFFFFFFFFFFFFFFFFFFFFFFFFFFFFFFFFFFF AND PUSH20 0xFFFFFFFFFFFFFFFFFFFFFFFFFFFFFFFFFFFFFFFF AND DUP2 MSTORE PUSH1 0x20 ADD SWAP1 DUP2 MSTORE PUSH1 0x20 ADD PUSH1 0x0 KECCAK256 PUSH1 0x0 SWAP1 SLOAD SWAP1 PUSH2 0x100 EXP SWAP1 DIV PUSH1 0xFF AND ISZERO PUSH2 0x6E5 JUMPI PUSH1 0x0 DUP1 REVERT JUMPDEST PUSH1 0x1 DUP2 PUSH1 0x5 ADD PUSH1 0x0 CALLER PUSH20 0xFFFFFFFFFFFFFFFFFFFFFFFFFFFFFFFFFFFFFFFF AND PUSH20 0xFFFFFFFFFFFFFFFFFFFFFFFFFFFFFFFFFFFFFFFF AND DUP2 MSTORE PUSH1 0x20 ADD SWAP1 DUP2 MSTORE PUSH1 0x20 ADD PUSH1 0x0 KECCAK256 PUSH1 0x0 PUSH2 0x100 EXP DUP2 SLOAD DUP2 PUSH1 0xFF MUL NOT AND SWAP1 DUP4 ISZERO ISZERO MUL OR SWAP1 SSTORE POP DUP1 PUSH1 0x4 ADD PUSH1 0x0 DUP2 SLOAD DUP1 SWAP3 SWAP2 SWAP1 PUSH2 0x754 SWAP1 PUSH2 0xD34 JUMP JUMPDEST SWAP2 SWAP1 POP SSTORE POP POP POP JUMP JUMPDEST DUP3 DUP1 SLOAD PUSH2 0x769 SWAP1 PUSH2 0xD02 JUMP JUMPDEST SWAP1 PUSH1 0x0 MSTORE PUSH1 0x20 PUSH1 0x0 KECCAK256 SWAP1 PUSH1 0x1F ADD PUSH1 0x20 SWAP1 DIV DUP2 ADD SWAP3 DUP3 PUSH2 0x78B JUMPI PUSH1 0x0 DUP6 SSTORE PUSH2 0x7D2 JUMP JUMPDEST DUP3 PUSH1 0x1F LT PUSH2 0x7A4 JUMPI DUP1 MLOAD PUSH1 0xFF NOT AND DUP4 DUP1 ADD OR DUP6 SSTORE PUSH2 0x7D2 JUMP JUMPDEST DUP3 DUP1 ADD PUSH1 0x1 ADD DUP6 SSTORE DUP3 ISZERO PUSH2 0x7D2 JUMPI SWAP2 DUP3 ADD JUMPDEST DUP3 DUP2 GT ISZERO PUSH2 0x7D1 JUMPI DUP3 MLOAD DUP3 SSTORE SWAP2 PUSH1 0x20 ADD SWAP2 SWAP1 PUSH1 0x1 ADD SWAP1 PUSH2 0x7B6 JUMP JUMPDEST JUMPDEST POP SWAP1 POP PUSH2 0x7DF SWAP2 SWAP1 PUSH2 0x7E3 JUMP JUMPDEST POP SWAP1 JUMP JUMPDEST JUMPDEST DUP1 DUP3 GT ISZERO PUSH2 0x7FC JUMPI PUSH1 0x0 DUP2 PUSH1 0x0 SWAP1 SSTORE POP PUSH1 0x1 ADD PUSH2 0x7E4 JUMP JUMPDEST POP SWAP1 JUMP JUMPDEST PUSH1 0x0 PUSH1 0x40 MLOAD SWAP1 POP SWAP1 JUMP JUMPDEST PUSH1 0x0 DUP1 REVERT JUMPDEST PUSH1 0x0 DUP1 REVERT JUMPDEST PUSH1 0x0 DUP2 SWAP1 POP SWAP2 SWAP1 POP JUMP JUMPDEST PUSH2 0x827 DUP2 PUSH2 0x814 JUMP JUMPDEST DUP2 EQ PUSH2 0x832 JUMPI PUSH1 0x0 DUP1 REVERT JUMPDEST POP JUMP JUMPDEST PUSH1 0x0 DUP2 CALLDATALOAD SWAP1 POP PUSH2 0x844 DUP2 PUSH2 0x81E JUMP JUMPDEST SWAP3 SWAP2 POP POP JUMP JUMPDEST PUSH1 0x0 PUSH1 0x20 DUP3 DUP5 SUB SLT ISZERO PUSH2 0x860 JUMPI PUSH2 0x85F PUSH2 0x80A JUMP JUMPDEST JUMPDEST PUSH1 0x0 PUSH2 0x86E DUP5 DUP3 DUP6 ADD PUSH2 0x835 JUMP JUMPDEST SWAP2 POP POP SWAP3 SWAP2 POP POP JUMP JUMPDEST PUSH1 0x0 PUSH20 0xFFFFFFFFFFFFFFFFFFFFFFFFFFFFFFFFFFFFFFFF DUP3 AND SWAP1 POP SWAP2 SWAP1 POP JUMP JUMPDEST PUSH1 0x0 PUSH2 0x8A2 DUP3 PUSH2 0x877 JUMP JUMPDEST SWAP1 POP SWAP2 SWAP1 POP JUMP JUMPDEST PUSH2 0x8B2 DUP2 PUSH2 0x897 JUMP JUMPDEST DUP2 EQ PUSH2 0x8BD JUMPI PUSH1 0x0 DUP1 REVERT JUMPDEST POP JUMP JUMPDEST PUSH1 0x0 DUP2 CALLDATALOAD SWAP1 POP PUSH2 0x8CF DUP2 PUSH2 0x8A9 JUMP JUMPDEST SWAP3 SWAP2 POP POP JUMP JUMPDEST PUSH1 0x0 PUSH1 0x20 DUP3 DUP5 SUB SLT ISZERO PUSH2 0x8EB JUMPI PUSH2 0x8EA PUSH2 0x80A JUMP JUMPDEST JUMPDEST PUSH1 0x0 PUSH2 0x8F9 DUP5 DUP3 DUP6 ADD PUSH2 0x8C0 JUMP JUMPDEST SWAP2 POP POP SWAP3 SWAP2 POP POP JUMP JUMPDEST PUSH1 0x0 DUP2 ISZERO ISZERO SWAP1 POP SWAP2 SWAP1 POP JUMP JUMPDEST PUSH2 0x917 DUP2 PUSH2 0x902 JUMP JUMPDEST DUP3 MSTORE POP POP JUMP JUMPDEST PUSH1 0x0 PUSH1 0x20 DUP3 ADD SWAP1 POP PUSH2 0x932 PUSH1 0x0 DUP4 ADD DUP5 PUSH2 0x90E JUMP JUMPDEST SWAP3 SWAP2 POP POP JUMP JUMPDEST PUSH1 0x0 PUSH2 0x943 DUP3 PUSH2 0x877 JUMP JUMPDEST SWAP1 POP SWAP2 SWAP1 POP JUMP JUMPDEST PUSH2 0x953 DUP2 PUSH2 0x938 JUMP JUMPDEST DUP3 MSTORE POP POP JUMP JUMPDEST PUSH1 0x0 PUSH1 0x20 DUP3 ADD SWAP1 POP PUSH2 0x96E PUSH1 0x0 DUP4 ADD DUP5 PUSH2 0x94A JUMP JUMPDEST SWAP3 SWAP2 POP POP JUMP JUMPDEST PUSH1 0x0 DUP2 MLOAD SWAP1 POP SWAP2 SWAP1 POP JUMP JUMPDEST PUSH1 0x0 DUP3 DUP3 MSTORE PUSH1 0x20 DUP3 ADD SWAP1 POP SWAP3 SWAP2 POP POP JUMP JUMPDEST PUSH1 0x0 JUMPDEST DUP4 DUP2 LT ISZERO PUSH2 0x9AE JUMPI DUP1 DUP3 ADD MLOAD DUP2 DUP5 ADD MSTORE PUSH1 0x20 DUP2 ADD SWAP1 POP PUSH2 0x993 JUMP JUMPDEST DUP4 DUP2 GT ISZERO PUSH2 0x9BD JUMPI PUSH1 0x0 DUP5 DUP5 ADD MSTORE JUMPDEST POP POP POP POP JUMP JUMPDEST PUSH1 0x0 PUSH1 0x1F NOT PUSH1 0x1F DUP4 ADD AND SWAP1 POP SWAP2 SWAP1 POP JUMP JUMPDEST PUSH1 0x0 PUSH2 0x9DF DUP3 PUSH2 0x974 JUMP JUMPDEST PUSH2 0x9E9 DUP2 DUP6 PUSH2 0x97F JUMP JUMPDEST SWAP4 POP PUSH2 0x9F9 DUP2 DUP6 PUSH1 0x20 DUP7 ADD PUSH2 0x990 JUMP JUMPDEST PUSH2 0xA02 DUP2 PUSH2 0x9C3 JUMP JUMPDEST DUP5 ADD SWAP2 POP POP SWAP3 SWAP2 POP POP JUMP JUMPDEST PUSH2 0xA16 DUP2 PUSH2 0x897 JUMP JUMPDEST DUP3 MSTORE POP POP JUMP JUMPDEST PUSH2 0xA25 DUP2 PUSH2 0x814 JUMP JUMPDEST DUP3 MSTORE POP POP JUMP JUMPDEST PUSH1 0x0 PUSH1 0xA0 DUP3 ADD SWAP1 POP DUP2 DUP2 SUB PUSH1 0x0 DUP4 ADD MSTORE PUSH2 0xA45 DUP2 DUP9 PUSH2 0x9D4 JUMP JUMPDEST SWAP1 POP PUSH2 0xA54 PUSH1 0x20 DUP4 ADD DUP8 PUSH2 0xA0D JUMP JUMPDEST PUSH2 0xA61 PUSH1 0x40 DUP4 ADD DUP7 PUSH2 0xA1C JUMP JUMPDEST PUSH2 0xA6E PUSH1 0x60 DUP4 ADD DUP6 PUSH2 0x90E JUMP JUMPDEST PUSH2 0xA7B PUSH1 0x80 DUP4 ADD DUP5 PUSH2 0xA1C JUMP JUMPDEST SWAP7 SWAP6 POP POP POP POP POP POP JUMP JUMPDEST PUSH1 0x0 PUSH1 0x20 DUP3 ADD SWAP1 POP PUSH2 0xA9A PUSH1 0x0 DUP4 ADD DUP5 PUSH2 0xA1C JUMP JUMPDEST SWAP3 SWAP2 POP POP JUMP JUMPDEST PUSH1 0x0 DUP1 REVERT JUMPDEST PUSH1 0x0 DUP1 REVERT JUMPDEST PUSH32 0x4E487B7100000000000000000000000000000000000000000000000000000000 PUSH1 0x0 MSTORE PUSH1 0x41 PUSH1 0x4 MSTORE PUSH1 0x24 PUSH1 0x0 REVERT JUMPDEST PUSH2 0xAE2 DUP3 PUSH2 0x9C3 JUMP JUMPDEST DUP2 ADD DUP2 DUP2 LT PUSH8 0xFFFFFFFFFFFFFFFF DUP3 GT OR ISZERO PUSH2 0xB01 JUMPI PUSH2 0xB00 PUSH2 0xAAA JUMP JUMPDEST JUMPDEST DUP1 PUSH1 0x40 MSTORE POP POP POP JUMP JUMPDEST PUSH1 0x0 PUSH2 0xB14 PUSH2 0x800 JUMP JUMPDEST SWAP1 POP PUSH2 0xB20 DUP3 DUP3 PUSH2 0xAD9 JUMP JUMPDEST SWAP2 SWAP1 POP JUMP JUMPDEST PUSH1 0x0 PUSH8 0xFFFFFFFFFFFFFFFF DUP3 GT ISZERO PUSH2 0xB40 JUMPI PUSH2 0xB3F PUSH2 0xAAA JUMP JUMPDEST JUMPDEST PUSH2 0xB49 DUP3 PUSH2 0x9C3 JUMP JUMPDEST SWAP1 POP PUSH1 0x20 DUP2 ADD SWAP1 POP SWAP2 SWAP1 POP JUMP JUMPDEST DUP3 DUP2 DUP4 CALLDATACOPY PUSH1 0x0 DUP4 DUP4 ADD MSTORE POP POP POP JUMP JUMPDEST PUSH1 0x0 PUSH2 0xB78 PUSH2 0xB73 DUP5 PUSH2 0xB25 JUMP JUMPDEST PUSH2 0xB0A JUMP JUMPDEST SWAP1 POP DUP3 DUP2 MSTORE PUSH1 0x20 DUP2 ADD DUP5 DUP5 DUP5 ADD GT ISZERO PUSH2 0xB94 JUMPI PUSH2 0xB93 PUSH2 0xAA5 JUMP JUMPDEST JUMPDEST PUSH2 0xB9F DUP5 DUP3 DUP6 PUSH2 0xB56 JUMP JUMPDEST POP SWAP4 SWAP3 POP POP POP JUMP JUMPDEST PUSH1 0x0 DUP3 PUSH1 0x1F DUP4 ADD SLT PUSH2 0xBBC JUMPI PUSH2 0xBBB PUSH2 0xAA0 JUMP JUMPDEST JUMPDEST DUP2 CALLDATALOAD PUSH2 0xBCC DUP5 DUP3 PUSH1 0x20 DUP7 ADD PUSH2 0xB65 JUMP JUMPDEST SWAP2 POP POP SWAP3 SWAP2 POP POP JUMP JUMPDEST PUSH1 0x0 DUP1 PUSH1 0x0 PUSH1 0x60 DUP5 DUP7 SUB SLT ISZERO PUSH2 0xBEE JUMPI PUSH2 0xBED PUSH2 0x80A JUMP JUMPDEST JUMPDEST PUSH1 0x0 DUP5 ADD CALLDATALOAD PUSH8 0xFFFFFFFFFFFFFFFF DUP2 GT ISZERO PUSH2 0xC0C JUMPI PUSH2 0xC0B PUSH2 0x80F JUMP JUMPDEST JUMPDEST PUSH2 0xC18 DUP7 DUP3 DUP8 ADD PUSH2 0xBA7 JUMP JUMPDEST SWAP4 POP POP PUSH1 0x20 PUSH2 0xC29 DUP7 DUP3 DUP8 ADD PUSH2 0x835 JUMP JUMPDEST SWAP3 POP POP PUSH1 0x40 PUSH2 0xC3A DUP7 DUP3 DUP8 ADD PUSH2 0x8C0 JUMP JUMPDEST SWAP2 POP POP SWAP3 POP SWAP3 POP SWAP3 JUMP JUMPDEST PUSH32 0x4E487B7100000000000000000000000000000000000000000000000000000000 PUSH1 0x0 MSTORE PUSH1 0x12 PUSH1 0x4 MSTORE PUSH1 0x24 PUSH1 0x0 REVERT JUMPDEST PUSH32 0x4E487B7100000000000000000000000000000000000000000000000000000000 PUSH1 0x0 MSTORE PUSH1 0x11 PUSH1 0x4 MSTORE PUSH1 0x24 PUSH1 0x0 REVERT JUMPDEST PUSH1 0x0 PUSH2 0xCAD DUP3 PUSH2 0x814 JUMP JUMPDEST SWAP2 POP PUSH2 0xCB8 DUP4 PUSH2 0x814 JUMP JUMPDEST SWAP3 POP DUP3 PUSH2 0xCC8 JUMPI PUSH2 0xCC7 PUSH2 0xC44 JUMP JUMPDEST JUMPDEST DUP3 DUP3 DIV SWAP1 POP SWAP3 SWAP2 POP POP JUMP JUMPDEST PUSH32 0x4E487B7100000000000000000000000000000000000000000000000000000000 PUSH1 0x0 MSTORE PUSH1 0x22 PUSH1 0x4 MSTORE PUSH1 0x24 PUSH1 0x0 REVERT JUMPDEST PUSH1 0x0 PUSH1 0x2 DUP3 DIV SWAP1 POP PUSH1 0x1 DUP3 AND DUP1 PUSH2 0xD1A JUMPI PUSH1 0x7F DUP3 AND SWAP2 POP JUMPDEST PUSH1 0x20 DUP3 LT DUP2 EQ ISZERO PUSH2 0xD2E JUMPI PUSH2 0xD2D PUSH2 0xCD3 JUMP JUMPDEST JUMPDEST POP SWAP2 SWAP1 POP JUMP JUMPDEST PUSH1 0x0 PUSH2 0xD3F DUP3 PUSH2 0x814 JUMP JUMPDEST SWAP2 POP PUSH32 0xFFFFFFFFFFFFFFFFFFFFFFFFFFFFFFFFFFFFFFFFFFFFFFFFFFFFFFFFFFFFFFFF DUP3 EQ ISZERO PUSH2 0xD72 JUMPI PUSH2 0xD71 PUSH2 0xC73 JUMP JUMPDEST JUMPDEST PUSH1 0x1 DUP3 ADD SWAP1 POP SWAP2 SWAP1 POP JUMP INVALID LOG2 PUSH5 0x6970667358 0x22 SLT KECCAK256 0xF7 0xA9 ORIGIN REVERT BLOCKHASH 0xD3 PUSH6 0xE20AF4660260 PUSH24 0xC42B5903A41C1B232DD6662EB14E7C12A36764736F6C6343 STOP ADDMOD SIGNEXTEND STOP CALLER LOG2 PUSH5 0x6970667358 0x22 SLT KECCAK256 DUP15 PUSH32 0x3CD1A7B280BF2331409FEC695F224549AD180BB26DCB2776281EA28CC2A56473 PUSH16 0x6C634300080B00330000000000000000 "},"gasEstimates":{"creation":{"codeDepositCost":"995800","executionCost":"1034","totalCost":"996834"},"external":{"createCompaigns(uint256)":"infinite","deployedCompaigns(uint256)":"4978","getDeployedCompaigns()":"infinite"}},"methodIdentifiers":{"createCompaigns(uint256)":"9389b892","deployedCompaigns(uint256)":"e698bdf1","getDeployedCompaigns()":"58c9aa44"}},"storageLayout":{"storage":[{"astId":4,"contract":"Compaign.sol:FactoryCompaign","label":"deployedCompaigns","offset":0,"slot":"0","type":"t_array(t_address)dyn_storage"}],"types":{"t_address":{"encoding":"inplace","label":"address","numberOfBytes":"20"},"t_array(t_address)dyn_storage":{"base":"t_address","encoding":"dynamic_array","label":"address[]","numberOfBytes":"32"}}},"userdoc":{"kind":"user","methods":{},"version":1}}